:020000040000FA
:100000000C9436020C945E020C945E020C945E0218
:100010000C945E020C945E020C945E020C945E02E0
:100020000C945E020C945E020C945E020C945E02D0
:100030000C945E020C945E020C945E020C945E02C0
:100040000C948C220C945E020C94FC220C94D6220C
:100050000C945E020C945E020C945E020C945E02A0
:100060000C942E230C945E0200407A10F35A00A0E8
:10007000724E18090010A5D4E80000E87648170071
:1000800000E40B54020000CA9A3B000000E1F505B1
:10009000000080969800000040420F000000A086FB
:1000A00001000000102700000000E803000000002D
:1000B0006400000000000A000000000001000000D1
:1000C00000002C76D888DC674F0823DFC1DFAE59EB
:1000D000E1B1B796E5E3E453C63AE651997696E87E
:1000E000E6C28426EB898C9B62ED407C6FFCEFBC02
:1000F0009C9F40F2BAA56FA5F490055A2AF75C932D
:100100006B6CF9676DC11BFCE0E40D47FEF520E662
:10011000B500D0ED902E0300943577050080841E45
:10012000080000204E0A000000C80C333333330FA0
:10013000986E12831141EF8D2114893BE65516CF3D
:10014000FEE6DB18D1844B381BF77C1D901DA4BB49
:10015000E424203284725E228100C9F124ECA1E5FE
:100160003D275D2000626C6E6B696E66006D637585
:1001700000302E302E300066772D74797065005473
:100180004D504C336649374A636678790062756929
:100190006C640041756720323620323032342030B2
:1001A000303A34323A313900626C796E6B00312E5C
:1001B000332E3200682D626561740034350062753B
:1001C00066662D696E0032353600646576004172D0
:1001D0006475696E6F20556E6F00637075004154D1
:1001E0006D6567613332385000636F6E005735318B
:1001F0003030000000436F6E6E656374696E672077
:10020000746F2000436F6E6E656374696E6720744F
:100210006F20000D0A202020205F5F5F20205F5F9D
:10022000202020202020202020205F5F0D0A202079
:10023000202F205F20292F202F5F205F5F5F5F5FCF
:1002400020202F202F5F5F0D0A20202F205F2020ED
:100250002F202F202F2F202F205F205C2F202027C2
:100260005F2F0D0A202F5F5F5F5F2F5F2F5C5F2C7A
:10027000202F5F2F2F5F2F5F2F5C5F5C0D0A2020E8
:100280002020202020202F5F5F5F2F2076312E330B
:100290002E32206F6E2041726475696E6F20556E2C
:1002A0006F0D0A0D0A20235374616E6457697468D8
:1002B000556B7261696E65202020206874747073BC
:1002C0003A2F2F6269742E6C792F737775610D0A3E
:1002D0000D0A0049503A0044484350204661696C79
:1002E0006564210047657474696E672049502E2E3D
:1002F0002E0000000000240027002A00000000005B
:10030000250028002B006D73292E00526561647949
:10031000202870696E673A20000000000023002644
:10032000002900040404040404040402020202027A
:1003300002030303030303010204081020408001A9
:100340000204081020010204081020000000080028
:10035000020100000304070000000000000000612B
:100360000261026102610261026102610261026175
:100370000261026102610261026102610261026165
:100380000261026102610261026102610261026155
:100390000261026102610261026102610261024C5A
:1003A0000B6002380B6002370B360B600260026094
:1003B000026002600260026002600260026002602D
:1003C000026002600260026002600260026002601D
:1003D0000260026002600260026002600260024924
:1003E0006E76616C696420485720636D643A200022
:1003F0005365727665723A2000526564697265636E
:1004000074696E6720746F200052656164790050D2
:1004100061636B657420746F6F206269673A2000B6
:10042000436F6E6E656374206661696C65642E202F
:10043000636F64653A2000496E76616C696420617F
:1004400075746820746F6B656E004C6F67696E2001
:1004500074696D656F757400486561727462656179
:10046000742074696D656F757400EF2411241FBECC
:10047000CFEFD8E0DEBFCDBF12E0A0E0B1E0E2E216
:10048000FCE602C005900D92A236B107D9F725E02F
:10049000A2E6B2E001C01D92AD39B207E1F712E069
:1004A000C6E3D2E004C02197FE010E941035C53397
:1004B000D107C9F70E94E4250C940F360C94000074
:1004C000089508958CBD9DBD089520E3FC0120830F
:1004D0003296862F82958F706F706A3030F4605D2F
:1004E0006293682F8111F5CF0895695CF9CFFC0103
:1004F000818D928D0895FC01538D448D252F30E020
:10050000842F90E0821B930B541710F0CF96089520
:1005100001970895FC01918D828D981761F0A28D4D
:10052000AE0FBF2FB11D5D968C91928D9F5F9F7313
:10053000928F90E008958FEF9FEF0895FC01918DC9
:10054000828D981731F0828DE80FF11D858D90E036
:1005500008958FEF9FEF0895FC01918D228D892FD3
:1005600090E0805C9F4F821B91098F7399270895BB
:10057000FC01A48DA80FB92FB11DA35ABF4F2C9118
:10058000848D90E001968F739927848FA689B7890F
:100590002C93A089B1898C91837080648C93938D06
:1005A000848D981306C00288F389E02D80818F7DA9
:1005B00080830895EF92FF920F931F93CF93DF9361
:1005C000EC0181E0888F9B8D8C8D98131AC0E8898F
:1005D000F989808185FF15C09FB7F894EE89FF895E
:1005E0006083E889F98980818370806480839FBFFC
:1005F00081E090E0DF91CF911F910F91FF90EF90FC
:100600000895F62E0B8D10E00F5F1F4F0F7311270B
:10061000E02E8C8D8E110CC00FB607FCFACFE88946
:10062000F989808185FFF5CFCE010E94B802F1CF14
:10063000EB8DEC0FFD2FF11DE35AFF4FF0829FB7BA
:10064000F8940B8FEA89FB8980818062CFCF0F936A
:100650001F93CF93DF938C01D0E0C0E0F801EC0F43
:10066000FD1F6491662341F081EB93E00E94DA0262
:10067000892B11F02196F2CFCE01DF91CF911F91FE
:100680000F910895CF93DF93EC01888D8823B9F003
:10069000AA89BB89E889F9898C9185FD03C080818D
:1006A00086FD0DC00FB607FCF7CF8C9185FFF2CF0A
:1006B000808185FFEDCFCE010E94B802E9CFDF91A6
:1006C000CF91089581EB93E00E94AC0221E0892B49
:1006D00009F420E0822F089580E090E0892B29F032
:1006E0000E94620381110C9400000895833081F010
:1006F00028F4813099F08230A9F008958730A9F06C
:100700008830C9F08430B1F4809180008F7D03C0BF
:10071000809180008F7780938000089584B58F77D3
:1007200084BD089584B58F7DFBCF8091B0008F7715
:100730008093B00008958091B0008F7DF9CF1F9312
:10074000CF93DF93282F30E0F901E55BFC4F8491D4
:10075000F901E95CFC4FD491F901ED5DFC4FC491C6
:10076000CC23A9F0162F81110E947603EC2FF0E024
:10077000EE0FFF1FE450FD4FA591B4918FB7F89491
:10078000EC91111108C0D095DE23DC938FBFDF916F
:10079000CF911F910895DE2BF8CFCF93DF9390E098
:1007A000FC01E95CFC4F24918D5D9C4FFC01849120
:1007B0008823C9F090E0880F991FFC01EE50FD4F8F
:1007C000A591B491FC01E450FD4FC591D491611104
:1007D0000DC09FB7F8948C91209582238C938881CB
:1007E000282328839FBFDF91CF910895623051F471
:1007F0009FB7F8943C91822F809583238C93E88156
:100800002E2BEFCF8FB7F894EC912E2B2C938FBF1C
:10081000EACF1F93CF93DF93182FEB0161E00E9483
:10082000CD03209739F460E0812FDF91CF911F91A4
:100830000C949F03CF3FD10511F461E0F5CFE12F78
:10084000F0E0E55BFC4FE491E33031F140F4E1305E
:10085000B1F0E230E1F0C038D1057CF7E4CFE73009
:1008600029F1E83059F1E430B1F7809180008062DD
:1008700080938000D0938B00C0938A0004C084B51D
:10088000806884BDC7BDDF91CF911F91089584B565
:10089000806284BDC8BDF7CF80918000806880935E
:1008A0008000D0938900C0938800EDCF8091B00084
:1008B00080688093B000C093B300E5CF8091B00012
:1008C00080628093B000C093B400DDCF8E3008F01A
:1008D0008E508770806480937C0080917A00806461
:1008E00080937A0080917A0086FDFCCF8091780019
:1008F0009091790008953FB7F8948091900390917A
:100900009103A0919203B091930326B5A89B05C0D3
:100910002F3F19F00196A11DB11D3FBFBA2FA92F7E
:10092000982F8827BC01CD01620F711D811D911D7B
:1009300042E0660F771F881F991F4A95D1F70895E7
:100940008F929F92AF92BF92CF92DF92EF92FF92DF
:100950006B017C010E947B044B015C01C114D1043A
:10096000E104F104B9F00E947B04681979098A094D
:100970009B09683E73408105910580F321E0C21A0E
:10098000D108E108F10888EE880E83E0981EA11CCA
:10099000B11CE4CFFF90EF90DF90CF90BF90AF906D
:1009A0009F908F9008952FB7F89460918C03709169
:1009B0008D0380918E0390918F032FBF089508952A
:1009C00008954F925F926F927F92AF92BF92CF92B3
:1009D000DF92EF92FF920F931F93CF93DF93EC017F
:1009E0006B017B01E40EF51E8B015801AC18BD08AC
:1009F0000E151F0511F10E94D304688779878A8735
:100A00009B87E881F9810284F385E02DCE01099569
:100A100097FF23C00E94D304488459846A847B844E
:100A200064197509860997094C805D806E807F8006
:100A3000641575058605970520F3C501DF91CF91F3
:100A40001F910F91FF90EF90DF90CF90BF90AF90EC
:100A50007F906F905F904F900895F80181938F0180
:100A6000C4CFDC01ED91FC910190F081E02D09945F
:100A7000AF92BF92CF92DF92EF92FF920F931F93AC
:100A8000CF93DF936C017B018B01040F151FEB01EA
:100A90005E01AE18BF08C017D10759F06991D601A1
:100AA000ED91FC910190F081E02DC6010995892B13
:100AB00079F7C501DF91CF911F910F91FF90EF90D2
:100AC000DF90CF90BF90AF9008952091A302260FA2
:100AD0003327331F21323105ECF42091EC02FC0165
:100AE00090E080E0243069F082E00895A091A302B4
:100AF0002191AC014D575D4FA40FB52FB11D2C9323
:100B00000196861798F38091A302680F6093A30261
:100B100080E0089581E008951092EC0281E08093D6
:100B2000EB021092C60261E082E10E949F0361E045
:100B300083E10E949F03E9EBF0E080818E7F808358
:100B400080818D7F808388E48093B80085E48093E2
:100B5000BC000895CF93DF9391E0909382028823A5
:100B6000B9F0C091B800D091BA008091BC008A7BE6
:100B70008093BC0060E082E10E949F0360E083E11B
:100B80000E949F030E948C05D093BA00C093B800C6
:100B9000DF91CF910895E0911B0380911A03E8172C
:100BA00030F4F0E0EE59FD4F808190E008958FEF32
:100BB0009FEF089590911B0380911A032FEF3FEF51
:100BC000981748F4E92FF0E0EE59FD4F208130E00E
:100BD0009F5F90931B03C901089580911A03909120
:100BE0001B03891B990B0895CF92DF92EF92FF921E
:100BF0000F931F93CF93DF937C01CB018A01209148
:100C0000F202222389F0EB016B01C40ED51ECC1534
:100C1000DD0569F06991D701ED91FC910190F081BA
:100C2000E02DC7010995F3CF642F0E946505C80127
:100C3000DF91CF911F910F91FF90EF90DF90CF90B8
:100C40000895CF93DF931F92CDB7DEB769832091CC
:100C5000F2022223F9F020911803203258F021E00B
:100C600030E0FC013383228390E080E00F90DF913D
:100C7000CF91089580911903E82FF0E0ED50FD4FDA
:100C8000998190838F5F809319038093180381E08B
:100C900090E0ECCF61E0CE0101960E946505F7CFB0
:100CA000CF92DF92EF92FF920F931F93CF93DF9338
:100CB000FC01C48121E02093F202C093130310923F
:100CC0001903109218038385682B8EE494E00E9428
:100CD0002106D0911803D13208F092C00E947B0403
:100CE0006B017C018091EC02811165C082E08093F0
:100CF000EC0281E08093EB028FEF8093EA02109286
:100D0000E902D093E802A3EFB2E0E8ECF2E080E081
:100D1000D81385C01092C7028091C702CC0FC82B90
:100D2000C093C7028091C602813009F07CC0109246
:100D3000C6020E947B046B017C018091C7028093F4
:100D4000BB008091EE029091EF02A091F002B09171
:100D5000F102892B8A2B8B2B99F00E947B04009146
:100D6000EE021091EF022091F0023091F1026C1925
:100D70007D098E099F090617170728073907E0F133
:100D80008091BC0083FDD9CF85EC8093BC000E948C
:100D90007B046B017C018091EC02823009F445C038
:100DA0008091EA028F3F61F18091EA02803241F145
:100DB0008091EA0225C08091EE029091EF02A0910D
:100DC000F002B091F102892B8A2B8B2B09F48ACF88
:100DD0000E947B040091EE021091EF022091F0023C
:100DE0003091F1026C197D098E099F0906171707CA
:100DF0002807390708F076CF8091ED020E94AA05F6
:100E000010921903109218031092F202DF91CF9101
:100E10001F910F91FF90EF90DF90CF9008959D91DB
:100E200091938F5F75CF85EEB0CF8091EE02909158
:100E3000EF02A091F002B091F102892B8A2B8B2B4B
:100E400009F4A9CF0E947B040091EE021091EF02F9
:100E50002091F0023091F1026C197D098E099F09F1
:100E6000061717072807390708F095CFC5CFFC01EB
:100E700020812EBD9B012150310941F051810DB4DB
:100E800007FEFDCF4EB55EBD4193F5CF61507109B0
:100E9000860F971F0DB407FEFDCF2EB5FC012083F2
:100EA0000895E0911D03F0911E03808190911C0331
:100EB000892B80830895E0911D03F0911E0390819A
:100EC00080911C0380958923808308958EBD000046
:100ED0000DB407FEFDCF8EB50895AF92BF92CF92AD
:100EE000DF92EF92FF920F931F93CF93DF93CDB7D3
:100EF000DEB728970FB6F894DEBF0FBECDBF8C01CA
:100F00007B016A018091B0038333E1F45801A40EA0
:100F1000B51EA016B10609F46FC00E945B0780EFF2
:100F20000E946607812F0E946607802F0E94660735
:100F30000F5F1F4FF70181917F010E9466070E949A
:100F40005107E7CF5B01A40EB51E8433C1F40E94A4
:100F50005B0719830A838D2D80688B83CC8264E0C4
:100F600070E0CE0101960E943707AE14BF0409F469
:100F700041C0F70181917F010E946607F6CF0E9470
:100F80005B070F3F110509F028F419820A8384E0FA
:100F90008B830CC017FD17C019820A8333E01695A6
:100FA00007953A95E1F7007E0C600B8386E0C81642
:100FB000D104A0F5F701DE011496EA15FB0599F0BE
:100FC00081918D93FACFC80126E0969587952A9551
:100FD000E1F7807E19830A830115104C10F48461B7
:100FE000D7CF8C61D5CFB6016D5F7F4FCE01019613
:100FF0000E9437070E945107C60128960FB6F89441
:10100000DEBF0FBECDBFDF91CF911F910F91FF903B
:10101000EF90DF90CF90BF90AF90089563E070E0C5
:10102000CE0101960E943707F70181917F010E944E
:101030006607AE14BF04C1F7DDCFCF93DF931F92D5
:10104000CDB7DEB7898341E050E0BE016F5F7F4FCF
:1010500090E080E00E946D070F90DF91CF9108959E
:1010600090E02091B003233339F40C96982F990F18
:10107000990F990F80E008954896F8CFDA01E09132
:101080002003F0E0FE2FEE27E60FF71F90E0982FE9
:101090008827A901BD018E0F9F1F0C946D07CF9368
:1010A000DF9300D0CDB7DEB779836A8322E030E0EA
:1010B000AE014F5F5F4F60E170E00E943E080F900D
:1010C0000F90DF91CF910895CF93DF9300D0CDB7EC
:1010D000DEB779836A8322E030E0AE014F5F5F4F75
:1010E00064E070E00E943E080F900F90DF91CF9176
:1010F0000895CF93DF931F92CDB7DEB720912003E1
:1011000030E0322F2227260F371F90E0982F8827B4
:10111000498341E050E0BE016F5F7F4F820F931F14
:101120000E946D070F90DF91CF910895CF93DF93C9
:101130001F92CDB7DEB76983DC01ED91FC9102808F
:10114000F381E02D41E050E0BE016F5F7F4F0995D4
:101150000F90DF91CF9108950895FC019485FB01D4
:101160008485981303C081E0943008F080E00895EE
:10117000CF93DF931F92CDB7DEB76983DC01ED918A
:10118000FC910280F381E02D41E050E0BE016F5FF1
:101190007F4F09950F90DF91CF9108950895FF92A9
:1011A0000F931F93CF93DF93EB01FC01178A168AED
:1011B0002A81211109C02B81211106C02C81211106
:1011C00003C02D81222301F141155105E9F08A0167
:1011D000FC01F08C80E591E00E946202AE014E5F5E
:1011E0005F4F24E030E06CE070E08F2D0E943E08FD
:1011F000B8018F2D0E944F0881E090E0DF91CF91E0
:101200001F910F91FF90089580E0F7CFFC01848536
:1012100095850895FC0184899589089522EC31E033
:10122000FC0131832083FB014089518962897389E4
:10123000FC0142835383648375830895DC01ED913F
:10124000FC91048CF58DE02D099490E080E00895E8
:10125000FC019485992369F080819181DC01ED91F5
:10126000FC910688F789E02D099591E0811101C074
:1012700090E0892F0895DC011C961C921C978D919B
:101280009C91009739F0DC01ED91FC910488F5897F
:10129000E02D099408958FE00E946604BC01990F27
:1012A000880B990B0E94603220E030E040EA50E465
:1012B0000E94BF3220E030E040E85AE30E94BF3293
:1012C0002AE037ED43E25CE30E9417340895FC0105
:1012D000768765870895DC01ED91FC9102A0F3A16A
:1012E000E02D099591E089270895862F089581E0E2
:1012F0008627089521E0FC018485843008F020E0F1
:10130000822F089508950F931F93CF938C01C62FBA
:101310000E9450066C2F6460C8010E9450066C2F1A
:101320006B7FC8010E94500683EC90E00197F1F7B3
:10133000CF911F910F9108950F931F93CF93DF9338
:101340008C01D62FC42F607F642B0E94830980E11B
:10135000D89FB00111246C2BC801DF91CF911F9150
:101360000F910C948309682F606840E080E994E055
:101370000C949C0941E00E949C0981E090E0089552
:10138000FB0101900020E9F73197AF01461B570B95
:10139000DC01ED91FC910280F381E02D0994CF9363
:1013A000DF930E942703EC0164EC71E081EB93E092
:1013B0000E94C0098C0F9D1FDF91CF9108958F92DD
:1013C0009F92AF92BF92EF92FF920F931F93CF9392
:1013D000DF93CDB7DEB7A1970FB6F894DEBF0FBE8F
:1013E000CDBF7C01FA01CB0119A2223008F42AE01A
:1013F0008E010F5D1F4F822E912CB12CA12CBF01AD
:10140000A50194010E94E633F901CA016A300CF586
:10141000605DD8016E938D01232B242B252B79F74A
:1014200090E080E0109721F0BD01C7010E94C00943
:10143000A1960FB6F894DEBF0FBECDBFDF91CF915E
:101440001F910F91FF90EF90BF90AF909F908F9062
:101450000895695CDECFCF93DF93AC0170E060E06C
:101460002AE081EB93E00E94DF09EC0164EC71E07B
:1014700081EB93E00E94C0098C0F9D1FDF91CF91FB
:101480000895462F50E070E060E02AE00C94DF09F8
:101490008F929F92AF92BF92CF92DF92EF92FF9284
:1014A0000F931F93CF93DF937C018B014C0182E05C
:1014B000880E911C5701E5E0AE0EB11CD0E0C0E0F3
:1014C000F40161914F01C8010E94410A6C016EE272
:1014D000C8010E9431058C0D9D1DC80FD91F8A14AB
:1014E0009B0471F7F7016581C8010E94410A8C0FC6
:1014F0009D1FDF91CF911F910F91FF90EF90DF9093
:10150000CF90BF90AF909F908F9008956BE581EB47
:1015100093E00E9431050E94D304AB01BC012AE094
:1015200081EB93E00E94DF0982E691E00C942703AF
:10153000EF92FF920F931F93CF93DF9300D000D0D1
:1015400000D0CDB7DEB78C017B01DC0118968D9100
:101550009C91892BC9F10E94860A85EF91E00E9437
:101560002703F801608571856115710521F081EB14
:1015700093E00E94C0096AE381EB93E00E94310589
:10158000C7010E942B0AD8018D919C911197189642
:101590006D917C91DC01ED91FC910088F189E02D49
:1015A000A701099521E0019709F020E0822F2696F6
:1015B0000FB6F894DEBF0FBECDBFDF91CF911F9164
:1015C0000F91FF90EF9008950E94860A84E092E0C8
:1015D0000E942703F801648181EB93E00E94410A95
:1015E0006EE281EB93E00E943105D80115966C9173
:1015F00081EB93E00E94410A6EE281EB93E00E944E
:101600003105F801668181EB93E00E94410A6EE2A8
:1016100081EB93E00E943105D80117966C9181EB24
:1016200093E00E94410A64EC71E081EB93E00E9438
:10163000C009F80180819181DC01ED91FC91068463
:10164000F785E02D22EC31E03A832983D801149606
:101650004D915D916D917C9117974B835C836D8368
:101660007E83A701BE016F5F7F4F9BCF08950895D2
:10167000FB01808191810E94872F21E0009709F46E
:1016800020E020938A03892B21F061E085E00C940F
:101690009F0360E084E0FBCFFB01808191810E9489
:1016A000872F892B21F061E084E00C949F0360E098
:1016B00085E0FBCF0C945A2EAF92BF92CF92DF926F
:1016C000EF92FF920F931F93CF93DF9300D000D040
:1016D000CDB7DEB78C016B017A018091B003833303
:1016E000E9F45B016801C40ED51EC016D106A9F14C
:1016F0000E945B078FE00E946607812F0E946607A9
:10170000802F0E9466070F5F1F4F80E00E946607D0
:10171000F50181935F010E945107E7CF843369F59A
:101720000E945B0719830A838F2D8F778B83EC824E
:1017300064E070E0CE0101960E943707A70170E0D7
:1017400060E0C6010E94E935E114F10421F0B7011F
:10175000C6010E9437070E945107C7010F900F90E2
:101760000F900F90DF91CF911F910F91FF90EF900D
:10177000DF90CF90BF90AF9008950E945B070F3F1E
:10178000110509F030F419820A831B8263E070E0CE
:10179000D1CF17FD0BC019820A8333E01695079548
:1017A0003A95E1F7007E08600B83F0CFC80126E090
:1017B000969587952A95E1F7807E19830A8301150E
:1017C000104C18F480618B83E1CF8861FCCFCF93FC
:1017D000DF931F92CDB7DEB72091200330E0322F88
:1017E0002227260F371F90E0982F882741E050E0EE
:1017F000BE016F5F7F4F820F931F0E945C0B898138
:101800000F90DF91CF910895CF93C82F462F61E0BD
:1018100070E00E94790861E070E08C2F0E94E70B75
:101820008111F9CFCF910895CF93C82F80E591E032
:101830000E94620268E070E08C2FCF910C94040C3F
:10184000CF93C82F80E591E00E94620260E170E0D2
:101850008C2FCF910C94040CCF93DF93EC01888DE7
:10186000843020F40E94200C84E0888FDF91CF9197
:101870000895CF93C82F80E591E00E94620263E053
:1018800070E08C2FCF910C94E70BCF93DF93EC019A
:101890008C858430D0F40E94390C843189F08823FF
:1018A00079F0883169F021E08C3159F4E881F981CF
:1018B0000084F185E02DCE01099521E0892B09F402
:1018C00020E0822FDF91CF91089580E0FBCFCF926F
:1018D000DF92EF92FF92CF93DF93EC018C858430FF
:1018E00068F40E94140C0E94D3046B017C018C8567
:1018F0000E94390C811109C084E08C87DF91CF915F
:10190000FF90EF90DF90CF90089561E070E080E06D
:1019100090E00E94A0040E94D304AB01BC014C19CA
:101920005D096E097F098D859E85B0E0A0E04817AE
:1019300059076A077B07D8F28C850E94200CDCCF00
:10194000CF93FC01C08D80E591E00E94620260E2CD
:1019500070E08C2F0E94040C62E070E08C2F0E94DB
:10196000E70B84FD16C062E070E08C2F0E94E70B4D
:1019700083FF0AC048E162E070E08C2F0E94790882
:1019800080E090E0CF91089580E591E00E946202AE
:10199000E3CF40E162E070E08C2F0E94790881E0A3
:1019A000F0CFCF93DF931F92CDB7DEB741E050E089
:1019B000BE016F5F7F4F90E080E00E945C0B8981E9
:1019C0000F90DF91CF910895CF93DF93C4E1D0E0E2
:1019D0000E94D10C882361F061E070E080E090E02B
:1019E0000E94A0042197A1F780E0DF91CF91089594
:1019F00081E0FBCF1F93CF93DF931F92CDB7DEB76C
:101A0000182F80E591E00E946202812F0E94300829
:101A100027E0129FF0011124EC56FC4F2281338104
:101A2000377041E050E0BE016F5F7F4F820F931F20
:101A30000E945C0B89810F90DF91CF911F910895D7
:101A4000FC01808D843040F4218D328D232B21F0D8
:101A50000E94FA0C90E008958FEF9FEF0895CF93C6
:101A6000DF93FC012485243028F08FEF9FEFDF9176
:101A7000CF910895EC010190F081E02D0084F18573
:101A8000E02D0995892B89F38C850E94FA0C90E052
:101A9000EECFDA01E0912003F0E0FE2FEE27E60F13
:101AA000F71F90E0982F8827A901BD018E0F9F1F77
:101AB0000C945C0B8F929F92AF92BF92CF92DF9269
:101AC000EF92FF921F93CF93DF93CDB7DEB72C97A2
:101AD0000FB6F894DEBF0FBECDBF2091B00314E067
:101AE000222339F16B017C0180E591E00E946202C2
:101AF0005E0127E0A20EB11C450110E063E070E03A
:101B0000812F0E94E70BF40181934F01882349F153
:101B10001F5F143099F710E0F50181915F018D315D
:101B2000D9F08831C9F08A518230B0F01F5F14308B
:101B300099F7812F2C960FB6F894DEBF0FBECDBF5C
:101B4000DF91CF911F91FF90EF90DF90CF90BF90EA
:101B5000AF909F908F90089560E170E0812F0E9478
:101B6000040CA12EB12C83EE93E00197F1F742E82B
:101B700070E060E0812F0E9479084FEF62E070E032
:101B8000812F0E947908B601C114D10491F480918B
:101B900020019091210101968115F0EC9F0708F436
:101BA0005CC090932101809320016091200170918D
:101BB0002101812F0E94640886E0ECE2F1E0DE0161
:101BC000119601900D928A95E1F7F70183818F7745
:101BD0008C8384818D8385818E83A7014E5F5F4FC7
:101BE00024E030E06CE070E0812F0E943E08B601F6
:101BF000812F0E944F0826E030E0AE014F5F5F4F1B
:101C000066E070E0812F0E943E0861E070E0812F65
:101C10000E94040C27E02A9DC0012B9D900D1124E9
:101C20009C012C563C4F7901F9011182108222E06F
:101C300030E0AE01455F5F4F68E270E0812F0E94A7
:101C4000490D8B859C85982789279827F7019383D1
:101C500082831682158214826CCF80E090ECA1CF33
:101C6000CF92DF92EF92FF920F931F93CF93DF9368
:101C700000D000D000D0CDB7DEB78C016B017A0167
:101C8000FC01808D843010F40E94200C82EC91E0E5
:101C90009A838983F60182819381A481B5818B83A4
:101CA0009C83AD83BE83B701CE0101960E945A0D7D
:101CB000F801808F8430A0F4F586E486128E118EB0
:101CC00081E026960FB6F894DEBF0FBECDBFDF9140
:101CD000CF911F910F91FF90EF90DF90CF900895DB
:101CE00080E0EFCFAF92BF92CF92DF92EF92FF9260
:101CF0000F931F93CF93DF9300D000D000D0CDB7C8
:101D0000DEB7082F6B0180E591E00E9462029E0120
:101D10002F5F3F4F7901590110E063E070E0812FA0
:101D20000E94E70BF50181935F01882341F11F5F5A
:101D3000143099F710E0F70181917F018D31D1F0D6
:101D40008831C1F08A518230A8F01F5F143099F7B2
:101D5000812F26960FB6F894DEBF0FBECDBFDF9160
:101D6000CF911F910F91FF90EF90DF90CF90BF9098
:101D7000AF90089560E170E0812F0E94040CE12E85
:101D8000F12C83EE93E00197F1F7402F70E060E0D3
:101D9000812F0E9479084FEF62E070E0812F0E944E
:101DA0007908B601CD2889F4809120019091210114
:101DB00001968115F0EC9F0798F190932101809393
:101DC00020016091200170912101812F0E946408FF
:101DD00061E070E0812F0E94040C27E02E9DC0017D
:101DE0002F9D900D11249C012C563C4F7901F90137
:101DF0001182108222E030E0AE014B5F5F4F68E25B
:101E000070E0812F0E94490D8D819E81982789273E
:101E10009827F7019383828316821582148298CFC4
:101E200080E090ECCACFCF92DF92EF92FF921F93A7
:101E3000CF93DF93EC017B016A018C85843048F4F9
:101E40000E94390C882319F08C850E94140C84E0C0
:101E50008C87F70182819381A481B5810097A105C8
:101E6000B10551F490E080E0DF91CF911F91FF9098
:101E7000EF90DF90CF9008958F3F9F4FAF4FBF4FB0
:101E800089F38091B003811103C084E08C87EACF8D
:101E900070E060E081E20E94720E182F8C8784301F
:101EA00008F780E591E00E946202A7014E5F5F4F54
:101EB00024E030E06CE070E0812F0E943E08B60123
:101EC000812F0E944F0864E070E0812F0E94040C73
:101ED0000E94D3046B017C018C850E94390C8731F0
:101EE00009F18C31F9F0882309F4BCCF0E94D304A6
:101EF000AB01BC014C195D096E097F098D859E857A
:101F0000B0E0A0E084179507A607B70738F061E0B6
:101F100070E080E090E00E94A004DECF8C850E94FB
:101F2000200CB3CF81E090E09FCF0F931F93CF930E
:101F3000DF93EC018B01888D843010F40E94200C1B
:101F40008091B003811107C094E0988FDF91CF9109
:101F50001F910F910895B80182E00E94720E888F40
:101F6000843030F41D870C871A8E198E81E0EECFF5
:101F700080E0ECCF7F928F929F92AF92BF92CF92F0
:101F8000DF92EF92FF920F931F93CF93DF9300D0D6
:101F9000CDB7DEB7782E8B014A01590122E030E03F
:101FA000AE014F5F5F4F64E270E00E94490DE9802F
:101FB000FA80FE24EF24FE24E00EF11E9701377014
:101FC0004091B003072D10E0433309F042C0085F91
:101FD0001F4F102F0027110F110F110FC901800F74
:101FE000911F4733C9F1A9014A0D5B1D413058408B
:101FF00098F160E078E06B01C21AD30AA601B4013F
:102000000E946D07A5014C195D09B4016C0D7D1D81
:10201000C8010E946D07EA0CFB1CF982EA8222E0EB
:1020200030E0AE014F5F5F4F64E270E0872D0E94A9
:102030003E080F900F90DF91CF911F910F91FF906D
:10204000EF90DF90CF90BF90AF909F908F907F9058
:102050000895005F1F4FBDCFA501B401DACFEF9205
:10206000FF921F93CF93DF9300D0CDB7DEB7182F29
:1020700022E030E0AE014F5F5F4F60E270E00E940F
:10208000490DE980FA80FE24EF24FE2422E030E0AE
:10209000AE014F5F5F4F60E270E0812F0E94490DFB
:1020A00089819A81982789279827E816F90689F463
:1020B00087E0189FF0011124EC56FC4FF582E48272
:1020C000C7010F900F90DF91CF911F91FF90EF907C
:1020D00008957C01DBCF1F93CF93DF93182F80E50A
:1020E00091E00E946202812F0E942F10EC0163E0B8
:1020F00070E0812F0E94E70B873121F08C3111F0C5
:10210000D0E0C0E0CE01DF91CF911F910895CF9331
:10211000DF93EC018C85843060F40E94390C8731A8
:1021200011F08C3131F48C850E946B108115984030
:1021300088F3DF91CF910895FC018485843010F4F9
:102140000C946B1090E080E008959F92AF92BF9244
:10215000CF92DF92EF92FF920F931F93CF93DF9373
:102160008C015B01942EE52EFC01C688D788F08C8B
:1021700080E591E00E9462028F2D0E942F10C92DF0
:10218000DE2D8C179D0708F4EC019E01A501B60118
:102190008F2D0E94BA0FF801868997898C0F9D1F99
:1021A000978B868BCE01DF91CF911F910F91FF907E
:1021B000EF90DF90CF90BF90AF909F9008958F9257
:1021C0009F92AF92BF92CF92DF92EF92FF920F93C6
:1021D0001F93CF936C015B018A01FC01C485C4305D
:1021E000F0F57A014130584018F0E12C88E0F82EE3
:1021F00080E591E00E9462028C2F0E942F104C011A
:1022000063E070E08C2F0E94E70B873111F08C3176
:1022100049F58E149F0460F380E591E00E9462020C
:102220009701A50170E060E08C2F0E94BA0F60E278
:1022300070E08C2F0E94040C62E070E08C2F0E94F2
:10224000E70B84FD17C063E070E08C2F0E94E70B62
:1022500081110BC081E090E0F6019383828310E04E
:1022600000E010C0F12CE12CD7CF80E591E00E9476
:102270006202E2CF40E162E070E08C2F0E947908B8
:10228000EF2841F3C801CF911F910F91FF90EF907C
:10229000DF90CF90BF90AF909F908F900895FF9266
:1022A0000F931F93CF93DF9300D0CDB7DEB7F82EF7
:1022B00022E030E0AE014F5F5F4F66E270E00E94C7
:1022C000490D09811A8110270127102722E030E0EB
:1022D000AE014F5F5F4F66E270E08F2D0E94490DA7
:1022E00089819A819827892798270817190749F41F
:1022F000C8010F900F90DF91CF911F910F91FF9028
:1023000008958C01E3CF1F93CF93DF93182F87E0BD
:10231000189FE0011124CC56DC4F888199810097E9
:1023200061F480E591E00E946202812F0E944F11CA
:102330002E81821B910999838883DF91CF911F9110
:102340000895FC018485843010F40C94831190E08E
:1023500080E008954F925F927F928F929F92AF920A
:10236000BF92CF92DF92EF92FF920F931F93CF9382
:10237000DF9300D0CDB7DEB7782E6B014A01A82ECF
:10238000B12C27E0829FC0011124FC01EC56FC4FC8
:102390007F010081118180E591E00E9462020815B1
:1023A000190554F4872D0E944F11F70126818C01E5
:1023B000021B1109118300830115110529F563E042
:1023C00070E0872D0E94E70B843159F0882349F093
:1023D00001E010E08C3111F410E000E0119501955E
:1023E0001109C8010F900F90DF91CF911F910F91AC
:1023F000FF90EF90DF90CF90BF90AF909F908F9025
:102400007F905F904F900895801691060CF48401A0
:1024100087E08A9DF0018B9DF00D1124EC56FC4F56
:10242000E280F380C114D10451F12701F7E05F226B
:10243000872D0E943008840D951D2091B00327330D
:1024400009F453C09801240D351D2130384008F49B
:102450004CC020E038E0490184189508A401B60179
:102460000E945C0B2601480C591C6801C818D90849
:10247000872D0E943008A601B2010E945C0BE00E7D
:10248000F11E87E08A9DF0018B9DF00D1124EC5622
:10249000FC4FF382E28220813181201B310B31839A
:1024A00020838681800F912F911D8A3F910510F422
:1024B000232BF1F487E08A9DF0018B9DF00D112410
:1024C000EC56FC4F1682F982EA8222E030E0AE013F
:1024D0004F5F5F4F68E270E0872D0E943E0860E426
:1024E00070E0872D0E94040C7CCFA801B601C5CFF7
:1024F000868377CFCF93DF93FC01218D328D211519
:10250000310529F48FEF9FEFDF91CF910895EC0112
:10251000808D4217530708F0A9010E94AA111816CE
:10252000190684F7298D3A8D281B390B3A8F298F8C
:10253000EBCF0F931F93CF93DF931F92CDB7DEB7EF
:10254000FC01218D328D232B41F48FEF9FEF0F90F3
:10255000DF91CF911F910F9108958C0141E050E0E0
:10256000BE016F5F7F4FFC01808D0E94AA1118167B
:1025700019065CF7F801818D928D0197928F818FFA
:10258000898190E0E4CFCF93DF931F92CDB7DEB780
:1025900041E050E0BE016F5F7F4FFC0184850E94E7
:1025A000AA111816190634F4898190E00F90DF9172
:1025B000CF9108958FEF9FEFF9CFFC018485843090
:1025C00010F40C94AA1190E080E008950F931F93EB
:1025D000CF93DF9300D0CDB7DEB7FC012485243044
:1025E000E0F48C0180E591E00E94620222E030E09C
:1025F000AE014F5F5F4F60E170E0F80184850E949B
:10260000490D89819A819827892798270F900F90E3
:10261000DF91CF911F910F91089590E080E0F6CF68
:102620000F931F93CF93DF9300D0CDB7DEB7FC019C
:1026300024852430E0F48C0180E591E00E94620260
:1026400022E030E0AE014F5F5F4F64E070E0F801E0
:1026500084850E94490D89819A8198278927982726
:102660000F900F90DF91CF911F910F91089590E0FF
:1026700080E0F6CFDC0182EC91E08D939D9384E0C5
:10268000FB0101900D928A95E1F70895EF92FF9278
:102690000F931F93CF93DF9300D000D0CDB7DEB759
:1026A0008C017B01FB0184858430A8F082EC91E0F1
:1026B000F801918380831282138214821582C801EB
:1026C0000F900F900F900F90DF91CF911F910F916E
:1026D000FF90EF90089580E591E00E94620224E06F
:1026E00030E0AE014F5F5F4F6CE070E0F701848532
:1026F0000E94490DBE016F5F7F4FC8010E943A13CF
:10270000DECF0F931F93CF93DF93CDB7DEB728971C
:102710000FB6F894DEBF0FBECDBF8C01D80159961D
:102720004D915C915A974115510551F0ED91FC91F5
:10273000048CF58DE02D70E060E0C8010995EECFC6
:10274000F801808D0E948311892BB1F148E050E09F
:10275000BE016F5F7F4FD80158968C910E94AA11DD
:1027600018161906F4F4D801509684E0FE0131964B
:1027700001900D928A95E1F78D8190E0982F88273E
:102780002E81820F911DF801958B848B8F81282FCC
:1027900030E0322F22278885820F932F911D928F50
:1027A000818F28960FB6F894DEBF0FBECDBFDF91A4
:1027B000CF911F910F91089590E080E0F2CF4F925A
:1027C0005F926F927F928F929F92AF92BF92CF92C1
:1027D000DF92EF92FF920F931F93CF93DF93CDB7CA
:1027E000DEB763970FB6F894DEBF0FBECDBF7C0196
:1027F0006B013A01FB0120E090E080E06AE031915A
:10280000332309F461C040ED430F4A3008F04DC056
:10281000689FA001699F500D1124CA01C097830FC2
:10282000911D37FD9A958F3F910549F340F3F701CC
:1028300042815381648175818091860490918704DF
:10284000A0918804B0918904481759076A077B074B
:1028500009F40DC28701085F1F4F0E94D3046F70F7
:1028600077277C5FC8010E94950F813009F004C270
:1028700082EC91E09A838983F70182819381A4811C
:10288000B5818B839C83AD83BE8345E350E0BE015D
:102890006F5F7F4FC8010E94CF08892BA9F5D12C0B
:1028A000C12CC8010E942C0C17C03E3209F0BFCFCA
:1028B000233009F4BCCFD301A20FB11D12968C9323
:1028C0002F5F90E080E09BCF233009F0B0CFF30181
:1028D0008583CC24C394D12CC60163960FB6F8949B
:1028E000DEBF0FBECDBFDF91CF911F910F91FF9043
:1028F000EF90DF90CF90BF90AF909F908F907F90A0
:102900006F905F904F9008950E94D304F7017783F2
:10291000668342E050E0B7016A5F7F4FC8010E94C2
:10292000A51081E090E09A83898342E050E0BE01E7
:102930006F5F7F4FC8010E94A51080E091E09A83ED
:10294000898342E050E0BE016F5F7F4FC8010E9463
:10295000A5101A82198242E050E0BE016F5F7F4FDE
:10296000C8010E94A51042E050E0BE016F5F7F4F9A
:10297000C8010E94A51042E050E0BE016F5F7F4F8A
:10298000C8010E94A5105601F6018081882301F13B
:102990006501F60181912F01882311F08E32B1F487
:1029A00046018A189B081814190474F48D8641E0B6
:1029B00050E0BE01635F7F4FC8010E94A510A401D3
:1029C000B501C8010E94A5105201DECF6201E1CF1E
:1029D0001D8641E050E0BE01635F7F4FC8010E9449
:1029E000A510C12CDD24D394DA82C98242E050E0E4
:1029F000BE016F5F7F4FC8010E94A510DA82C982B5
:102A000042E050E0BE016F5F7F4FC8010E94A510F9
:102A1000C8010E94A00C892B09F441CFF3E0AF2E2E
:102A2000B12C230122E0420E511CD4C0F701428197
:102A3000538164817581808D918DA28DB38D4817EE
:102A400059076A077B0709F008C1848D958DC597E2
:102A500009F003C181A192A15DEFC52EDD24DA94B6
:102A60000C970CF4ADC04CE050E0BE016F5F7F4F9F
:102A7000C8010E947A128B819C8198278927982708
:102A80009A8B898BF7014681578129813A814217B8
:102A9000530709F0E7C097FFE5C08F7092703BEFD6
:102AA000C32EDD24DA94892B09F08AC06F807884E4
:102AB0007624672476242AEFC22EDD24DA9461146A
:102AC000710409F47DC0D12CC12C8D819E81982781
:102AD00089279827C816D906F8F441E050E0BE01CE
:102AE000635F7F4FC8010E947A124D85442331F005
:102AF00050E070E060E0C8010E947A128D8581117B
:102B0000ECCF44E050E070E060E0C8010E947A122F
:102B1000FFEFCF1ADF0AD9CF912C812C41E050E092
:102B2000BE016D5E7F4FC8010E947A124B89842FCF
:102B3000807C09F06CC0442331F050E070E060E02C
:102B4000C8010E947A128B898111E8CF42E050E0DF
:102B5000BE01615F7F4FC8010E947A1242E050E0DF
:102B6000BE01635F7F4FC8010E947A1244E050E0CB
:102B700070E060E0C8010E947A1242E050E0BE01BD
:102B80006F5E7F4FC8010E947A128F8598894989AC
:102B90005A898115914009F043C0CD84DE84DC243C
:102BA000CD24DC2481E0C816D104D1F54115544070
:102BB00009F04AC044E050E0B201C8010E947A1214
:102BC00021E0A21AB10809F46CCEFFEFCF16DF06A0
:102BD00009F067CE0E94D3043B014C01C8010E945A
:102BE0008113181619060CF421CF0E94D30466191C
:102BF000770988099909693873418105910548F574
:102C000062E370E080E090E00E94A004E7CF41E042
:102C100050E070E060E0C8010E947A121B8A93CFF6
:102C200054274527542770E060E0C8010E947A12BB
:102C3000FFEF8F1A9F0A6814790409F06FCF96EF9F
:102C4000C92EDD24DA94BCCFE7EFCE2EDD24DA9452
:102C5000B7CFCC24CA94DC2CB3CF6EEFC62EDD24C4
:102C6000DA94AECF4CEFC42EDD24DA94A9CF8EEFE8
:102C7000C82EDD24DA9430CED12CC12C2DCECF92AB
:102C8000DF92EF92FF920F931F93CF93DF93CDB715
:102C9000DEB7AF970FB6F894DEBF0FBECDBF7C0195
:102CA0006A0102EC11E01A8309831C861B8688EEF8
:102CB00093E0A0E0B0E08D879E87AF87B88B86E376
:102CC00091E09A878987188F0F8B198E1A8E1B8E29
:102CD0001C8E84E089A31BA70AA71CA61DA61EA6FE
:102CE0001FA680917A0490917B04A0917C04B091FE
:102CF0007D048EA39FA3A8A7B9A78B839C83AD83D4
:102D0000BE8318861F82AE01465D5F4FCE010196DD
:102D10000E94DF1381309105B1F4D701ED91FC9150
:102D20000488F589E02D1DA30CA38CA59DA5AEA557
:102D3000BFA58EA39FA3A8A7B9A7A601BE016C5DDE
:102D40007F4FC7010995AF960FB6F894DEBF0FBE4F
:102D5000CDBFDF91CF911F910F91FF90EF90DF904A
:102D6000CF900895CF92DF92EF92FF920F931F932F
:102D7000CF93DF93CDB7DEB7AF970FB6F894DEBF32
:102D80000FBECDBF8C016B017A0182EC91E09A837A
:102D900089831B821C821D821E821C861B8648EE34
:102DA00053E060E070E04D875E876F87788B26E3A5
:102DB00031E03A872987988F8F8B198E1A8E1B8E58
:102DC0001C8E24E029A39BA78AA71CA61DA61EA6CD
:102DD0001FA6D8011C968C91843060F40E94390C97
:102DE000882321F0F80184850E94140C84E0D80126
:102DF0001C968C9380917A0490917B04A0917C0422
:102E0000B0917D048EA39FA3A8A7B9A78B839C83B1
:102E1000AD83BE8318861F82AE01465D5F4FB6014B
:102E2000CE0101960E94DF130097C1F0D801ED9109
:102E3000FC910684F785E02D82EC91E09DA38CA3A4
:102E40008CA59DA5AEA5BFA58EA39FA3A8A7B9A736
:102E5000A701BE016C5D7F4FC8010995AF960FB603
:102E6000F894DEBF0FBECDBFDF91CF911F910F91C0
:102E7000FF90EF90DF90CF9008957F928F929F9276
:102E8000AF92BF92CF92DF92EF92FF920F931F9378
:102E9000CF93DF93CDB7DEB7A6970FB6F894DEBF1A
:102EA0000FBECDBF8C01762E942E852E20E2A22E51
:102EB000CE0101967C01DC01EA2D1D92EA95E9F72D
:102EC0006801F3E4CF0ED11C82EC91E09AA389A3B0
:102ED0008FEF8BA38CA38DA38EA343E450E0BE01A0
:102EE0006F5D7F4FC6010E94CF08019609F4BFC0F5
:102EF00081E089838A8386E0B82EBB821C82D80158
:102F000014966D917D918D919C9117970E949E349E
:102F10006D837E838F83988789869A8680E890E088
:102F20009C878B874CE150E0B701C6010E94A51039
:102F3000FE0137968AE1DF011D928A95E9F7480183
:102F4000B8E08B0E911CF401D70101900D92BA9458
:102F5000E1F740E150E0B701C6010E94A510F7017A
:102F60001192AA94E9F796E0A92EB12C40E250E024
:102F7000B701C6010E94A510F1E0AF1AB108B1F780
:102F800083E6898392E89A8393E59B838C8385E328
:102F90008D8381E08E837F829DE3988797E0998778
:102FA0008A8786E0F401DE011B9601900D928A95D6
:102FB000E1F78CE0898B8A8B67EC71E0CE01439658
:102FC0000E94F935D8011B966C91CE0149960E945A
:102FD0006502F8016485CE014B960E946502D80116
:102FE0001D966C91CE014D960E9465024EE150E017
:102FF000B701C6010E94A510B3E07B121EC082E398
:10300000898384E08A83F80196859B8397859C83D6
:1030100090899D8391899E8396E39F838887828D83
:103020008987838D8A87848D8B87858D8C874CE0FB
:1030300050E0B701C6010E94A51087E3898386E0AE
:103040008A8391E09B8393E09C838D838FE08E83C2
:103050008AE38F838BE388878FEF898749E050E08D
:10306000B701C6010E94A510C6010E94A00CA69639
:103070000FB6F894DEBF0FBECDBFDF91CF911F9189
:103080000F91FF90EF90DF90CF90BF90AF909F9007
:103090008F907F9008950F931F93CF93DF93EC0150
:1030A000FB0101900020E9F78F01061B170B8A81B5
:1030B0009B81A801480F591F2C813D81241735079A
:1030C00068F028813981A801820F931F0E94E035A2
:1030D0004A815B81400F511F5B834A83DF91CF910F
:1030E0001F910F9108956115710599F4DC01ED911F
:1030F000FC91119712962D913C911397A9014F5F66
:103100005F4F13965C934E931297E20FF31F10825A
:1031100008950C944B1885ED8093BC008091EE02CD
:103120009091EF02A091F002B091F1020796A11DDB
:10313000B11D23E0B695A795979587952A95D1F768
:103140002091BC0024FD03C01092EC020895409130
:10315000EE025091EF026091F0027091F102452B66
:10316000462B472B69F30097A105B10541F02AE2F0
:103170002A95F1F700C00197A109B109E1CF80912B
:10318000ED020C94AA053F924F925F926F927F924C
:103190008F929F92AF92BF92CF92DF92EF92FF9267
:1031A0000F931F93CF93DF93CDB7DEB7EA970FB698
:1031B000F894DEBF0FBECDBF7C012A013B0169013F
:1031C0000E94D3044B015C0187010D5B1F4FC801B6
:1031D0000E948113181619069CF00E94D3046819E6
:1031E00079098A099B09461657066806790608F484
:1031F00066C162E370E080E090E00E94A004E7CF47
:1032000042E250E0BE016F5F7F4FC8010E947A1218
:1032100089818230D1F0312C832DEA960FB6F89453
:10322000DEBF0FBECDBFDF91CF911F910F91FF90F9
:10323000EF90DF90CF90BF90AF909F908F907F9056
:103240006F905F904F903F900895F8018489958921
:103250008334910501F76D817E818F8198850E946D
:103260009E344B015C01F60180829182A282B3827E
:1032700046E050E0B701685F7F4FCE014D960E9457
:10328000D335892B41F6F70180819181A281B381E9
:1032900088169906AA06BB0608F4BDCF84819581DD
:1032A000A681B78188159905AA05BB0508F4B3CF97
:1032B00089899A89AB89BC8986879787A08BB18BCE
:1032C0004EEC50E070E060E0C8010E947A12312CB0
:1032D000C701829698AB8FA7F701B696FAABE9AB18
:1032E00008969CAB8BAB67019AE1C90ED11CBD96C9
:1032F000FEABEDABC701429698AF8FABFD97FAAF2F
:10330000E9AF4701FEE18F0E911CF801818D928D8E
:10331000181619060CF080CFC8010E949912833349
:10332000910509F4B2C014F58130910509F464C027
:1033300044F4892B51F3C8010E949912AC0155271E
:1033400075C08330910509F462C00697A1F7C801E2
:103350000E949912B82E44E050E0B401C8010E94C6
:103360007A12EB2DE450FF0BAF0160C08A33910558
:1033700009F45FC084F585339105B1F1C697D9F69C
:10338000C8010E9499125C01B601CE0189960E9483
:103390003A138BA59CA5ADA5BEA5892B8A2B8B2B9B
:1033A000B1F0EDA9FEA94080518062807380B60122
:1033B000CE0183960E943A138DA19EA1AFA1B8A51C
:1033C000A501481659066A067B0609F0B8CF44E005
:1033D00050E0B60118C08B33910509F440C08F3F0F
:1033E000910509F492CFA7CFC8010E949912C80194
:1033F0000E949912382E89CFC8010E94991244E088
:1034000050E06FA978ADC8010E947A127ECFC80142
:103410000E949912B82E44E050E069AD7AADC8011F
:103420000E947A128B2D8450990BAC0170E060E001
:10343000EACFC8010E94991244E050E069A97AA934
:10344000C8010E947A12F70166A177A180A591A513
:103450000E949E3466A377A380A791A756CFC80188
:103460000E94991244E050E06BA97CA9C8010E9417
:103470007A12F70162A573A584A595A50E949E34D2
:1034800062A773A784A795A740CFC8010E9499128D
:1034900044E050E06FA578A9C8010E947A12F701B4
:1034A00062A173A184A195A10E949E3462A373A31B
:1034B00084A395A366A777A780AB91AB26CF3324CF
:1034C0003A94AACE0F931F93CF93DF93CDB7DEB775
:1034D00028970FB6F894DEBF0FBECDBF8C01CB018D
:1034E0004AE0BE016F5F7F4F0E94D52FBE016F5F24
:1034F0007F4FC8010E944B1828960FB6F894DEBF84
:103500000FBECDBFDF91CF911F910F9108953F92D4
:103510004F925F926F927F928F929F92AF92BF92E3
:10352000CF92DF92EF92FF920F931F93CF93DF938F
:10353000CDB7DEB7A1970FB6F894DEBF0FBECDBFF3
:103540005C010DB71EB719A308A360E070E0CB01C2
:103550000E94A004D50191968D919C919297912CF7
:10356000029709F4C9C390968C9190978F5F9096BB
:103570008C9390975E962D913C91232B19F0992472
:103580009394B3C38330D8F7F501828593850E9465
:103590002809882309F489C38E010F5F1F4F380162
:1035A000D5011A96ED91FC9180819181DC01ED911C
:1035B000FC910084F185E02D0995181619060CF090
:1035C00074C3D5011A96ED91FC9145E050E0BE011F
:1035D000695E7F4F808191810E94E104009701F331
:1035E000059709F074C0888D998D982789279827A9
:1035F000998F888FEA8CFB8CFE24EF24FE24FB8EAF
:10360000EA8E892B09F463C08F89811174C00E94EE
:10361000D304F501608B718B828B938B21A132A136
:103620008A8D9B8D232B09F062C0288D398D213026
:10363000310509F05CC089309105E1F1883C9105C4
:1036400019F0049709F048C00E94860A8BE093E0C5
:103650000E942703D50150964D915D916D917C910B
:10366000539758968D919D910D90BC91A02D481B1C
:10367000590B6A0B7B0B2AE081EB93E00E94DF0978
:1036800086E093E00E94CF09F50180899189A289A3
:10369000B389808F918FA28FB38F01E010E012A3C6
:1036A00001A3C5010E94822460E070E0CB010E946A
:1036B000A00476CF0E94860A87E394E00E94CF0997
:1036C00083E090E0D50192969C938E939197D501DB
:1036D0001A968D919C9106C30E94860A80E294E01E
:1036E0000E9427038A8D9B8D0E942B0AF0CF05979D
:1036F00009F056CFECCFB1E0EB16FB0690F00E943C
:10370000860A8FE094E00E9427038A8D9B8D0E9499
:103710002B0AF50112A211A2828593850E943B0912
:103720003FCF8DB69EB6C70101960DB71EB7081BD9
:10373000190B0FB6F8941EBF0FBE0DBF0F5F1F4FC2
:10374000D5011A96ED91FC91A701B8018081918174
:103750000E94E1048E159F0509F064C0EA8DFB8D7F
:10376000E00FF11F10820E94D304F501608B718B72
:10377000828B938B8F89843109F4CAC0E8F48F302F
:1037800009F4C6C0813109F464C2863009F085C2EB
:10379000488D598DD12CC12CF12CE12C08EC10E076
:1037A00030E020E060E0C5010E94851F0FB6F8946C
:1037B0009EBE0FBE8DBEF4CE8932F1F0873309F480
:1037C0005DC28D3109F069C281A192A1892B01F7F7
:1037D0000E94860A89E094E00E94CF0901E010E08F
:1037E000F50112A301A3C5010E94822460E070E0EC
:1037F000CB010E94A004CCCF86859785892B39F414
:1038000080E490E00E94BE2DF50197878687EA8CC0
:10381000FB8CE00EF11E1A830983FC82EB820E15ED
:103820001F0530F00FB6F8949EBE0FBE8DBE4FCF71
:1038300040E450E0B801D5011E968D919C910E9404
:103840000036D5011E96ED91FC9117AEC3010E9482
:103850006024FC018081918100E510E08E159F05B8
:1038600070F489819A81009709F44EC02B813C81C4
:103870008217930708F048C00E94A52F8B010E9471
:10388000860A89EF93E00E942703D5011E966D9169
:103890007C916115710521F081EB93E00E94C009D4
:1038A0006AE381EB93E00E943105C8010E942B0A74
:1038B000F501828593850E943B09D5011A96ED9109
:1038C000FC911B971E968D919C911F9791878087E5
:1038D0001387028792961C921E9291970E94D3049E
:1038E000DC01CB0188589341A109B109F501848B12
:1038F000958BA68BB78B808B918BA28BB38B808F94
:10390000918FA28FB38F52CF60E070E0CB01B6CF22
:10391000888D998DD5015F969C938E935E974A8C86
:103920005B8C6801C40CD51C1D8F0C8FDF8ECE8E76
:103930000C151D0508F013C1F801E080F180CE01DF
:103940004C960E946024DC018D919C918C159D0504
:1039500008F005C18C8D9D8DFC012081213459F426
:1039600001960E94872F4EE0342E380E069744F0C1
:1039700033243A9405C0CE014C960E947324382E0D
:10398000F6E7EF16F2E7FF0609F406C138F531E66F
:10399000E31632E7F30609F4E6C044E6E41642E72C
:1039A000F40609F478C050E7E5165DE6F50609F07F
:1039B00039C18C8D9D8D8C159D0508F0D0C0FC0102
:1039C00020812134A9F501960E94872F3EE0F32E35
:1039D000F80E069794F1FF24FA942FC084E6E816B7
:1039E00087E7F80609F4A2C096E7E91697E7F90613
:1039F00009F4EAC0A1E6EA16A7E7FA0609F012C13F
:103A0000CE014C960E946024DC018D919C918C1516
:103A10009D0508F0A4C061E0832D0E94CD03CE0176
:103A20004C960E947324BC01832D0E94090497C008
:103A3000CE014C960E947324F82ECE014C960E9423
:103A400060240C8D1D8D6EEC71E0C8010E94F03574
:103A500060E0892B79F061ED71E0C8010E94F035DA
:103A6000892B39F065ED71E0C8010E94F035892B92
:103A700049F461E08F2D0E94CD03CE014C960E9447
:103A8000602497CF69ED71E0C8010E94F035892B61
:103A9000A1F762E0EFCF7A8A698A1C8A1B8A00E16B
:103AA00010E01E8B0D8B6CED71E0CE0141960E94F3
:103AB0004B18032D10E0B801CE0141960E94621A06
:103AC000F801E55BFC4F8491F801E95CFC4FF49050
:103AD0000D5D1C4FF801049160E070E0002389F057
:103AE00081110E947603E02FF0E0EE0FFF1FE75EEA
:103AF000FC4FA591B491EC91FE2261E070E009F4D5
:103B000060E0CE0141960E94621A0B891C89015027
:103B1000110929893A89D12CC12CF12CE12C50E0D2
:103B200040E064E1C5010E94851F19C0CE014C969A
:103B30000E946024DC018D919C918C159D0578F488
:103B400061E0832D0E94CD03CE014C960E94732428
:103B500061E0892B09F460E0832D0E949F03F50149
:103B6000178E168E23CE7A8A698A1C8A1B8AE0E118
:103B7000F0E0FE8BED8B6FED71E0CE0141960E947F
:103B80004B18632D70E0CE0141960E94621A832D7E
:103B90000E946604BC01B5CFE32DF0E0FA83E9830F
:103BA000BFE1B315E0F2EE0FFF1FE15AFC4F259184
:103BB00034912115310599F2E2E021363E0779F280
:103BC000C301F9010995CBCFCE014C960E94602428
:103BD0008C8D9D8D9C01201B310B421A530A9A83B8
:103BE00089835C824B825E824D82E32DF0E0FA8B0A
:103BF000E98B0FE1031508F4B2CFEE0FFF1FE1567A
:103C0000FC4F259134912115310509F4A8CF12E01C
:103C10002036310709F4A3CFB301CE014196F90153
:103C200009959DCF0E94860A8FED93E00E9427039D
:103C3000C8010E944D24D5015E964D915C91D12C16
:103C4000C12CF12CE12C02E010E030E020E060E03B
:103C500069CF8A8D9B8D800F911F1A8309839C8366
:103C60008B830817190708F0A1CDC3010E946024B7
:103C7000D5015F961C921E925E9798CD8A8D9B8D82
:103C8000892B09F493CD0E94860A80EF93E00E946D
:103C90002703C8010E944D2489CDF50112A211A26B
:103CA000828593850E943B0981CD0E94D3042B011C
:103CB0003C01F501828593850E942809D5019196E2
:103CC0002D913C9192972130310509F094C0F50176
:103CD000811132C0408E518E628E738E12A211A25B
:103CE000828593850E943B09912CD50190968C91F9
:103CF0009097815090968C93892DE8A1F9A10FB6E9
:103D0000F894FEBF0FBEEDBFA1960FB6F894DEBFCC
:103D10000FBECDBFDF91CF911F910F91FF90EF901C
:103D2000DF90CF90BF90AF909F908F907F906F90DB
:103D30005F904F903F90089580899189A289B389BF
:103D400093018201081B190B2A0B3B0BD901C801F7
:103D5000893116EF9107A105B10560F00E94860A2E
:103D600088E594E00E94CF09D50192961C921E929C
:103D70009197AECC893C9F4AA105B10598F4F50115
:103D800084899589A689B78993018201081B190B3B
:103D90002A0B3B0BD901C801893C9F4AA105B105FB
:103DA00008F4EDCBF501808D918DA28DB38D93013B
:103DB0008201081B190B2A0B3B0BD901C801813763
:103DC0009741A105B10508F4DACBD12CC12CF12C17
:103DD000E12C10E000E030E020E050E040E066E060
:103DE000C5010E94851FD50158964D925D926D9236
:103DF0007C925B97C4CB232B09F0C1CBF501408D9E
:103E0000518D628D738D93018201041B150B260B5E
:103E1000370BB901A8018823B1F04137574161053B
:103E2000710508F4ACCB0E94860A8AE494E00E94F3
:103E3000CF09D5011A968D919C910E943B09F501FD
:103E400012A211A251CF493853416105710508F4FE
:103E500096CB1A968D919C910E943B09F5010285A3
:103E60001385D8011A966D917C91C8010E94980A19
:103E7000F801848781110DC0828593858035910575
:103E800099F460E97FE1C8010E94980AD8011C9664
:103E90008C93D8011C969C90911011C0F501408E16
:103EA000518E628E738E21CF80399F4191F760E5EC
:103EB00070E0C8010E94980AF8018487EACF81E087
:103EC00090E0D5015D969C938E935C971C962D9106
:103ED0003C91F90101900020E9F731978F01021B15
:103EE000130BD12CC12CF12CE12C41E050E06DE101
:103EF000C5010E94851FF50184899589A689B78926
:103F0000808F918FA28FB38FF0CE2F923F924F92DE
:103F10005F926F927F928F929F92AF92BF92CF9259
:103F2000DF92EF92FF920F931F93CF93DF93CDB762
:103F3000DEB7C854D1090FB6F894DEBF0FBECDBFAF
:103F40004C0168AF5AAF49AF27963FAF2EAF2797C6
:103F500021961FAF0EAF21972996FFAEEEAE29979F
:103F60002396DFAECEAE2397DC011A968D919C91FD
:103F70000E942809882309F4BBC1B8ADBB2351F0C6
:103F8000B63041F0BD3131F0F40181A192A1019729
:103F900009F0AEC188AD8F508630A0F5D40154969B
:103FA0004D915D916D917C9157975096CD90DD909C
:103FB000ED90FC905397C416D506E606F70610F46C
:103FC0006A017B01B2E4CB0ED11CE11CF11C0E9402
:103FD000D304A7019601261B370B480B590BDA01B6
:103FE000C901B7FDAAC0C4010E94871A0E94D30468
:103FF000A7019601261B370B480B590BDA01C901A3
:10400000B7FFF1CFF40180819181019709F0B7C02A
:1040100082E090E0918380832281338144815581C5
:104020006681778180859185A0E0FE017A960E9465
:10403000043509F477C1FBABEAAB1DAA1CAA88E1E1
:1040400090E09FAB8EAB6CEC71E0CE01C2960E940B
:104050004B18D40112964C90129713965C901397BC
:1040600014966C90149715967C9015971696BC91A3
:10407000BBAFF401F781FCAFD40118962C901897D0
:1040800019963C90198E9201A3016BAD7F2FC1014F
:10409000A0E00E94043509F459C0FE0179962596E6
:1040A000FFAFEEAF259727E130E03EAF2DAF8AE0BE
:1040B000A82EB12CC12CD12CE12CF12C00E010E069
:1040C0009201A3016BAD7CADC1010E94A534F90141
:1040D000EC51FE4F80812596AEADBFAD25978E93F6
:1040E0002596BFAFAEAF2597EDADFEAD3197FEAFD4
:1040F000EDAF9AE0A92EB12CC12CD12CE12CF12CE2
:1041000000E010E09201A3016BAD7CADC1010E9403
:10411000A73429013A016BAF7CAF1C01A0E00E94DB
:10412000043521F04DAD5EAD452B09F66DAD7EAD8C
:104130006C0F7D1F6E5F7F4F0EC0D40190968C91E7
:10414000811160CFC4010E94871A5CCF80E3888F01
:10415000BE01685E7F4FCE01C2960E9473180CA903
:104160001DA9015011092AA93BA9D12CC12CF12C60
:10417000E12C50E040E065E1C4010E94851F29ADBB
:104180003AAD232BB9F4D4015E960D90BC91A02DCD
:10419000BAAFA9AFAB2B71F4F401848D958D019664
:1041A00009F4D5C0958F848FF401048CF58DE02D32
:1041B000FAAFE9AF27962EAD3FAD279721960EAD0A
:1041C0001FAD21970B5F1F4F232B11F405E010E06B
:1041D00029964EAD5FAD299790E080E0452B21F008
:1041E00023968EAD9FAD2397080F191F58AD5983A5
:1041F00089AD9AAD9827892798279B838A83219632
:104200008EAD9FAD21972396AEADBFAD23978A0F9C
:104210009B1F9827892798279D838C83D4011A9602
:10422000ED91FC9180819181DC01ED91FC91028006
:10423000F381E02D45E050E0BE016F5F7F4F0995AF
:104240007C0160E070E0CB010E94A004B8ADBB230C
:1042500009F444C02196EEADFFAD2197EF2BE1F0BC
:10426000D4011A96ED91FC9180819181DC01ED9150
:10427000FC910280F381E02D21964EAD5FAD219738
:1042800027966EAD7FAD27970995E80EF91E60E081
:1042900070E0CB010E94A0042396EEADFFAD239702
:1042A000EF2BE1F0D4011A96ED91FC918081918180
:1042B000DC01ED91FC910280F381E02D23964EAD5F
:1042C0005FAD239729966EAD7FAD29970995E80ECE
:1042D000F91E60E070E0CB010E94A004E016F10638
:1042E000D9F1F40112A211A2828593850E943B09A3
:1042F000C85BDF4F0FB6F894DEBF0FBECDBFDF91B6
:10430000CF911F910F91FF90EF90DF90CF90BF90D2
:10431000AF909F908F907F906F905F904F903F9065
:104320002F900895FA83E9831C821B8284E090E039
:104330009E838D8362EE71E0CE0101960E944B1840
:104340000B811C810150110929813A810ECF81E036
:1043500090E0958F848F28CF0E94D304D401549687
:104360006D937D938D939C935797C2CFCF92DF929D
:10437000EF92FF920F931F93CF93DF93CDB7DEB7EA
:10438000C658D1090FB6F894DEBF0FBECDBF8C0161
:10439000CE010196CF57DF4F99838883C158D04013
:1043A000CD57DF4F19821882C358D04080E890E083
:1043B000CB57DF4F99838883C558D04068E072E0BF
:1043C000CE018F579F4F0E944B1866E070E0CE01E0
:1043D0008F579F4F0E94621AB801CE018F579F4F8F
:1043E0000E947318CD57DF4F08811981C358D04000
:1043F00001501109CF57DF4F28813981C158D04072
:10440000D12CC12CF12CE12C50E040E064E18EE491
:1044100095E00E94851FCA57DF4F0FB6F894DEBFA4
:104420000FBECDBFDF91CF911F910F91FF90EF9005
:10443000DF90CF900895CF92DF92EF92FF920F938B
:104440001F93CF93DF93CDB7DEB7C75AD1090FB60D
:10445000F894DEBF0FBECDBF0E944B096B017C01FB
:10446000CE010196CE55DF4F99838883C25AD04042
:10447000CC55DF4F19821882C45AD04080E890E0B2
:10448000CA55DF4F99838883C65AD04068E072E0EE
:10449000CE018E559F4F0E944B1861E070E0CE0117
:1044A0008E559F4F0E94621A8E010F571F4F23E0B7
:1044B00045E0C701B6010E94A02DB801CE018E557E
:1044C0009F4F0E944B18CC55DF4F08811981C45A69
:1044D000D04001501109CE55DF4F28813981C25A91
:1044E000D040D12CC12CF12CE12C50E040E064E113
:1044F0008EE495E00E94851FC955DF4F0FB6F894F2
:10450000DEBF0FBECDBFDF91CF911F910F91FF9006
:10451000EF90DF90CF9008951F920F920FB60F92F9
:1045200011242F933F938F939F93AF93BF938091C9
:104530008C0390918D03A0918E03B0918F033091E5
:104540008B0323E0230F2D3758F50196A11DB11DD4
:1045500020938B0380938C0390938D03A0938E0301
:10456000B0938F038091900390919103A091920357
:10457000B09193030196A11DB11D80939003909378
:104580009103A0939203B0939303BF91AF919F9136
:104590008F913F912F910F900FBE0F901F90189504
:1045A00026E8230F0296A11DB11DD2CF1F920F92B4
:1045B0000FB60F9211242F933F934F935F936F93F6
:1045C0007F938F939F93AF93BF93EF93FF9381EB71
:1045D00093E00E94B802FF91EF91BF91AF919F913C
:1045E0008F917F916F915F914F913F912F910F909C
:1045F0000FBE0F901F9018951F920F920FB60F923B
:1046000011242F938F939F93EF93FF93E091C10316
:10461000F091C2038081E091C703F091C80382FD4D
:104620001BC090818091CA038F5F8F732091CB0351
:10463000821741F0E091CA03F0E0EF54FC4F958FF0
:104640008093CA03FF91EF919F918F912F910F90CB
:104650000FBE0F901F9018958081F4CF1F920F927C
:104660000FB60F9211242F933F934F935F936F9345
:104670007F938F939F93AF93BF93EF93FF9380911B
:10468000B900887F803609F44AC0F0F5883209F411
:10469000A7C018F5803109F49BC0B8F4882309F449
:1046A000F9C0883009F494C0FF91EF91BF91AF91A8
:1046B0009F918F917F916F915F914F913F912F913A
:1046C0000F900FBE0F901F901895883109F488C085
:1046D000803251F78093EA0214C0803409F49DC0FF
:1046E00040F48033B9F38833F9F68093EA0285EC1D
:1046F000B0C0803509F485C0883509F496C0883487
:1047000099F60E948B18D0CF883909F48CC038F5FF
:10471000883729F050F4883611F0803729F683E085
:104720008093EC021092C50257C0883809F47BC010
:10473000803919F0803809F0B7CF8091C5028032F6
:1047400008F071C0E091C50281E08E0F8093C50230
:104750008091BB00F0E0EB55FD4F80833DC0803B76
:1047600039F0E0F4803A09F479C0883A09F09CCF36
:1047700084E08093EC021092A4021092A302E091D4
:104780001603F091170309958091A30281110FC0C0
:1047900081E08093A3021092830209C0803C09F457
:1047A000A6CF883C09F4A3CF883B09F07DCFE091E8
:1047B000A40281E08E0F8093A402F0E0ED57FD4F3C
:1047C00080818093BB009091A4028091A30229C0B4
:1047D0008091C7028093BB0085EC8093BC0064CFBE
:1047E0009091E9028091E802981758F5E091E9026A
:1047F00081E08E0F8093E902F0E0E853FD4F808165
:10480000E9CFE091E90281E08E0F8093E902809187
:10481000BB00F0E0E853FD4F80839091E902809166
:10482000E8029817C8F285E8D8CFE091E90281E064
:104830008E0F8093E9028091BB00F0E0E853FD4FBA
:1048400080838091EB0281115CCF81E08093C6026E
:1048500084EA8093BC001092EC0226CF85EC809312
:10486000BC001092EC028091C502803230F4E091DD
:10487000C502F0E0EB55FD4F10826091C50270E07B
:10488000E0911403F091150385EA92E009951092E6
:10489000C5020ACF1092EA0234CFCF93DF93BC0156
:1048A00081EB93E00E94C009EC0164EC71E081EBC4
:1048B00093E00E94C0098C0F9D1FDF91CF91089556
:1048C000DC01ED91FC911197309761F012962D91DA
:1048D0003C911397E217F30728F401900020E9F7C1
:1048E000ED93FC930895FC0180819181009739F04C
:1048F000228133818217930710F40C94872F90E064
:1049000080E00895AF92BF92CF92DF92EF92FF9234
:104910000F931F93CF93DF93CDB7DEB7CC5CD10954
:104920000FB6F894DEBF0FBECDBF5C01CE01895734
:104930009F4FC953DF4F99838883C75CD040C753CB
:10494000DF4F19821882C95CD04080E490E0C553E3
:10495000DF4F99838883CB5CD04065EF71E0CE0157
:1049600089539F4F0E944B186AEF71E0CE01895323
:104970009F4F0E94731846E850E06DE671E0CE014B
:1049800001960E94CC2FC753DF4FC880D980C95CE5
:10499000D04081E0C81AD108C953DF4FE880F980C0
:1049A000C75CD04006E810E09E012F5F3F4F50E00B
:1049B00040E061E1C5010E94851FC453DF4F0FB67F
:1049C000F894DEBF0FBECDBFDF91CF911F910F9145
:1049D000FF90EF90DF90CF90BF90AF900895E1EB04
:1049E000F3E01382128288EE93E0A0E0B0E08483CB
:1049F0009583A683B78320E631E03183208325ECBD
:104A000030E03587248724EC30E03787268720EC98
:104A100030E0318B208B21EC30E0338B228B22EC89
:104A200030E0358B248B26EC30E0378B268B118ED3
:104A3000128E138E148EEEE4F4E0138212828483BD
:104A40009583A683B78382E791E091838083EAE52B
:104A5000F4E082EC91E091838083128213821482CD
:104A60001582E0E6F4E0918380831282138214823F
:104A70001582E6E6F4E09183808312821382148229
:104A80001582ECE6F4E09183808312821382148213
:104A90001582E2E7F4E0918380831282138214820C
:104AA0001582EEE7F4E091838083128213821482F0
:104AB0001582E8E7F4E091838083128213821482E6
:104AC0001582E4E8F4E091838083128213821482D9
:104AD0001582EAE8F4E091838083128213821482C3
:104AE0001582E3E9F5E091838083128213821482B8
:104AF0001582E4E8F5E01382128220E931E0318387
:104B0000208324E0248728EE33E036872587A7E733
:104B1000B5E013969C938E93129714961D921D9256
:104B20001D921C92179719961C921E9218971B960D
:104B30001C921E921A971C961C921C971196FC931D
:104B4000EE9340E757E160E070E04483558366836D
:104B50007783EEE4F5E011821082128213821482D0
:104B600015821682178210861186B387A287158652
:104B7000148617861686108A118A128A138A148A56
:104B8000158A168A178A108E118E128E138E158E24
:104B9000148E178E168E10A212A211A28FEF9FEF05
:104BA00090934D0580934C05E0E9F4E01382128266
:104BB00084E891E09183808387E2848380E1818728
:104BC00082E0828713860895CF93DF93CDB7DEB757
:104BD000C059D1090FB6F894DEBF0FBECDBF78948F
:104BE00084B5826084BD84B5816084BD85B58260F2
:104BF00085BD85B5816085BD80916E0081608093A3
:104C00006E0010928100809181008260809381000B
:104C1000809181008160809381008091800081601B
:104C2000809380008091B10084608093B100809176
:104C3000B00081608093B00080917A00846080939E
:104C40007A0080917A00826080937A0080917A0065
:104C5000816080937A0080917A00806880937A00E6
:104C60001092C10010921B0310921A0310921903A4
:104C7000109218030E948C058FED94E09093170317
:104C80008093160380EE94E09093150380931403B1
:104C90001092950480919A04823018F098E09093D5
:104CA00095048093980462E370E080E090E00E94B5
:104CB000A00460919B0480E994E00E94500668EE95
:104CC00073E080E090E00E94A00460E380E994E05B
:104CD0000E9483090BE416E4C8010197F1F760E331
:104CE00080E994E00E948309C8010197F1F760E32D
:104CF00080E994E00E94830983E592E00197F1F74F
:104D000060E280E994E00E9483096091950460620A
:104D100040E080E994E00E949C0984E0809396043E
:104D200040E06CE080E994E00E949C0940E061E092
:104D300080E994E00E949C090BE31FE1C801019700
:104D4000F1F782E08093970440E066E080E994E028
:104D50000E949C0940E062E080E994E00E949C0986
:104D6000C8010197F1F788E080939B0460E080E937
:104D700094E00E94500640E061E080E994E00E94E7
:104D80009C09C8010197F1F740E062E080E994E0F6
:104D90000E949C09C8010197F1F780E00E94B309C5
:104DA0006BE072E080E994E00E94C00960E08EE070
:104DB0000E94CD0361E08DE00E94CD0361E085E0BB
:104DC0000E94CD0361E084E00E94CD0360E08FE0AB
:104DD0000E94CD0380914C0590914D0597FF22C014
:104DE0000E94D304ECE9F4E050E040E026E1249F87
:104DF000D001259FB00D11248D0104561B4FD80101
:104E0000322F1D923A95E9F76083718382839383F1
:104E10004F5F5F4F76964830510549F710924D0528
:104E200010924C0580914C0590914D050897CCF55A
:104E3000ECE9F4E090E080E024813581232B09F057
:104E400068C026813781232B09F063C026E1289FA3
:104E50008001299F100D112404561B4F88EE93E00A
:104E6000A0E0B0E0F80183879487A587B6878BE13F
:104E700092E2958384831286108A178681E0838B61
:104E80000E94D304D8016D937D938D939C931397C7
:104E900080914C0590914D05019690934D0580931E
:104EA0004C050E94860A84EE92E00E94CF098EEFA4
:104EB000809371059DEE909372052AEB2093730504
:104EC00080937405809375059093760520E031E01A
:104ED000F90101900020E9F79F0121503140A0E045
:104EE000B1E0E1E0F0E0AD0140505140421753071E
:104EF000BCF4AF014F5F5F4F6D91E25BFA4F83A14E
:104F0000862783A34630510514F041E050E0FA01B2
:104F1000EACF019676968830910509F08DCFC1CF02
:104F20008091820381112AC010926A031092690352
:104F300088EE93E0A0E0B0E080936B0390936C0365
:104F4000A0936D03B0936E0386E391E090936803A2
:104F50008093670382EC91E09093760380937503CE
:104F600010927703109278031092790310927A03CB
:104F700084E080937F0381E08093820384E293E066
:104F80009093230380932203809121038111ADC06C
:104F900060E372E080E090E00E94A004DFB6F89445
:104FA0000DE213E0B1E4EB2EB3E0FB2E80911F0382
:104FB000811125C0F8018491F7019491E82FF0E068
:104FC000EE0FFF1FEE50FD4FA591B4918C919823E9
:104FD00021F461E08AE00E949F0361E08AE00E9480
:104FE000CD038CB580618CBD8CB580648CBD61E0D7
:104FF0008DE00E94CD0361E08BE00E94CD038091A3
:105000001F038F5F80931F03DFBEF8010491E02F21
:10501000F0E0EE0FFF1FE450FD4F859194919093C7
:105020001E0380931D03F701E490E0921C0361E0EE
:105030008AE00E94CD030E94510780E591E00E9422
:10504000620284E38093B00380E80E941D080E94FE
:10505000E40C882309F43FC288E00E941D080E94E6
:10506000D10C883009F037C280E10E941D080E94EF
:10507000D10C803109F02FC280E00E941D080E94EF
:10508000D10C182F811127C241E050E0BE016F5FA3
:105090007F4F8FE190E00E945C0B8981833009F0A3
:1050A0001AC280E48093200342E06EE170E0812F19
:1050B0000E94790842E06FE170E0812F0E94790838
:1050C0001F5F143089F740E06EE170E0812F0E948D
:1050D000790840E06FE170E0812F0E9479081F5F3E
:1050E000183089F781E08093210380E591E00E94E8
:1050F000620246E050E061E775E089E090E00E94DE
:105100006D0782EC91E09A8389831B821C821D8249
:105110001E8244E050E0BE016D5F7F4F8FE090E063
:105120000E946D070091220310912303D8019296EB
:105130001D921D921D921C929597F80116A217A21E
:1051400010A611A69A961D921D921D921C929D97D3
:1051500080E69AEEA0E0B0E086AB97ABA0AFB1AF2F
:1051600080EA9FE0A0E0B0E082AF93AFA4AFB5AF1C
:10517000D801189686E0FD01282F11922A95E9F7AB
:105180009801225F3F4F94E1F90111929A95E9F756
:10519000E1E7F5E001900D928A95E1F72C5C3F4F35
:1051A000C757DF4F39832883C958D040D9011C9293
:1051B0000E942F2F2FEC37E040E050E00E947D331B
:1051C000DC01CB010196A11DB11DF80184839583FB
:1051D000A683B78380839183A283B3835801F3E4CA
:1051E000AF0EB11CC5010E942C0C64E470E0C50137
:1051F0000E94950F882309F4DFC10E94D3042B017C
:105200003C0158EEC52E53E0D52EE12CF12C62E086
:10521000262E912C812CC757DF4FA881B981C95800
:10522000D0408C918330E1F18111D6C1F8018481A5
:105230009581A681B7810196A11DB11D84839583B7
:10524000A683B7830E94D304641975098609970958
:10525000A70196010E94E633A90161E0C8010E94FE
:105260003D1781E0C757DF4FA881B981C958D040A9
:105270008C93F1E08F16910471F20E94D3046419AB
:10528000750986099709D801D6962D913D914D91C2
:105290005C91D997261737074807590708F0B9CF07
:1052A000C5010E942C0CF80184819581A681B781EB
:1052B0000196A11DB11D84839583A683B7830E94A7
:1052C000D304F801FE9660837183828393838A946A
:1052D000892809F071C180E591E00E946202009185
:1052E000220310912303B801625F7F4F9E012F5F5D
:1052F0003F4F5901C9010E943A1344E050E0BE01FA
:105300006D5F7F4F8FE090E00E946D07B8016A5E8D
:105310007F4FC5010E943A1344E050E0BE016D5F2B
:105320007F4F81E090E00E946D07B8016E5E7F4F75
:10533000C5010E943A1344E050E0BE016D5F7F4F0B
:1053400085E090E00E946D07B801625E7F4FC50165
:105350000E943A138B819C81AD81BE8180937A0437
:1053600090937B04A0937C04B0937D040E947B0403
:105370007F73809120019091210168277927709394
:1053800021016093200168EE73E080E090E00E94CC
:10539000A00482EC91E09A8389831B821C821D8287
:1053A0001E8280E591E00E94620244E050E0BE016E
:1053B0006D5F7F4F8FE090E00E945C0B0E94860A39
:1053C00083ED92E00E9427036B8181EB93E00E94C2
:1053D000410A6EE281EB93E00E9431056C8181EB22
:1053E00093E00E94410A6EE281EB93E00E94310556
:1053F0006D8181EB93E00E94410A6EE281EB93E0C4
:105400000E9431056E8181EB93E00E94410A64ECB9
:1054100071E081EB93E00E94C00980E091E09093FD
:105420005B0580935A050E94D304DC01CB018858A8
:105430009341A109B1098093620590936305A093FC
:105440006405B093650580935E0590935F05A09316
:105450006005B09361058093660590936705A093FE
:105460006805B09369050E94860A83E192E00E9474
:10547000CF09E0915805F09159058FE092E09187AE
:10548000808780E590E0938782878091580590918E
:1054900059050E943B091092700510926F050E94F9
:1054A000D3046B017C0180916F0590917005019789
:1054B00009F471C10E94D3046C197D098E099F09FA
:1054C000603576448105910508F065C18EE495E06C
:1054D0000E94871AE8CF87E38093B00380E80E9498
:1054E0001D080E94E40C882329F188E00E941D0811
:1054F0000E94D10C8830F1F480E10E941D080E94C6
:10550000D10C182F8031B1F480E00E941D080E9458
:10551000D10C81110FC041E050E0BE016F5F7F4FA1
:1055200089E390E00E945C0B8981843019F4109328
:105530002003D8CD83E38093B00380E80E941D0848
:105540000E94E40C8823B1F180E10E941D080E94B2
:10555000D10C803179F582E10E941D080E94D10CA6
:10556000823141F580E00E941D080E94D10C81111A
:1055700021C084E08093200315E5C857DF4F1883CE
:10558000C858D04041E050E0BE0168577F4F8BE1E2
:1055900090E00E946D07C957DF4F1883C758D0406D
:1055A00041E050E0BE0169577F4F8AE190E00E94E0
:1055B0006D0798CD1092B0030E94860A87ED92E0A5
:1055C0000E94CF0960E177E280E090E00E94A004B1
:1055D000F0E0E0E00995FFCF843019F5F80184810F
:1055E0009581A681B7810196A11DB11D8483958304
:1055F000A683B7830E94D3046419750986099709A5
:10560000A70196010E94E633A90163E0C8010E9448
:105610003D17C757DF4FA881B981C958D0402C9298
:1056200028CE813079F5F80142AD53AD64AD75AD4A
:105630009E012F5F3F4FC8010E94C318382EF2E031
:105640008F139EC089819A81AB81BC81F8018483CC
:105650009583A683B7830E94D304641975098609CC
:105660009709A70196010E94E633A90163E0C801EA
:105670000E943D17C757DF4FA881B981C958D04054
:105680003C92F7CD823009F0F4CDF80142AD53AD34
:1056900064AD75AD9E012F5F3F4FC8010E94C318D6
:1056A000382EF5E08F1361C0E3E0C757DF4FA881C4
:1056B000B981C958D040EC93F80182A193A1A4A16B
:1056C000B5A1892B8A2B8B2B41F424E833E040E0F1
:1056D00050E022A333A344A355A3F80186A197A1C8
:1056E000A0A5B1A5892B8A2B8B2B61F482A193A154
:1056F000A4A1B5A1B695A7959795879586A397A3DD
:10570000A0A7B1A7F80182A593A5A4A5B5A5892B4B
:105710008A2B8B2BA9F482A193A1A4A1B5A1AC01E2
:10572000BD0133E076956795579547953A95D1F742
:10573000841B950BA60BB70B82A793A7A4A7B5A7AD
:10574000F80186A197A1A0A5B1A586A797A7A0ABB0
:10575000B1AB82A593A5A4A5B5A582AB93ABA4AB31
:10576000B5AB88248394912C84CDF6E08F1308C0C8
:10577000C757DF4FA881B981C958D0401C9279CD55
:10578000BFEF3B1276CDC757DF4FE881F981C9588B
:10579000D04010826ECD80916F0590917005019779
:1057A00009F073CE22242394312C8EE495E00E94DC
:1057B000871A0E94D304C357DF4F688379838A8393
:1057C0009B83CD58D0408CE9E82E84E0F82E8701E9
:1057D000D80155961C921E92549714968D919C91C7
:1057E0001597892B31F416968D919C91892B09F48C
:1057F00051C0D8012D913D914D915C911397C757A0
:10580000DF4F288339834A835B83C958D040C3570D
:10581000DF4F688179818A819B81CD58D040621B9E
:10582000730B840B950B1B964D905D906D907C9047
:105830001E97641575058605970560F1411451049E
:105840006104710409F44AC1A30192010E94E63384
:10585000C301B2010E948E34C757DF4F28813981BE
:105860004A815B81C958D040620F731F841F951F06
:10587000D8016D937D938D939C931397F801838941
:10588000882341F0278530892115310509F034C17D
:10589000358A248A0A5E1F4F2CE435E02017310731
:1058A00009F096CF10E000E0D70154968D919C91BD
:1058B0005597892BE9F11A968C911A97882309F448
:1058C00032C11696ED91FC91179718968D919C9187
:1058D0000995F70184899589029751F580914C05C6
:1058E00090914D05892B21F184819581892B21F49B
:1058F00086819781892BE1F026E1209FF001219F8D
:10590000F00D1124E456FB4FDF011D922A95E9F7B3
:105910000E94D304F7016083718382839383809113
:105920004C0590914D05019790934D0580934C0542
:105930000F5F1F4FF6E1EF0EF11C0830110509F063
:10594000B3CF8EE00E946604DC0121E03FEF4FEF11
:105950005FEF0E949C332FEF33E040E050E00E9465
:105960007D33CA01B90161507F4F8F4F9F4F8DE04A
:105970000E94090464E670E080E090E00E94A004C8
:105980000E944B09850122E044E00E94A02D7C0189
:10599000009709F4CDC0FC0101900020E9F7319790
:1059A0008F01081B190BB8016F5F7F4F90E080E0FB
:1059B0000E9416354C01009709F4BFC0DC011C920F
:1059C000B7010E94F93583E00E94B309A801B40130
:1059D00080E994E00E9438050E944B0920E030E005
:1059E0004CE052E40E94893418160CF05EC080919D
:1059F0008A03882309F459C010928A03CF57DF4FD6
:105A0000B982A882C158D040CD57DF4F1982188281
:105A1000C358D040E0E8F0E0CB57DF4FF983E8838C
:105A2000C558D04068E072E0CE018F579F4F0E946A
:105A30004B1862E070E0CE018F579F4F0E94621AB0
:105A400070E060E0CE018F579F4F0E94621ACD57E1
:105A5000DF4F08811981C358D04001501109CF5739
:105A6000DF4F28813981C158D040D12CC12CF12C75
:105A7000E12C50E040E064E18EE495E00E94851F57
:105A80008BE192E00E94B62181E492E00E94B6216F
:105A900088E00E94B30969E572E080E994E00E9421
:105AA000C00960E085E00E949F0368EE73E080E03B
:105AB00090E00E94A0048114910419F0C4010E9496
:105AC0005A2E20E030E0232B09F46FCE0E946203AF
:105AD000882309F46ACE0E94000067CEC357DF4FC7
