:020000040000FA
:100000000C94EA000C9412010C9412010C9412014D
:100010000C9412010C9412010C9412010C94120114
:100020000C9412010C9412010C9412010C94120104
:100030000C9412010C9412010C9412010C941201F4
:100040000C947D1B0C9412010C9412010C9412015F
:100050000C9412010C9412010C9412010C941201D4
:100060000C9412010C941201626C6E6B696E660046
:100070006D637500302E302E300066772D747970E8
:100080006500544D504C336649374A6366787900B1
:100090006275696C64005365702020322032303202
:1000A000342032313A34323A353800626C796E6B32
:1000B00000312E332E3200682D62656174003435B4
:1000C00000627566662D696E0032353600646576AD
:1000D0000041726475696E6F20556E6F00637075B4
:1000E0000041546D6567613332385000636F6E00B4
:1000F0005735313030000000000000002400270098
:100100002A0000000000250028002B00000000004D
:100110002300260029000404040404040404020249
:100120000202020203030303030301020408102076
:100130004080010204081020010204081020000081
:100140000008000201000003040700000000000096
:100150000000150115011501150115011501150105
:1001600015011501150115011501150115011501DF
:1001700015011501150115011501150115011501CF
:1001800015011501150115011501150115011501BF
:100190001501B7051401140114011401140114010F
:1001A00014011401140114011401140114011401A7
:1001B0001401140114011401140114011401140197
:1001C0001401140114011401140114011401140187
:1001D00014017B1C11241FBECFEFD8E0DEBFCDBFC2
:1001E00011E0A0E0B1E0E6E6FAE402C005900D926D
:1001F000A23EB107D9F722E0A2EEB1E001C01D9204
:10020000AB3FB207E1F710E0CAEED0E004C021979F
:10021000FE010E94EF24C93ED107C9F70E94231DA9
:100220000C9431250C940000089508958CBD9DBD5B
:10023000089520E3FC0120833296862F82958F70EB
:100240006F706A3030F4605D6293682F8111F5CF72
:100250000895695CF9CFFC01818D928D08958330FA
:1002600081F028F4813099F08230A9F00895873028
:10027000A9F08830C9F08430B1F4809180008F7D7E
:1002800003C0809180008F7780938000089584B5AB
:100290008F7784BD089584B58F7DFBCF8091B000AA
:1002A0008F778093B00008958091B0008F7DF9CF53
:1002B0001F93CF93DF93282F30E0F901E25CFE4FCC
:1002C0008491F901E65DFE4FD491F901EA5EFE4F9B
:1002D000C491CC23A9F0162F81110E942F01EC2F7D
:1002E000F0E0EE0FFF1FEE5FFE4FA591B4918FB7C8
:1002F000F894EC91111108C0D095DE23DC938FBFE8
:10030000DF91CF911F910895DE2BF8CFCF93DF932C
:1003100090E0FC01E65DFE4F24918A5E9E4FFC0159
:1003200084918823C9F090E0880F991FFC01E85060
:10033000FF4FA591B491FC01EE5FFE4FC591D491A2
:1003400061110DC09FB7F8948C91209582238C93F6
:100350008881282328839FBFDF91CF910895623041
:1003600051F49FB7F8943C91822F809583238C930E
:10037000E8812E2BEFCF8FB7F894EC912E2B2C9396
:100380008FBFEACF1F93CF93DF93182FEB0161E06C
:100390000E948601209739F460E0812FDF91CF9190
:1003A0001F910C945801CF3FD10511F461E0F5CFB6
:1003B000E12FF0E0E25CFE4FE491E33031F140F4F4
:1003C000E130B1F0E230E1F0C038D1057CF7E4CFA4
:1003D000E73029F1E83059F1E430B1F7809180003D
:1003E000806280938000D0938B00C0938A0004C009
:1003F00084B5806884BDC7BDDF91CF911F910895FA
:1004000084B5806284BDC8BDF7CF809180008068CC
:1004100080938000D0938900C0938800EDCF8091B5
:10042000B00080688093B000C093B300E5CF8091A6
:10043000B00080628093B000C093B400DDCF8E30F6
:1004400008F08E508770806480937C0080917A00E1
:10045000806480937A0080917A0086FDFCCF809141
:1004600078009091790008953FB7F89480915502F3
:1004700090915602A0915702B091580226B5A89BC0
:1004800005C02F3F19F00196A11DB11D3FBFBA2F26
:10049000A92F982F8827BC01CD01620F711D811DE6
:1004A000911D42E0660F771F881F991F4A95D1F76B
:1004B00008958F929F92AF92BF92CF92DF92EF9268
:1004C000FF926B017C010E9434024B015C01C1145C
:1004D000D104E104F104B9F00E94340268197909E9
:1004E0008A099B09683E73408105910580F321E0EC
:1004F000C21AD108E108F10888EE880E83E0981E40
:10050000A11CB11CE4CFFF90EF90DF90CF90BF9083
:10051000AF909F908F9008952FB7F89460915102FB
:100520007091520280915302909154022FBF08950E
:100530004F925F926F927F92AF92BF92CF92DF9273
:10054000EF92FF920F931F93CF93DF93EC016B0118
:100550007B01E40EF51E8B015801AC18BD080E1589
:100560001F0511F10E948C02688779878A879B8713
:10057000E881F9810284F385E02DCE01099597FF8A
:1005800023C00E948C02488459846A847B84641945
:100590007509860997094C805D806E807F8064159F
:1005A00075058605970520F3C501DF91CF911F9151
:1005B0000F91FF90EF90DF90CF90BF90AF907F9022
:1005C0006F905F904F900895F80181938F01C4CF91
:1005D000FC0120812EBD9B012150310941F0518148
:1005E0000DB407FEFDCF4EB55EBD4193F5CF615012
:1005F0007109860F971F0DB407FEFDCF2EB5FC01C4
:1006000020830895E091E301F091E40180819091CD
:10061000E201892B80830895E091E301F091E401E8
:1006200090818091E20180958923808308958EBD19
:1006300000000DB407FEFDCF8EB50895AF92BF92B6
:10064000CF92DF92EF92FF920F931F93CF93DF939E
:10065000CDB7DEB728970FB6F894DEBF0FBECDBF7B
:100660008C017B016A01809175028333E1F45801AA
:10067000A40EB51EA016B10609F46FC00E940C03AB
:1006800080EF0E941703812F0E941703802F0E9482
:1006900017030F5F1F4FF70181917F010E9417031E
:1006A0000E940203E7CF5B01A40EB51E8433C1F4A0
:1006B0000E940C0319830A838D2D80688B83CC8262
:1006C00064E070E0CE0101960E94E802AE14BF041F
:1006D00009F441C0F70181917F010E941703F6CF11
:1006E0000E940C030F3F110509F028F419820A83B8
:1006F00084E08B830CC017FD17C019820A8333E096
:10070000169507953A95E1F7007E0C600B8386E01D
:10071000C816D104A0F5F701DE011496EA15FB0511
:1007200099F081918D93FACFC80126E0969587952F
:100730002A95E1F7807E19830A830115104C10F485
:100740008461D7CF8C61D5CFB6016D5F7F4FCE016D
:1007500001960E94E8020E940203C60128960FB685
:10076000F894DEBF0FBECDBFDF91CF911F910F91E7
:10077000FF90EF90DF90CF90BF90AF90089563E02F
:1007800070E0CE0101960E94E802F70181917F019D
:100790000E941703AE14BF04C1F7DDCFCF93DF93E0
:1007A0001F92CDB7DEB7898341E050E0BE016F5F95
:1007B0007F4F90E080E00E941E030F90DF91CF9169
:1007C000089590E020917502233339F40C96982F08
:1007D000990F990F990F80E008954896F8CFDA01A4
:1007E000E091E601F0E0FE2FEE27E60FF71F90E024
:1007F000982F8827A901BD018E0F9F1F0C941E03FF
:10080000CF93DF9300D0CDB7DEB779836A8322E040
:1008100030E0AE014F5F5F4F60E170E00E94EF0398
:100820000F900F90DF91CF910895CF93DF9300D079
:10083000CDB7DEB779836A8322E030E0AE014F5F47
:100840005F4F64E070E00E94EF030F900F90DF9124
:10085000CF910895CF93DF931F92CDB7DEB720914C
:10086000E60130E0322F2227260F371F90E0982F25
:100870008827498341E050E0BE016F5F7F4F820FC0
:10088000931F0E941E030F90DF91CF910895CF9385
:10089000DF931F92CDB7DEB76983DC01ED91FC9148
:1008A0000280F381E02D41E050E0BE016F5F7F4F99
:1008B00009950F90DF91CF910895FC019485FB017C
:1008C0008485981303C081E0943008F080E0089597
:1008D000CF93DF931F92CDB7DEB76983DC01ED9133
:1008E000FC910280F381E02D41E050E0BE016F5F9A
:1008F0007F4F09950F90DF91CF9108950895FF9252
:100900000F931F93CF93DF93EB01FC01178A168A95
:100910002A81211109C02B81211106C02C812111AE
:1009200003C02D81222301F141155105E9F08A010F
:10093000FC01F08C80E591E00E941601AE014E5F53
:100940005F4F24E030E06CE070E08F2D0E94EF03F9
:10095000B8018F2D0E94000481E090E0DF91CF91DB
:100960001F910F91FF90089580E0F7CFFC018485DF
:1009700095850895FC0184899589089522E731E0E1
:10098000FC0131832083FB0140895189628973898D
:10099000FC0142835383648375830895DC01ED91E8
:1009A000FC91048CF58DE02D099490E080E0089591
:1009B000EF92FF920F931F93CF93DF9300D000D05D
:1009C00000D0CDB7DEB7DC01AB0118966D917C91FC
:1009D00019978D919C911197FC01208131816115AE
:1009E0007105B9F0D9015096ED91FC91099521E07E
:1009F000019709F020E0822F26960FB6F894DEBF0B
:100A00000FBECDBFDF91CF911F910F91FF90EF905F
:100A10000895F901E684F78422E731E03A832983D7
:100A200014960D911D912D913C9117970B831C836A
:100A30002D833E83BE016F5F7F4FF701D7CFFC014F
:100A40009485992369F080819181DC01ED91FC917D
:100A50000688F789E02D099591E0811101C090E0A9
:100A6000892F0895DC011C961C921C978D919C91F6
:100A7000009739F0DC01ED91FC910488F589E02DB7
:100A800009940895FC01768765870895DC01ED914E
:100A9000FC9102A0F3A1E02D099591E0892708952A
:100AA000862F089581E08627089521E0FC01848542
:100AB000843008F020E0822F089508958F929F924D
:100AC000AF92BF92EF92FF920F931F93CF93DF935A
:100AD000CDB7DEB7A1970FB6F894DEBF0FBECDBF7E
:100AE0007C01FA01CB0119A2223008F42AE08E0120
:100AF0000F5D1F4F822E912CB12CA12CBF01A5019F
:100B000094010E944C24F901CA016A3074F5605DB9
:100B1000D8016E938D01232B242B252B79F790E0A0
:100B200080E0109789F0FD0101900020E9F73197EE
:100B3000AF014A1B5B0BD701ED91FC910280F38161
:100B4000E02DB801C7010995A1960FB6F894DEBF54
:100B50000FBECDBFDF91CF911F910F91FF90EF900E
:100B6000BF90AF909F908F900895695CD1CFFB01AB
:100B7000808191810E947A2361E0892B09F460E0F1
:100B800083E00C945801AF92BF92CF92DF92EF9224
:100B9000FF920F931F93CF93DF9300D000D0CDB778
:100BA000DEB78C016B017A01809175028333E9F421
:100BB0005B016801C40ED51EC016D106A9F10E94C2
:100BC0000C038FE00E941703812F0E941703802FD0
:100BD0000E9417030F5F1F4F80E00E941703F5016B
:100BE00081935F010E940203E7CF843369F50E947D
:100BF0000C0319830A838F2D8F778B83EC8264E03B
:100C000070E0CE0101960E94E802A70170E060E06A
:100C1000C6010E940B25E114F10421F0B701C601C1
:100C20000E94E8020E940203C7010F900F900F90EC
:100C30000F90DF91CF911F910F91FF90EF90DF9078
:100C4000CF90BF90AF9008950E940C030F3F110505
:100C500009F030F419820A831B8263E070E0D1CF7F
:100C600017FD0BC019820A8333E0169507953A9554
:100C7000E1F7007E08600B83F0CFC80126E096956F
:100C800087952A95E1F7807E19830A830115104C18
:100C900018F480618B83E1CF8861FCCFCF93DF9321
:100CA0001F92CDB7DEB72091E60130E0322F222728
:100CB000260F371F90E0982F882741E050E0BE01B3
:100CC0006F5F7F4F820F931F0E94C30589810F9032
:100CD000DF91CF910895CF93C82F462F61E070E048
:100CE0000E942A0461E070E08C2F0E944E06811160
:100CF000F9CFCF910895CF93C82F80E591E00E945E
:100D0000160168E070E08C2FCF910C946B06CF93A6
:100D1000C82F80E591E00E94160160E170E08C2F01
:100D2000CF910C946B06CF93DF93EC01888D8430C8
:100D300020F40E94870684E0888FDF91CF91089588
:100D4000CF93C82F80E591E00E94160163E070E028
:100D50008C2FCF910C944E06CF93DF93EC018C85B2
:100D60008430D0F40E94A006843189F0882379F081
:100D7000883169F021E08C3159F4E881F9810084EF
:100D8000F185E02DCE01099521E0892B09F420E0C1
:100D9000822FDF91CF91089580E0FBCFCF92DF9239
:100DA000EF92FF92CF93DF93EC018C85843068F44F
:100DB0000E947B060E948C026B017C018C850E9444
:100DC000A006811109C084E08C87DF91CF91FF904C
:100DD000EF90DF90CF90089561E070E080E090E0C8
:100DE0000E9459020E948C02AB01BC014C195D09A2
:100DF0006E097F098D859E85B0E0A0E048175907F0
:100E00006A077B07D8F28C850E948706DCCFCF93D8
:100E1000FC01C08D80E591E00E94160160E270E067
:100E20008C2F0E946B0662E070E08C2F0E944E06B1
:100E300084FD16C062E070E08C2F0E944E0683FF96
:100E40000AC048E162E070E08C2F0E942A0480E032
:100E500090E0CF91089580E591E00E941601E3CFE4
:100E600040E162E070E08C2F0E942A0481E0F0CF24
:100E7000CF93DF931F92CDB7DEB741E050E0BE01C4
:100E80006F5F7F4F90E080E00E94C30589810F90E3
:100E9000DF91CF910895CF93DF93C4E1D0E00E941A
:100EA0003807882361F061E070E080E090E00E9404
:100EB00059022197A1F780E0DF91CF91089581E059
:100EC000FBCF1F93CF93DF931F92CDB7DEB7182FC1
:100ED00080E591E00E941601812F0E94E10327E046
:100EE000129FF0011124E75AFD4F228133813770A0
:100EF00041E050E0BE016F5F7F4F820F931F0E9461
:100F0000C30589810F90DF91CF911F910895FC0156
:100F1000808D843040F4218D328D232B21F00E946E
:100F2000610790E008958FEF9FEF0895CF93DF93CF
:100F3000FC012485243028F08FEF9FEFDF91CF91C3
:100F40000895EC010190F081E02D0084F185E02D01
:100F50000995892B89F38C850E94610790E0EECF7B
:100F6000DA01E091E601F0E0FE2FEE27E60FF71F31
:100F700090E0982F8827A901BD018E0F9F1F0C9428
:100F8000C3058F929F92AF92BF92CF92DF92EF9262
:100F9000FF921F93CF93DF93CDB7DEB72C970FB699
:100FA000F894DEBF0FBECDBF2091750214E022235E
:100FB00039F16B017C0180E591E00E9416015E0130
:100FC00027E0A20EB11C450110E063E070E0812F24
:100FD0000E944E06F40181934F01882349F11F5F5F
:100FE000143099F710E0F50181915F018D31D9F04E
:100FF0008831C9F08A518230B0F01F5F143099F700
:10100000812F2C960FB6F894DEBF0FBECDBFDF91B7
:10101000CF911F91FF90EF90DF90CF90BF90AF9056
:101020009F908F90089560E170E0812F0E946B0681
:10103000A12EB12C83EE93E00197F1F742E870E026
:1010400060E0812F0E942A044FEF62E070E0812F60
:101050000E942A04B601C114D10491F480910001C8
:101060009091010101968115F0EC9F0708F45CC096
:101070009093010180930001609100017091010142
:10108000812F0E94150486E0ECE0F1E0DE0111966C
:1010900001900D928A95E1F7F70183818F778C8318
:1010A00084818D8385818E83A7014E5F5F4F24E00D
:1010B00030E06CE070E0812F0E94EF03B601812FD9
:1010C0000E94000426E030E0AE014F5F5F4F66E013
:1010D00070E0812F0E94EF0361E070E0812F0E9499
:1010E0006B0627E02A9DC0012B9D900D11249C01C9
:1010F000275A3D4F7901F9011182108222E030E038
:10110000AE01455F5F4F68E270E0812F0E94B0073B
:101110008B859C85982789279827F701938382835D
:101120001682158214826CCF80E090ECA1CFCF9212
:10113000DF92EF92FF920F931F93CF93DF9300D034
:1011400000D000D0CDB7DEB78C016B017A01FC0175
:10115000808D843010F40E94870682E791E09A83A4
:101160008983F60182819381A481B5818B839C83DD
:10117000AD83BE83B701CE0101960E94C107F8017D
:10118000808F8430A0F4F586E486128E118E81E083
:1011900026960FB6F894DEBF0FBECDBFDF91CF917C
:1011A0001F910F91FF90EF90DF90CF90089580E016
:1011B000EFCFAF92BF92CF92DF92EF92FF920F9359
:1011C0001F93CF93DF9300D000D000D0CDB7DEB710
:1011D000082F6B0180E591E00E9416019E012F5FB0
:1011E0003F4F7901590110E063E070E0812F0E94C8
:1011F0004E06F50181935F01882341F11F5F143092
:1012000099F710E0F70181917F018D31D1F088319C
:10121000C1F08A518230A8F01F5F143099F7812FF6
:1012200026960FB6F894DEBF0FBECDBFDF91CF91EB
:101230001F910F91FF90EF90DF90CF90BF90AF90F4
:10124000089560E170E0812F0E946B06E12EF12C81
:1012500083EE93E00197F1F7402F70E060E0812F7B
:101260000E942A044FEF62E070E0812F0E942A045E
:10127000B601CD2889F48091000190910101019679
:101280008115F0EC9F0798F1909301018093000184
:101290006091000170910101812F0E94150461E0AD
:1012A00070E0812F0E946B0627E02E9DC0012F9DCC
:1012B000900D11249C01275A3D4F7901F9011182AB
:1012C000108222E030E0AE014B5F5F4F68E270E0D9
:1012D000812F0E94B0078D819E81982789279827AA
:1012E000F7019383828316821582148298CF80E05F
:1012F00090ECCACFCF92DF92EF92FF921F93CF93E1
:10130000DF93EC017B016A018C85843048F40E94F4
:10131000A006882319F08C850E947B0684E08C87C8
:10132000F70182819381A481B5810097A105B10560
:1013300051F490E080E0DF91CF911F91FF90EF900A
:10134000DF90CF9008958F3F9F4FAF4FBF4F89F3EE
:1013500080917502811103C084E08C87EACF70E030
:1013600060E081E20E94D908182F8C87843008F74A
:1013700080E591E00E941601A7014E5F5F4F24E0D7
:1013800030E06CE070E0812F0E94EF03B601812F06
:101390000E94000464E070E0812F0E946B060E94AE
:1013A0008C026B017C018C850E94A006873109F1BB
:1013B0008C31F9F0882309F4BCCF0E948C02AB0178
:1013C000BC014C195D096E097F098D859E85B0E0D1
:1013D000A0E084179507A607B70738F061E070E032
:1013E00080E090E00E945902DECF8C850E94870643
:1013F000B3CF81E090E09FCF0F931F93CF93DF9304
:10140000EC018B01888D843010F40E948706809156
:101410007502811107C094E0988FDF91CF911F91E1
:101420000F910895B80182E00E94D908888F843016
:1014300030F41D870C871A8E198E81E0EECF80E084
:10144000ECCF7F928F929F92AF92BF92CF92DF921A
:10145000EF92FF920F931F93CF93DF9300D0CDB7FE
:10146000DEB7782E8B014A01590122E030E0AE014F
:101470004F5F5F4F64E270E00E94B007E980FA803E
:10148000FE24EF24FE24E00EF11E970137704091F8
:101490007502072D10E0433309F042C0085F1F4F6B
:1014A000102F0027110F110F110FC901800F911F6D
:1014B0004733C9F1A9014A0D5B1D4130584098F1ED
:1014C00060E078E06B01C21AD30AA601B4010E9461
:1014D0001E03A5014C195D09B4016C0D7D1DC801E9
:1014E0000E941E03EA0CFB1CF982EA8222E030E033
:1014F000AE014F5F5F4F64E270E0872D0E94EF0303
:101500000F900F90DF91CF911F910F91FF90EF906F
:10151000DF90CF90BF90AF909F908F907F90089575
:10152000005F1F4FBDCFA501B401DACFEF92FF924C
:101530001F93CF93DF9300D0CDB7DEB7182F22E0F3
:1015400030E0AE014F5F5F4F60E270E00E94B00795
:10155000E980FA80FE24EF24FE2422E030E0AE0190
:101560004F5F5F4F60E270E0812F0E94B00789817A
:101570009A81982789279827E816F90689F487E041
:10158000189FF0011124E75AFD4FF582E482C7014C
:101590000F900F90DF91CF911F91FF90EF900895E2
:1015A0007C01DBCF1F93CF93DF93182F80E591E071
:1015B0000E941601812F0E94960AEC0163E070E000
:1015C000812F0E944E06873121F08C3111F0D0E03E
:1015D000C0E0CE01DF91CF911F910895CF93DF93AB
:1015E000EC018C85843060F40E94A006873111F0F4
:1015F0008C3131F48C850E94D20A8115984088F391
:10160000DF91CF910895FC018485843010F40C940F
:10161000D20A90E080E008959F92AF92BF92CF925D
:10162000DF92EF92FF920F931F93CF93DF938C0182
:101630005B01942EE52EFC01C688D788F08C80E5EE
:1016400091E00E9416018F2D0E94960AC92DDE2D71
:101650008C179D0708F4EC019E01A501B6018F2DA2
:101660000E94210AF801868997898C0F9D1F978B0C
:10167000868BCE01DF91CF911F910F91FF90EF905C
:10168000DF90CF90BF90AF909F9008958F929F92E0
:10169000AF92BF92CF92DF92EF92FF920F931F9380
:1016A000CF936C015B018A01FC01C485C430F0F565
:1016B0007A014130584018F0E12C88E0F82E80E59E
:1016C00091E00E9416018C2F0E94960A4C0163E063
:1016D00070E08C2F0E944E06873111F08C3149F555
:1016E0008E149F0460F380E591E00E94160197013B
:1016F000A50170E060E08C2F0E94210A60E270E09A
:101700008C2F0E946B0662E070E08C2F0E944E06C8
:1017100084FD17C063E070E08C2F0E944E0681119B
:101720000BC081E090E0F6019383828310E000E03B
:1017300010C0F12CE12CD7CF80E591E00E9416017A
:10174000E2CF40E162E070E08C2F0E942A04EF2893
:1017500041F3C801CF911F910F91FF90EF90DF905F
:10176000CF90BF90AF909F908F900895FF920F936E
:101770001F93CF93DF9300D0CDB7DEB7F82E22E0D2
:1017800030E0AE014F5F5F4F66E270E00E94B0074D
:1017900009811A8110270127102722E030E0AE01CD
:1017A0004F5F5F4F66E270E08F2D0E94B007898126
:1017B0009A819827892798270817190749F4C8019B
:1017C0000F900F90DF91CF911F910F91FF9008958F
:1017D0008C01E3CF1F93CF93DF93182F87E0189FDF
:1017E000E0011124C75ADD4F88819981009761F487
:1017F00080E591E00E941601812F0E94B60B2E8198
:10180000821B910999838883DF91CF911F9108955D
:10181000FC018485843010F40C94EA0B90E080E0A5
:1018200008954F925F927F928F929F92AF92BF9254
:10183000CF92DF92EF92FF920F931F93CF93DF939C
:1018400000D0CDB7DEB7782E6B014A01A82EB12C9F
:1018500027E0829FC0011124FC01E75AFD4F7F0160
:101860000081118180E591E00E941601081519059B
:1018700054F4872D0E94B60BF70126818C01021BC0
:101880001109118300830115110529F563E070E04A
:10189000872D0E944E06843159F0882349F001E0DB
:1018A00010E08C3111F410E000E011950195110960
:1018B000C8010F900F90DF91CF911F910F91FF9072
:1018C000EF90DF90CF90BF90AF909F908F907F90E0
:1018D0005F904F900895801691060CF4840187E084
:1018E0008A9DF0018B9DF00D1124E75AFD4FE28097
:1018F000F380C114D10451F12701F7E05F22872D55
:101900000E94E103840D951D20917502273309F48F
:1019100053C09801240D351D2130384008F44CC0C7
:1019200020E038E0490184189508A401B6010E941E
:10193000C3052601480C591C6801C818D908872D11
:101940000E94E103A601B2010E94C305E00EF11E50
:1019500087E08A9DF0018B9DF00D1124E75AFD4F21
:10196000F382E28220813181201B310B318320837D
:101970008681800F912F911D8A3F910510F4232BB2
:10198000F1F487E08A9DF0018B9DF00D1124E75A58
:10199000FD4F1682F982EA8222E030E0AE014F5F0D
:1019A0005F4F68E270E0872D0E94EF0360E470E013
:1019B000872D0E946B067CCFA801B601C5CF868318
:1019C00077CFCF93DF93FC01218D328D2115310527
:1019D00029F48FEF9FEFDF91CF910895EC01808D77
:1019E0004217530708F0A9010E94110C1816190696
:1019F00084F7298D3A8D281B390B3A8F298FEBCF2D
:101A00000F931F93CF93DF931F92CDB7DEB7FC01E7
:101A1000218D328D232B41F48FEF9FEF0F90DF91BB
:101A2000CF911F910F9108958C0141E050E0BE01CC
:101A30006F5F7F4FFC01808D0E94110C18161906F4
:101A40005CF7F801818D928D0197928F818F89814A
:101A500090E0E4CFCF93DF931F92CDB7DEB741E0A4
:101A600050E0BE016F5F7F4FFC0184850E94110C26
:101A70001816190634F4898190E00F90DF91CF9108
:101A800008958FEF9FEFF9CFFC018485843010F427
:101A90000C94110C90E080E008950F931F93CF9366
:101AA000DF9300D0CDB7DEB7FC0124852430E0F40D
:101AB0008C0180E591E00E94160122E030E0AE0149
:101AC0004F5F5F4F60E170E0F80184850E94B007CE
:101AD00089819A819827892798270F900F90DF9105
:101AE000CF911F910F91089590E080E0F6CF0F9372
:101AF0001F93CF93DF9300D0CDB7DEB7FC012485D1
:101B00002430E0F48C0180E591E00E94160122E08F
:101B100030E0AE014F5F5F4F64E070E0F801848514
:101B20000E94B00789819A819827892798270F906A
:101B30000F90DF91CF911F910F91089590E080E079
:101B4000F6CFDC0182E791E08D939D9384E0FB0169
:101B500001900D928A95E1F70895EF92FF920F930D
:101B60001F93CF93DF9300D000D0CDB7DEB78C01A9
:101B70007B01FB0184858430A8F082E791E0F801C5
:101B8000918380831282138214821582C8010F9080
:101B90000F900F900F90DF91CF911F910F91FF90B9
:101BA000EF90089580E591E00E94160124E030E076
:101BB000AE014F5F5F4F6CE070E0F70184850E94DB
:101BC000B007BE016F5F7F4FC8010E94A10DDECF3D
:101BD0000F931F93CF93DF93CDB7DEB728970FB640
:101BE000F894DEBF0FBECDBF8C01D80159964D9140
:101BF0005C915A974115510551F0ED91FC91048C7F
:101C0000F58DE02D70E060E0C8010995EECFF80198
:101C1000808D0E94EA0B892BB1F148E050E0BE01B3
:101C20006F5F7F4FD80158968C910E94110C181647
:101C30001906F4F4D801509684E0FE013196019023
:101C40000D928A95E1F78D8190E0982F88272E815B
:101C5000820F911DF801958B848B8F81282F30E0A6
:101C6000322F22278885820F932F911D928F818F8B
:101C700028960FB6F894DEBF0FBECDBFDF91CF918F
:101C80001F910F91089590E080E0F2CF4F925F9204
:101C90006F927F928F929F92AF92BF92CF92DF927C
:101CA000EF92FF920F931F93CF93DF93CDB7DEB7E1
:101CB00063970FB6F894DEBF0FBECDBF7C016B01FA
:101CC0003A01FB0120E090E080E06AE031913323AB
:101CD00009F461C040ED430F4A3008F04DC0689FE1
:101CE000A001699F500D1124CA01C097830F911D57
:101CF00037FD9A958F3F910549F340F3F7014281F3
:101D00005381648175818091A2029091A302A09178
:101D1000A402B091A502481759076A077B0709F486
:101D20000DC28701085F1F4F0E948C026F707727DA
:101D30007C5FC8010E94FC09813009F004C282E77F
:101D400091E09A838983F70182819381A481B5818F
:101D50008B839C83AD83BE8345E350E0BE016F5F00
:101D60007F4FC8010E947F04892BA9F5D12CC12C7B
:101D7000C8010E94930617C03E3209F0BFCF23303E
:101D800009F4BCCFD301A20FB11D12968C932F5F23
:101D900090E080E09BCF233009F0B0CFF301858342
:101DA000CC24C394D12CC60163960FB6F894DEBF41
:101DB0000FBECDBFDF91CF911F910F91FF90EF909C
:101DC000DF90CF90BF90AF909F908F907F906F905B
:101DD0005F904F9008950E948C02F701778366838D
:101DE00042E050E0B7016A5F7F4FC8010E940C0BD0
:101DF00081E090E09A83898342E050E0BE016F5F0A
:101E00007F4FC8010E940C0B80E091E09A83898388
:101E100042E050E0BE016F5F7F4FC8010E940C0B93
:101E20001A82198242E050E0BE016F5F7F4FC80105
:101E30000E940C0B42E050E0BE016F5F7F4FC80173
:101E40000E940C0B42E050E0BE016F5F7F4FC80163
:101E50000E940C0B5601F6018081882301F1650177
:101E6000F60181912F01882311F08E32B1F44601E1
:101E70008A189B081814190474F48D8641E050E008
:101E8000BE01635F7F4FC8010E940C0BA401B50126
:101E9000C8010E940C0B5201DECF6201E1CF1D860A
:101EA00041E050E0BE01635F7F4FC8010E940C0B10
:101EB000C12CDD24D394DA82C98242E050E0BE0115
:101EC0006F5F7F4FC8010E940C0BDA82C98242E02B
:101ED00050E0BE016F5F7F4FC8010E940C0BC8012C
:101EE0000E940707892B09F441CFF3E0AF2EB12CF4
:101EF000230122E0420E511CD4C0F70142815381DC
:101F000064817581808D918DA28DB38D481759079D
:101F10006A077B0709F008C1848D958DC59709F084
:101F200003C181A192A15DEFC52EDD24DA940C9747
:101F30000CF4ADC04CE050E0BE016F5F7F4FC801B4
:101F40000E94E10C8B819C819827892798279A8B86
:101F5000898BF7014681578129813A8142175307BE
:101F600009F0E7C097FFE5C08F7092703BEFC32E7A
:101F7000DD24DA94892B09F08AC06F807884762476
:101F8000672476242AEFC22EDD24DA9461147104CA
:101F900009F47DC0D12CC12C8D819E819827892781
:101FA0009827C816D906F8F441E050E0BE01635FF7
:101FB0007F4FC8010E94E10C4D85442331F050E071
:101FC00070E060E0C8010E94E10C8D858111ECCFCA
:101FD00044E050E070E060E0C8010E94E10CFFEFD7
:101FE000CF1ADF0AD9CF912C812C41E050E0BE01FD
:101FF0006D5E7F4FC8010E94E10C4B89842F807C6D
:1020000009F06CC0442331F050E070E060E0C8019A
:102010000E94E10C8B898111E8CF42E050E0BE01C3
:10202000615F7F4FC8010E94E10C42E050E0BE01B9
:10203000635F7F4FC8010E94E10C44E050E070E014
:1020400060E0C8010E94E10C42E050E0BE016F5E1A
:102050007F4FC8010E94E10C8F85988949895A8970
:102060008115914009F043C0CD84DE84DC24CD2469
:10207000DC2481E0C816D104D1F54115544009F0A3
:102080004AC044E050E0B201C8010E94E10C21E0E6
:10209000A21AB10809F46CCEFFEFCF16DF0609F0E3
:1020A00067CE0E948C023B014C01C8010E94E80DE2
:1020B000181619060CF421CF0E948C0266197709B4
:1020C00088099909693873418105910548F562E3EA
:1020D00070E080E090E00E945902E7CF41E050E0DC
:1020E00070E060E0C8010E94E10C1B8A93CF542786
:1020F0004527542770E060E0C8010E94E10CFFEF23
:102100008F1A9F0A6814790409F06FCF96EFC92ED1
:10211000DD24DA94BCCFE7EFCE2EDD24DA94B7CFFE
:10212000CC24CA94DC2CB3CF6EEFC62EDD24DA9417
:10213000AECF4CEFC42EDD24DA94A9CF8EEFC82E9B
:10214000DD24DA9430CED12CC12C2DCECF92DF926B
:10215000EF92FF920F931F93CF93DF93CDB7DEB72C
:10216000AF970FB6F894DEBF0FBECDBF7C016A01FA
:1021700002E711E01A8309831C861B8688EE93E030
:10218000A0E0B0E08D879E87AF87B88B86E191E0B5
:102190009A878987188F0F8B198E1A8E1B8E1C8E2B
:1021A00084E089A31BA70AA71CA61DA61EA61FA61E
:1021B0008091960290919702A0919802B091990215
:1021C0008EA39FA3A8A7B9A78B839C83AD83BE834F
:1021D00018861F82AE01465D5F4FCE0101960E94B8
:1021E000460E81309105B1F4D701ED91FC91048840
:1021F000F589E02D1DA30CA38CA59DA5AEA5BFA5BB
:102200008EA39FA3A8A7B9A7A601BE016C5D7F4FAF
:10221000C7010995AF960FB6F894DEBF0FBECDBFCC
:10222000DF91CF911F910F91FF90EF90DF90CF90B2
:102230000895CF92DF92EF92FF920F931F93CF9367
:10224000DF93CDB7DEB7AF970FB6F894DEBF0FBE02
:10225000CDBF8C016B017A0182E791E09A8389837B
:102260001B821C821D821E821C861B8648EE53E048
:1022700060E070E04D875E876F87788B26E131E004
:102280003A872987988F8F8B198E1A8E1B8E1C8EFA
:1022900024E029A39BA78AA71CA61DA61EA61FA6ED
:1022A000D8011C968C91843060F40E94A00688238B
:1022B00021F0F80184850E947B0684E0D8011C96F9
:1022C0008C938091960290919702A0919802B09180
:1022D00099028EA39FA3A8A7B9A78B839C83AD83E4
:1022E000BE8318861F82AE01465D5F4FB601CE01E8
:1022F00001960E94460E0097C1F0D801ED91FC9125
:102300000684F785E02D82E791E09DA38CA38CA540
:102310009DA5AEA5BFA58EA39FA3A8A7B9A7A701FA
:10232000BE016C5D7F4FC8010995AF960FB6F8945A
:10233000DEBF0FBECDBFDF91CF911F910F91FF90F8
:10234000EF90DF90CF9008950F931F93CF93DF937B
:10235000EC01FB0101900020E9F78F01061B170B30
:102360008A819B81A801480F591F2C813D81241728
:10237000350768F028813981A801820F931F0E94D8
:1023800002254A815B81400F511F5B834A83DF91A5
:10239000CF911F910F9108958F929F92AF92BF920C
:1023A000CF92DF92EF92FF920F931F93CF93DF9321
:1023B0007C01EB016C0182E0C80ED11C4701E5E015
:1023C0008E0E911C10E000E0F60141916F0150E08B
:1023D00070E060E02AE0CE010E945E055C01E881C9
:1023E000F9810190F081E02D6EE2CE0109958A0D10
:1023F0009B1D080F191FC814D90431F7F701458137
:1024000050E070E060E02AE0CE010E945E05800F9F
:10241000911FDF91CF911F910F91FF90EF90DF906F
:10242000CF90BF90AF909F908F9008953F924F9222
:102430005F926F927F928F929F92AF92BF92CF9254
:10244000DF92EF92FF920F931F93CF93DF93CDB75D
:10245000DEB7EA970FB6F894DEBF0FBECDBF7C01A2
:102460002A013B0169010E948C024B015C0187013A
:102470000D5B1F4FC8010E94E80D181619069CF04D
:102480000E948C02681979098A099B094616570629
:102490006806790608F466C162E370E080E090E0C7
:1024A0000E945902E7CF42E250E0BE016F5F7F4FCA
:1024B000C8010E94E10C89818230D1F0312C832D3A
:1024C000EA960FB6F894DEBF0FBECDBFDF91CF9175
:1024D0001F910F91FF90EF90DF90CF90BF90AF9042
:1024E0009F908F907F906F905F904F903F90089556
:1024F000F801848995898334910501F76D817E8186
:102500008F8198850E947D244B015C01F6018082B9
:102510009182A282B38246E050E0B701685F7F4FAC
:10252000CE014D960E94F524892B41F6F70180815A
:102530009181A281B38188169906AA06BB0608F488
:10254000BDCF84819581A681B78188159905AA059B
:10255000BB0508F4B3CF89899A89AB89BC89868782
:102560009787A08BB18B4EEC50E070E060E0C80123
:102570000E94E10C312CC701829698AB8FA7F7011E
:10258000B696FAABE9AB08969CAB8BAB67019AE1C8
:10259000C90ED11CBD96FEABEDABC701429698AFFC
:1025A0008FABFD97FAAFE9AF4701FEE18F0E911CAB
:1025B000F801818D928D181619060CF080CFC80194
:1025C0000E94000D8333910509F4B2C014F58130E7
:1025D000910509F464C044F4892B51F3C8010E94A9
:1025E000000DAC01552775C08330910509F462C018
:1025F0000697A1F7C8010E94000DB82E44E050E0F4
:10260000B401C8010E94E10CEB2DE450FF0BAF01B7
:1026100060C08A33910509F45FC084F58533910564
:10262000B1F1C697D9F6C8010E94000D5C01B60150
:10263000CE0189960E94A10D8BA59CA5ADA5BEA536
:10264000892B8A2B8B2BB1F0EDA9FEA940805180FC
:1026500062807380B601CE0183960E94A10D8DA188
:102660009EA1AFA1B8A5A501481659066A067B062A
:1026700009F0B8CF44E050E0B60118C08B339105A3
:1026800009F440C08F3F910509F492CFA7CFC8014C
:102690000E94000DC8010E94000D382E89CFC8018C
:1026A0000E94000D44E050E06FA978ADC8010E947F
:1026B000E10C7ECFC8010E94000DB82E44E050E02E
:1026C00069AD7AADC8010E94E10C8B2D8450990B45
:1026D000AC0170E060E0EACFC8010E94000D44E068
:1026E00050E069A97AA9C8010E94E10CF70166A12E
:1026F00077A180A591A50E947D2466A377A380A7DA
:1027000091A756CFC8010E94000D44E050E06BA98C
:102710007CA9C8010E94E10CF70162A573A584A5FC
:1027200095A50E947D2462A773A784A795A740CF93
:10273000C8010E94000D44E050E06FA578A9C801CF
:102740000E94E10CF70162A173A184A195A10E94EE
:102750007D2462A373A384A395A366A777A780AB08
:1027600091AB26CF33243A94AACE7F928F929F9238
:10277000AF92BF92CF92DF92EF92FF920F931F938F
:10278000CF93DF93CDB7DEB7A6970FB6F894DEBF31
:102790000FBECDBF8C01762E942E852E20E2A22E68
:1027A000CE0101967C01DC01EA2D1D92EA95E9F744
:1027B0006801F3E4CF0ED11C82E791E09AA389A3CC
:1027C0008FEF8BA38CA38DA38EA343E450E0BE01B7
:1027D0006F5D7F4FC6010E947F04019609F4BFC060
:1027E00081E089838A8386E0B82EBB821C82D8016F
:1027F00014966D917D918D919C9117970E947D24E7
:102800006D837E838F83988789869A8680E890E09F
:102810009C878B874CE150E0B701C6010E940C0BEE
:10282000FE0137968AE1DF011D928A95E9F748019A
:10283000B8E08B0E911CF401D70101900D92BA946F
:10284000E1F740E150E0B701C6010E940C0BF7012F
:102850001192AA94E9F796E0A92EB12C40E250E03B
:10286000B701C6010E940C0BF1E0AF1AB108B1F735
:1028700083E6898392E89A8393E59B838C8385E33F
:102880008D8381E08E837F829DE3988797E099878F
:102890008A8786E0F401DE011B9601900D928A95ED
:1028A000E1F78CE0898B8A8B64E771E0CE01439677
:1028B0000E941B25D8011B966C91CE0149960E945F
:1028C0001901F8016485CE014B960E941901D801C7
:1028D0001D966C91CE014D960E9419014EE150E07B
:1028E000B701C6010E940C0BB3E07B121EC082E34D
:1028F000898384E08A83F80196859B8397859C83EE
:1029000090899D8391899E8396E39F838887828D9A
:102910008987838D8A87848D8B87858D8C874CE012
:1029200050E0B701C6010E940C0B87E3898386E063
:102930008A8391E09B8393E09C838D838FE08E83D9
:102940008AE38F838BE388878FEF898749E050E0A4
:10295000B701C6010E940C0BC6010E940707A6968C
:102960000FB6F894DEBF0FBECDBFDF91CF911F91A0
:102970000F91FF90EF90DF90CF90BF90AF909F901E
:102980008F907F9008953F924F925F926F927F92C7
:102990008F929F92AF92BF92CF92DF92EF92FF926F
:1029A0000F931F93CF93DF93CDB7DEB7A1970FB6E9
:1029B000F894DEBF0FBECDBF5C010DB71EB719A3E3
:1029C00008A360E070E0CB010E945902D501919606
:1029D0008D919C919297912C029709F498C09096B2
:1029E0008C9190978F5F90968C9390975E962D9197
:1029F0003C91232B19F09924939482C08330D8F70B
:102A0000F501828593850E941F05882309F440C340
:102A10008E010F5F1F4F3801D5011A96ED91FC9181
:102A200080819181DC01ED91FC910084F185E02DA4
:102A30000995181619060CF02BC3D5011A96ED91BD
:102A4000FC9145E050E0BE01695E7F4F808191813D
:102A50000E949802009701F3059709F04AC0888DFB
:102A6000998D982789279827998F888FEA8CFB8CD6
:102A7000FE24EF24FE24FB8EEA8E892BD1F18F8970
:102A800081116AC00E948C02F501608B718B828B70
:102A9000938B21A132A14A8D5B8D232B09F057C066
:102AA000288D398D2130310509F051C0493051054B
:102AB000E1F0483C510519F044305105D1F4D501FD
:102AC00058966D937D938D939C935B97E1E0F0E036
:102AD0009296FC93EE939197C5010E940E1C60E0C4
:102AE00070E0CB010E94590297CF83E090E092A35F
:102AF00081A3D5011A968D919C910E943205912C4B
:102B0000D50190968C919097815090968C93892DB9
:102B1000E8A1F9A10FB6F894FEBF0FBEEDBFA196D4
:102B20000FB6F894DEBF0FBECDBFDF91CF911F91DE
:102B30000F91FF90EF90DF90CF90BF90AF909F905C
:102B40008F907F906F905F904F903F9008954530A9
:102B5000510509F061CFCDCFF50182859385F1E074
:102B6000EF16FF0640F0D50192961C921E929197A7
:102B70000E94320551CF8DB69EB697012F5F3F4F11
:102B8000EDB7FEB7E21BF30B0FB6F894FEBF0FBE16
:102B9000EDBF0DB71EB70F5F1F4FA701B801DC01D6
:102BA0008D919C910E9498028E159F0509F05FC03F
:102BB000EA8DFB8DE00FF11F10820E948C02F5015F
:102BC000608B718B828B938B8F89843109F4ABC0BE
:102BD000E8F48F3009F4A7C0813109F43CC2863093
:102BE00009F04EC2488D598DD12CC12CF12CE12C0D
:102BF00008EC10E030E020E060E0C5010E943B19E5
:102C00000FB6F8949EBE0FBE8DBE06CF8932C9F0B6
:102C10008733B1F38D3109F033C2D50181A192A17F
:102C2000892B01F7E1E0F0E09296FC93EE93919707
:102C3000C5010E940E1C60E070E0CB010E945902A9
:102C4000D1CF86859785892B39F480E490E00E9466
:102C5000B121F50197878687EA8CFB8CE00EF11E87
:102C60001A830983FC82EB820E151F0530F00FB624
:102C7000F8949EBE0FBE8DBE3CCF40E450E0B8013C
:102C8000D5011E968D919C910E942225D5011E96FC
:102C9000ED91FC9117AEC3010E94C71BFC0180811E
:102CA000918100E510E08E159F0560F489819A817D
:102CB0000097A9F12B813C818217930780F50E9430
:102CC00098238B01D5011A968D919C910E94320513
:102CD000D5011A96ED91FC911B971E968D919C91B2
:102CE0001F97918780871387028792961C921E9266
:102CF00091970E948C02DC01CB0188589341A10975
:102D0000B109F501848B958BA68BB78B808B918B4A
:102D1000A28BB38B808F918FA28FB38F71CF60E026
:102D200070E0CB01CECF888D998DD5015F969C93B5
:102D30008E935E974A8C5B8C6801C40CD51C1D8FEA
:102D40000C8FDF8ECE8E0C151D0508F013C1F80117
:102D5000E080F180CE014C960E94C71BDC018D9172
:102D60009C918C159D0508F005C18C8D9D8DFC01F5
:102D70002081213459F401960E947A234EE0342EAA
:102D8000380E069744F033243A9405C0CE014C9691
:102D90000E94DA1B382EF6E7EF16F2E7FF0609F479
:102DA00006C138F531E6E31632E7F30609F4E6C06A
:102DB00044E6E41642E7F40609F478C050E7E51665
:102DC0005DE6F50609F039C18C8D9D8D8C159D054C
:102DD00008F0D0C0FC0120812134A9F501960E94A1
:102DE0007A233EE0F32EF80E069794F1FF24FA942E
:102DF0002FC084E6E81687E7F80609F4A2C096E734
:102E0000E91697E7F90609F4EAC0A1E6EA16A7E78A
:102E1000FA0609F012C1CE014C960E94C71BDC01D4
:102E20008D919C918C159D0508F0A4C061E0832DC7
:102E30000E948601CE014C960E94DA1BBC01832DB4
:102E40000E94C20197C0CE014C960E94DA1BF82E58
:102E5000CE014C960E94C71B0C8D1D8D6BE771E057
:102E6000C8010E94122560E0892B79F06EE771E0BD
:102E7000C8010E941225892B39F062E871E0C8016F
:102E80000E941225892B49F461E08F2D0E94860152
:102E9000CE014C960E94C71B97CF66E871E0C8012F
:102EA0000E941225892BA1F762E0EFCF7A8A698A06
:102EB0001C8A1B8A00E110E01E8B0D8B69E871E013
:102EC000CE0141960E94A411032D10E0B801CE015D
:102ED00041960E94E91BF801E25CFE4F8491F801E3
:102EE000E65DFE4FF4900A5E1E4FF801049160E02B
:102EF00070E0002389F081110E942F01E02FF0E0A3
:102F0000EE0FFF1FE45FFE4FA591B491EC91FE22FE
:102F100061E070E009F460E0CE0141960E94E91B97
:102F20000B891C890150110929893A89D12CC12C9E
:102F3000F12CE12C50E040E064E1C5010E943B1916
:102F400019C0CE014C960E94C71BDC018D919C914B
:102F50008C159D0578F461E0832D0E948601CE01D9
:102F60004C960E94DA1B61E0892B09F460E0832D06
:102F70000E945801F501178E168E42CE7A8A698A10
:102F80001C8A1B8AE0E1F0E0FE8BED8B6CE871E0BF
:102F9000CE0141960E94A411632D70E0CE014196AE
:102FA0000E94E91B832D0E941F02BC01B5CFE32DB7
:102FB000F0E0FA83E983BFE1B315E0F2EE0FFF1F03
:102FC000EE5AFE4F259134912115310599F2E1E039
:102FD00025313E0779F2C301F9010995CBCFCE0126
:102FE0004C960E94C71B8C8D9D8D9C01201B310B24
:102FF000421A530A9A8389835C824B825E824D8295
:10300000E32DF0E0FA8BE98B0FE1031508F4B2CF62
:10301000EE0FFF1FEE56FE4F25913491211531051D
:1030200009F4A8CF11E02431310709F4A3CFB3018B
:10303000CE014196F90109959DCFD5015E964D913E
:103040005C91D12CC12CF12CE12C02E010E030E09D
:1030500020E060E072CF8A8D9B8D800F911F1A83D4
:1030600009839C838B830817190708F0C9CDC30116
:103070000E94C71BD5015F961C921E925E97C0CD21
:10308000F50112A211A2828593850E943205B8CD66
:103090000E948C022B013C01F501828593850E94E0
:1030A0001F05D50191962D913C912130310509F0F4
:1030B0005EC0F501811109C0408E518E628E738E03
:1030C00012A211A28285938518CD80899189A28947
:1030D000B38993018201081B190B2A0B3B0BD90101
:1030E000C801893116EF9107A105B10548F7893C60
:1030F0009F4AA105B10590F484899589A689B7896D
:1031000093018201081B190B2A0B3B0BD901C80143
:10311000893C9F4AA105B10508F46DCCF501808D6D
:10312000918DA28DB38D93018201081B190B2A0B7F
:103130003B0BD901C80181379741A105B10508F4BE
:103140005ACCD12CC12CF12CE12C10E000E030E065
:1031500020E050E040E066E0C5010E943B19D50147
:1031600058964D925D926D927C925B9744CC232B46
:1031700009F041CCF501408D518D628D738D930125
:103180008201041B150B260B370BB901A8018823FC
:1031900081F0413757416105710508F42CCC8285D7
:1031A00093850E943205D50192961C921E929197AA
:1031B000A6CC493853416105710508F41CCC8285C1
:1031C00093850E943205D5011A960D911C91F80144
:1031D00062857385C8010E94D804D8011C968C931F
:1031E0001C9781110DC01A968D919C918035910587
:1031F00099F460E97FE1C8010E94D804F80184874E
:10320000F8019484911014C0D50158964D925D92A6
:103210006D927C925B9774CC80399F4189F760E511
:1032200070E0C8010E94D804D8011C968C93E8CFA6
:1032300081E090E0F501958F848F24853585F90133
:1032400001900020E9F731978F01021B130BD12C5D
:10325000C12CF12CE12C41E050E06DE1C5010E9450
:103260003B19F50184899589A689B789808F918F4B
:10327000A28FB38F45CC2F923F924F925F926F9265
:103280007F928F929F92AF92BF92CF92DF92EF92F6
:10329000FF920F931F93CF93DF93CDB7DEB7C85440
:1032A000D1090FB6F894DEBF0FBECDBF4C0168AF99
:1032B0005AAF49AF27963FAF2EAF279721961FAF42
:1032C0000EAF21972996FFAEEEAE29972396DFAE7B
:1032D000CEAE2397DC011A968D919C910E941F051A
:1032E000882309F4B7C1B8ADBB2351F0B63041F023
:1032F000BD3131F0F40181A192A1019709F0AAC179
:1033000088AD8F508630A0F5D40154964D915D91D3
:103310006D917C9157975096CD90DD90ED90FC90FB
:103320005397C416D506E606F70610F46A017B012A
:10333000B2E4CB0ED11CE11CF11C0E948C02A7014F
:103340009601261B370B480B590BDA01C901B7FD53
:103350009BC1C4010E94C3140E948C02A701960164
:10336000261B370B480B590BDA01C901B7FFF1CF08
:10337000F40180819181019709F0B2C082E090E070
:103380009183808322813381448155816681778155
:1033900080859185A0E0FE017A960E94E32409F4DD
:1033A00086C1FBABEAAB1DAA1CAA88E190E09FABEB
:1033B0008EAB69E771E0CE01C2960E94A411D401E0
:1033C00012964C90129713965C90139714966C90EB
:1033D000149715967C9015971696BC91BBAFF40187
:1033E000F781FCAFD40118962C90189719963C9051
:1033F000198E9201A3016BAD7F2FC101A0E00E9445
:10340000E32409F44AC1FE0179962596FFAFEEAF99
:10341000259727E130E03EAF2DAF8AE0A82EB12CF2
:10342000C12CD12CE12CF12C00E010E09201A30181
:103430006BAD7CADC1010E948424F901EF56FE4FB3
:1034400080812596AEADBFAD25978E932596BFAFF3
:10345000AEAF2597EDADFEAD3197FEAFEDAF9AE083
:10346000A92EB12CC12CD12CE12CF12C00E010E0C4
:103470009201A3016BAD7CADC1010E94862429019C
:103480003A016BAF7CAF1C01A0E00E94E32421F065
:103490004DAD5EAD452B09F66DAD7EAD6C0F7D1F5C
:1034A0006E5F7F4F09F0FEC0EAA9FBA98CA99DA918
:1034B0009C012F5F3F4F3DAB2CABE80FF91F1082F3
:1034C0000CA91DA9015011092AA93BA9D12CC12C75
:1034D000F12CE12C50E040E065E1C4010E943B1971
:1034E00029AD3AAD232BB9F4D4015E960D90BC9171
:1034F000A02DBAAFA9AFAB2B71F4F401848D958DDB
:10350000019609F4E9C0958F848FF401048CF58D40
:10351000E02DFAAFE9AF27962EAD3FAD2797219664
:103520000EAD1FAD21970B5F1F4F232B11F405E04C
:1035300010E029964EAD5FAD299790E080E0452BD5
:1035400021F023968EAD9FAD2397080F191F58AD1C
:10355000598389AD9AAD9827892798279B838A83B9
:1035600021968EAD9FAD21972396AEADBFAD23972B
:103570008A0F9B1F9827892798279D838C83D401C6
:103580001A96ED91FC9180819181DC01ED91FC9185
:103590000280F381E02D45E050E0BE016F5F7F4F78
:1035A00009957C0160E070E0CB010E945902B8AD42
:1035B000BB2309F444C02196EEADFFAD2197EF2B5C
:1035C000E1F0D4011A96ED91FC9180819181DC01AA
:1035D000ED91FC910280F381E02D21964EAD5FAD1F
:1035E000219727966EAD7FAD27970995E80EF91EB6
:1035F00060E070E0CB010E9459022396EEADFFAD72
:103600002397EF2BE1F0D4011A96ED91FC91808184
:103610009181DC01ED91FC910280F381E02D2396F4
:103620004EAD5FAD239729966EAD7FAD2997099575
:10363000E80EF91E60E070E0CB010E945902E0162E
:10364000F10609F44EC0F40112A211A282859385FD
:103650000E943205C85BDF4F0FB6F894DEBF0FBE85
:10366000CDBFDF91CF911F910F91FF90EF90DF9031
:10367000CF90BF90AF909F908F907F906F905F9012
:103680004F903F902F900895D40190968C91811186
:103690006FCEC4010E94C3146BCE80E3888FBE013D
:1036A000685E7F4FCE01C2960E94A41109CFFA83B3
:1036B000E9831C821B8284E090E09E838D836FE807
:1036C00071E0CE0101960E94A4110B811C81015072
:1036D000110929813A81FACE81E090E0958F848F9B
:1036E00014CF0E948C02D40154966D937D938D93D8
:1036F0009C935797AFCF0C944D221F920F920FB609
:103700000F9211242F933F938F939F93AF93BF9367
:103710008091510290915202A0915302B0915402B3
:103720003091500223E0230F2D3758F50196A11D4B
:10373000B11D209350028093510290935202A093A6
:103740005302B09354028091550290915602A09179
:103750005702B09158020196A11DB11D80935502E8
:1037600090935602A0935702B0935802BF91AF9125
:103770009F918F913F912F910F900FBE0F901F90AF
:10378000189526E8230F0296A11DB11DD2CFDC01AA
:10379000ED91FC911197309761F012962D913C912B
:1037A0001397E217F30728F401900020E9F7ED934F
:1037B000FC930895FC0180819181009739F022816A
:1037C00033818217930710F40C947A2390E080E001
:1037D00008950F931F93CF93DF93CDB7DEB728974C
:1037E0000FB6F894DEBF0FBECDBF8C01CB014AE00F
:1037F000BE016F5F7F4F0E94C823BE016F5F7F4F86
:10380000C8010E94A41128960FB6F894DEBF0FBE1F
:10381000CDBFDF91CF911F910F910895AF92BF92CD
:10382000CF92DF92EF92FF920F931F93CF93DF938C
:10383000CDB7DEB7CC5CD1090FB6F894DEBF0FBEB2
:10384000CDBF5C01CE0189579F4FC953DF4F99838C
:103850008883C75CD040C753DF4F19821882C95C88
:10386000D04080E490E0C553DF4F99838883CB5CE0
:10387000D04062EA71E0CE0189539F4F0E94A411AB
:1038800067EA71E0CE0189539F4F0E94A41146E878
:1038900050E060E770E0CE0101960E94BF23C7535D
:1038A000DF4FC880D980C95CD04081E0C81AD108F8
:1038B000C953DF4FE880F980C75CD04006E810E0CC
:1038C0009E012F5F3F4F50E040E061E1C5010E9443
:1038D0003B19C453DF4F0FB6F894DEBF0FBECDBF08
:1038E000DF91CF911F910F91FF90EF90DF90CF90DC
:1038F000BF90AF900895E6E7F2E082E791E0918310
:1039000080831282138214821582ECE7F2E09183A5
:1039100080831282138214821582E2E8F2E091839E
:1039200080831282138214821582E8E8F2E0918388
:1039300080831282138214821582EEE8F2E0918372
:1039400080831282138214821582EAE9F2E0918365
:1039500080831282138214821582E4E9F2E091835B
:1039600080831282138214821582E0EAF2E091834E
:1039700080831282138214821582E6EAF2E0918338
:1039800080831282138214821582E1EFF2E0918328
:1039900080831282138214821582E2EEF2E0138297
:1039A000128220E431E03183208324E0248728EE52
:1039B00033E036872587A5EDB2E013969C938E936E
:1039C000129714961D921D921D921C92179719968C
:1039D0001C921E9218971B961C921E921A971C9668
:1039E0001C921C971196FC93EE9340E757E160E020
:1039F00070E04483558366837783ECEAF2E01182BA
:103A00001082128213821482158216821782108607
:103A10001186B387A2871586148617861686108AA4
:103A2000118A128A138A148A158A168A178A108EA6
:103A3000118E128E138E158E148E178E168E10A266
:103A400012A211A20895CF93DF93CDB7DEB72A97C4
:103A50000FB6F894DEBF0FBECDBF789484B58260F8
:103A600084BD84B5816084BD85B5826085BD85B522
:103A7000816085BD80916E00816080936E001092A0
:103A8000810080918100826080938100809181001B
:103A900081608093810080918000816080938000AC
:103AA0008091B10084608093B1008091B00081600A
:103AB0008093B00080917A00846080937A00809136
:103AC0007A00826080937A0080917A00816080938E
:103AD0007A0080917A00806880937A001092C10009
:103AE00061E083E00E9486018EEF8093CF029DEE1D
:103AF0009093D0022AEB2093D1028093D20280933C
:103B0000D3029093D402A5EBB1E045ED51E0E1E0A2
:103B1000F0E09F012F5F3F4F6D91E455FD4F83A172
:103B2000862783A3F9012630310514F0E1E0F0E0A7
:103B30004A175B0771F78091480281112AC01092E1
:103B4000300210922F0288EE93E0A0E0B0E0809364
:103B5000310290933202A0933302B093340286E193
:103B600091E090932E0280932D0282E791E0909352
:103B70003C0280933B0210923D0210923E02109252
:103B80003F021092400284E08093450281E08093DE
:103B900048028AEE91E09093E9018093E8018091D8
:103BA000E7018111ADC060E372E080E090E00E9427
:103BB0005902DFB6F89400E211E0E4E3EE2EE1E012
:103BC000FE2E8091E501811125C0F8018491F70155
:103BD0009491E82FF0E0EE0FFF1FE850FF4FA59102
:103BE000B4918C91982321F461E08AE00E945801FD
:103BF00061E08AE00E9486018CB580618CBD8CB545
:103C000080648CBD61E08DE00E94860161E08BE004
:103C10000E9486018091E5018F5F8093E501DFBE00
:103C2000F8010491E02FF0E0EE0FFF1FEE5FFE4F72
:103C3000859194919093E4018093E301F701E490DE
:103C4000E092E20161E08AE00E9486010E940203A4
:103C500080E591E00E94160184E38093750280E87C
:103C60000E94CE030E944B07882309F4FEC188E01E
:103C70000E94CE030E943807883009F0F6C180E127
:103C80000E94CE030E943807803109F0EEC180E027
:103C90000E94CE030E943807182F8111E6C141E02F
:103CA00050E0BE016F5F7F4F8FE190E00E94C3053F
:103CB0008981833009F0D9C180E48093E60142E034
:103CC0006EE170E0812F0E942A0442E06FE170E013
:103CD000812F0E942A041F5F143089F740E06EE1B3
:103CE00070E0812F0E942A0440E06FE170E0812F94
:103CF0000E942A041F5F183089F781E08093E70152
:103D000080E591E00E94160146E050E06FEC72E021
:103D100089E090E00E941E0382E791E09A83898304
:103D20001B821C821D821E8244E050E0BE016D5F3A
:103D30007F4F8FE090E00E941E030091E8011091F8
:103D4000E901D80192961D921D921D921C929597A1
:103D5000F80116A217A210A611A69A961D921D92FE
:103D60001D921C929D9780E69AEEA0E0B0E086AB93
:103D700097ABA0AFB1AF80EA9FE0A0E0B0E082AF28
:103D800093AFA4AFB5AFD801189686E0FD01282FF8
:103D900011922A95E9F79801225F3F4F94E1F901CA
:103DA00011929A95E9F7EFECF2E001900D928A9565
:103DB000E1F7C8018E5B9F4F9A878987DC011C92CF
:103DC0000E9422232FEC37E040E050E00E941A24AA
:103DD000DC01CB010196A11DB11DF80184839583FF
:103DE000A683B78380839183A283B3835801F3E4CE
:103DF000AF0EB11CC5010E94930664E470E0C501DA
:103E00000E94FC09882309F499C10E948C022B01AD
:103E10003C0148EEC42E43E0D42EE12CF12C52E0BC
:103E2000252E912C812CA985BA858C918330B9F1EE
:103E300081118EC1F80184819581A681B781019697
:103E4000A11DB11D84839583A683B7830E948C0234
:103E50006419750986099709A70196010E944C24E7
:103E6000A90161E0C8010E94B51381E0A985BA8566
:103E70008C93F1E08F169104B1F20E948C026419C8
:103E8000750986099709D801D6962D913D914D91D6
:103E90005C91D997261737074807590710F6C501CF
:103EA0000E949306F80184819581A681B7810196CD
:103EB000A11DB11D84839583A683B7830E948C02C4
:103EC000F801FE9660837183828393838A948928A4
:103ED00009F034C180E591E00E9416010091E801EB
:103EE0001091E901B801625F7F4FCE0101960E94F7
:103EF000A10D44E050E0BE016D5F7F4F8FE090E088
:103F00000E941E03B8016A5E7F4FCE0101960E9497
:103F1000A10D44E050E0BE016D5F7F4F81E090E075
:103F20000E941E03B8016E5E7F4FCE0101960E9473
:103F3000A10D44E050E0BE016D5F7F4F85E090E051
:103F40000E941E03B801625E7F4FCE0101960E945F
:103F5000A10D8B819C81AD81BE818093960290934F
:103F60009702A0939802B09399020E9434027F7343
:103F700080910001909101016827792770930101D8
:103F80006093000168EE73E080E090E00E945902C7
:103F900082E791E09A8389831B821C821D821E82A4
:103FA00080E591E00E94160144E050E0BE016D5FA3
:103FB0007F4F8FE090E00E94C30585EB91E09093E6
:103FC000B9028093B8020E948C02DC01CB018858B0
:103FD0009341A109B1098093C0029093C102A093BB
:103FE000C202B093C3028093BC029093BD02A0931F
:103FF000BE02B093BF028093C4029093C502A09307
:10400000C602B093C702E091B602F091B70286ED06
:1040100091E09187808780E590E093878287809107
:10402000B6029091B7020E9432051092CE02109211
:10403000CD020E948C026B017C018091CD02909197
:10404000CE02019709F44FC10E948C026C197D09C0
:104050008E099F09603576448105910508F043C1BA
:104060008CEA92E00E94C314E8CF87E38093750244
:1040700080E80E94CE030E944B07882329F188E044
:104080000E94CE030E9438078830F1F480E10E943C
:10409000CE030E943807182F8031B1F480E00E94CF
:1040A000CE030E94380781110FC041E050E0BE01ED
:1040B0006F5F7F4F89E390E00E94C3058981843060
:1040C00019F41093E60119CE83E38093750280E81A
:1040D0000E94CE030E944B07882371F180E10E9469
:1040E000CE030E943807803139F582E10E94CE0369
:1040F0000E943807823101F580E00E94CE030E94C1
:104100003807811119C084E08093E60115E518870E
:1041100041E050E0BE01685F7F4F8BE190E00E947C
:104120001E031F8341E050E0BE01695F7F4F8AE1BB
:1041300090E00E941E03E1CD1092750260E177E2EB
:1041400080E090E00E945902F0E0E0E00995FFCFA6
:104150008430F9F4F80184819581A681B7810196B4
:10416000A11DB11D84839583A683B7830E948C0211
:104170006419750986099709A70196010E944C24C4
:10418000A90163E0C8010E94B513A985BA852C92E4
:1041900070CE813059F5F80142AD53AD64AD75ADC7
:1041A0009E012F5F3F4FC8010E941612382EF2E089
:1041B0008F1392C089819A81AB81BC81F80184837D
:1041C0009583A683B7830E948C02641975098609BA
:1041D0009709A70196010E944C24A90163E0C80138
:1041E0000E94B513A985BA853C9243CE823009F06E
:1041F00040CEF80142AD53AD64AD75AD9E012F5F69
:104200003F4FC8010E941612382EF5E08F135DC093
:10421000E3E0A985BA85EC93F80182A193A1A4A15A
:10422000B5A1892B8A2B8B2B41F484E893E0A0E085
:10423000B0E082A393A3A4A3B5A3F80186A197A19C
:10424000A0A5B1A5892B8A2B8B2B61F482A193A108
:10425000A4A1B5A1B695A7959795879586A397A391
:10426000A0A7B1A7F80182A593A5A4A5B5A5892B00
:104270008A2B8B2BA9F482A193A1A4A1B5A1AC0197
:10428000BD0123E076956795579547952A95D1F717
:10429000841B950BA60BB70B82A793A7A4A7B5A762
:1042A000F80186A197A1A0A5B1A586A797A7A0AB65
:1042B000B1AB82A593A5A4A5B5A582AB93ABA4ABE6
:1042C000B5AB88248394912CD4CDF6E08F1304C031
:1042D000A985BA851C92CDCDBFEF3B12CACDE98529
:1042E000FA851082C6CD8091CD029091CE020197C1
:1042F00009F095CE60E08EE00E94860161E083E0E7
:104300000E948601CC24CA9483E0D82EE12CF12CA3
:1043100000E010E08CEA92E00E94C3148EE00E945C
:104320001F02DC0121E03FEF4FEF5FEF0E943924D5
:10433000A70196010E941A24CA01B90161507F4F5A
:104340008F4F9F4F83E00E94C20164E670E080E0DF
:1043500090E00E94590201151105E1F20E9400004F
:10436000D9CF0F931F93CF93DF938230910510F431
:1043700082E090E0E091F902F091FA0230E020E072
:10438000B0E0A0E0309799F42115310509F44AC056
:10439000281B390B24303105D8F58A819B816115A2
:1043A000710589F1FB0193838283FE0111C0408175
:1043B00051810281138148175907E0F048175907C6
:1043C00099F4109761F012960C93129713961C9320
:1043D0003296CF01DF91CF911F910F9108950093F5
:1043E000F9021093FA02F4CF2115310551F042176A
:1043F000530738F0A901DB019A01BD01DF01F80183
:10440000C1CFEF01F9CF9093FA028093F902CDCF9B
:10441000FE01E20FF31F81939193225031093983FA
:104420002883D7CF2091F7023091F802232B41F453
:1044300020910401309105013093F8022093F70296
:1044400020910201309103012115310541F42DB76E
:104450003EB74091060150910701241B350BE091B6
:10446000F702F091F802E217F307A0F42E1B3F0BBE
:104470002817390778F0AC014E5F5F4F24173507D6
:1044800048F04E0F5F1F5093F8024093F70281935C
:1044900091939FCFF0E0E0E09CCFCF93DF93009724
:1044A000E9F0FC01329713821282A091F902B091D7
:1044B000FA02ED0130E020E01097A1F42081318173
:1044C000820F931F2091F7023091F80228173907C5
:1044D00009F061C0F093F802E093F702DF91CF9109
:1044E0000895EA01CE17DF07E8F54A815B819E0156
:1044F00041155105B1F7E901FB83EA8349915991CF
:10450000C40FD51FEC17FD0761F4808191810296DD
:10451000840F951FE90199838883828193819B830E
:104520008A83F0E0E0E012968D919C9113970097BA
:10453000B9F52D913C911197CD010296820F931FF1
:104540002091F7023091F8022817390739F6309791
:1045500051F51092FA021092F902B093F802A0936A
:10456000F702BCCFD383C28340815181840F951F52
:10457000C817D90761F44E5F5F4F88819981480F52
:10458000591F518340838A819B81938382832115A4
:10459000310509F0B0CFF093FA02E093F9029ECF13
:1045A000FD01DC01C0CF13821282D7CF8F929F9280
:1045B000AF92BF92CF92DF92EF92FF92CF93DF93B1
:1045C000EC01688179818A819B8161157105810582
:1045D000910521F464E279ED8BE597E02DE133EF6D
:1045E00041E050E00E941A2449015A019B01AC01AC
:1045F000A7EAB1E40E9439246B017C01ACEEB4EF70
:10460000A50194010E944724C60ED71EE81EF91E7C
:10461000F7FE06C081E0C81AD108E10880E8F80A70
:10462000C882D982EA82FB82C701B6019F77DF91F7
:10463000CF91FF90EF90DF90CF90BF90AF909F9081
:104640008F9008958F929F92AF92BF92CF92DF92F8
:10465000EF92FF92609108017091090180910A0127
:1046600090910B01611571058105910521F464E2BA
:1046700079ED8BE597E02DE133EF41E050E00E94CA
:104680001A2449015A019B01AC01A7EAB1E40E9436
:1046900039246B017C01ACEEB4EFA50194010E94BA
:1046A0004724C60ED71EE81EF91EF7FE06C081E09D
:1046B000C81AD108E10880E8F80AC0920801D0922F
:1046C0000901E0920A01F0920B01C701B6019F7740
:1046D000FF90EF90DF90CF90BF90AF909F908F9022
:1046E0000895609308017093090180930A019093E3
:1046F0000B010895FC0188279927E8942191203225
:10470000E9F3293010F02E30C8F32B3241F02D326E
:1047100039F4689404C00E94E823820F911D21910E
:1047200020532A30C0F31EF4909581959F4F089531
:104730001F93FC0199278827BC01E894119110323E
:10474000E9F3193010F01E30C8F31B3251F01D325E
:1047500049F4689406C00E94D323610F711D811D26
:10476000911D119110531A30B0F33EF4909580953D
:10477000709561957F4F8F4F9F4F1F910895FB015B
:10478000DC0102C005900D9241505040D8F70895C9
:10479000BB274A3031F4992322F4BDE290958195EC
:1047A0009F4F0C94F123592F482F372F262F660F38
:1047B000771F881F991F660F771F881F991F620F29
:1047C000731F841F951F660F771F881F991F0895F9
:1047D0007AE0979F902D879F802D910D1124089549
:1047E000BB27FB015527AA27880F991FAA1FA417CB
:1047F00010F0A41B83955051B9F7A05DAA3308F0BF
:10480000A95DA193009779F7B111B1931192CB01F2
:104810000C940A24DC01FC01672F71917723E1F7E6
:10482000329704C07C916D9370836291AE17BF077D
:10483000C8F30895052E97FB1EF400940E943124BE
:1048400057FD07D00E944C2407FC03D04EF40C9473
:10485000312450954095309521953F4F4F4F5F4FF4
:10486000089590958095709561957F4F8F4F9F4FDC
:1048700008950E946E24A59F900DB49F900DA49F53
:10488000800D911D11240895B7FF0C9439240E94C6
:104890003924821B930B0895A1E21A2EAA1BBB1B7D
:1048A000FD010DC0AA1FBB1FEE1FFF1FA217B307FC
:1048B000E407F50720F0A21BB30BE40BF50B661F12
:1048C000771F881F991F1A9469F7609570958095D6
:1048D00090959B01AC01BD01CF010895A29FB0014D
:1048E000B39FC001A39F700D811D1124911DB29F24
:1048F000700D811D1124911D089569279627692740
:104900007827872778270895689401C0E8948F92C4
:104910009F92CF93DF930E949224DF91CF919F903B
:104920008F90089588249924F401E401B0E49F93C2
:10493000AA279A158B049C04ED05FE05CF05D00728
:10494000A10798F4AD2FDC2FCF2FFE2FE92D982C47
:10495000892E982F872F762F652F542F432F322F94
:104960002227B85031F7BF9127C01B2EBF91BB271C
:10497000220F331F441F551F661F771F881F991F63
:10498000881C991CEE1FFF1FCC1FDD1FAA1FBB1F19
:104990008A149B04EC05FD05CE05DF05A007B107D1
:1049A00048F08A189B08EC09FD09CE09DF09A00B25
:1049B000B10B21601A94E1F62EF49401AF01BE010F
:1049C000CD01000C08950024A7FD00942A1730059E
:1049D0004005500560057005800590050895EE0FAF
:1049E000FF1F0590F491E02D0994FB01DC0104C048
:1049F0008D910190801921F441505040C8F7881BD7
:104A0000990B0895FB01DC0102C001900D92415009
:104A10005040D8F70895DC0101C06D9341505040DB
:104A2000E0F70895FB01DC018D91019080190110E0
:104A3000D9F3990B0895FB01DC0101900D92002040
:104A4000E1F70895FB01DC014150504048F001902E
:104A50000D920020C9F701C01D9241505040E0F76F
:104A60000895F894FFCF00C00000FB028000010011
:104A7000000001005E0000000000000047040C0B75
:104A8000D50415012B01000D8707FC099708930633
:104A90007F04A6100707E80DE10CCE04BE04BA049B
:104AA000B604000000006804460B030BEE0A080C75
:104AB0002A0D96077A091911440DCE06AC06550544
:104AC0005D057B1B520550055D044605770DAD0D58
:104AD0004D0D420500000000CC1157495A6E657417
:104AE00000696E006F75740070776D0070750064FA
:104AF0007700617700620030313233343536373831
:104B00003961626364656600746D706C00544D5069
:104B10004C336649374A636678790063505074674E
:104B2000706A476F48767A67457452735A326A667C
:104B3000336F474E5F77426150775400626C796EF5
:084B40006B2E636C6F756400BD
:107E0000112484B714BE81FFF0D085E080938100F7
:107E100082E08093C00088E18093C10086E0809377
:107E2000C20080E18093C4008EE0C9D0259A86E02C
:107E300020E33CEF91E0309385002093840096BBD3
:107E4000B09BFECF1D9AA8958150A9F7CC24DD24C4
:107E500088248394B5E0AB2EA1E19A2EF3E0BF2EE7
:107E6000A2D0813461F49FD0082FAFD0023811F036
:107E7000013811F484E001C083E08DD089C08234E0
:107E800011F484E103C0853419F485E0A6D080C0E4
:107E9000853579F488D0E82EFF2485D0082F10E0AE
:107EA000102F00270E291F29000F111F8ED06801E7
:107EB0006FC0863521F484E090D080E0DECF843638
:107EC00009F040C070D06FD0082F6DD080E0C81688
:107ED00080E7D80618F4F601B7BEE895C0E0D1E017
:107EE00062D089930C17E1F7F0E0CF16F0E7DF06D8
:107EF00018F0F601B7BEE89568D007B600FCFDCFD4
:107F0000A601A0E0B1E02C9130E011968C91119780
:107F100090E0982F8827822B932B1296FA010C0160
:107F200087BEE89511244E5F5F4FF1E0A038BF0790
:107F300051F7F601A7BEE89507B600FCFDCF97BE46
:107F4000E89526C08437B1F42ED02DD0F82E2BD052
:107F50003CD0F601EF2C8F010F5F1F4F84911BD097
:107F6000EA94F801C1F70894C11CD11CFA94CF0C13
:107F7000D11C0EC0853739F428D08EE10CD085E9AC
:107F80000AD08FE07ACF813511F488E018D01DD067
:107F900080E101D065CF982F8091C00085FFFCCF94
:107FA0009093C60008958091C00087FFFCCF809118
:107FB000C00084FD01C0A8958091C6000895E0E648
:107FC000F0E098E1908380830895EDDF803219F02E
:107FD00088E0F5DFFFCF84E1DECF1F93182FE3DFCA
:107FE0001150E9F7F2DF1F91089580E0E8DFEE27F6
:047FF000FF270994CA
:027FFE00040479
:00000001FF
