:020000040000FA
:100000000C9458000C9480000C9480000C94800098
:100010000C9480000C9480000C9480000C94800060
:100020000C9480000C9480000C9480000C94800050
:100030000C9480000C9480000C9480000C94800040
:100040000C9434050C9480000C94A4050C947E054B
:100050000C9480000C9480000C9480000C94800020
:100060000C94D6050C9480000000000025002800A8
:100070002B00040404040404040402020202020229
:10008000030303030303010204081020408001025C
:1000900004081020010204081020000000080002DB
:1000A0000100000304070000000000000000F50646
:1000B00011241FBECFEFD8E0DEBFCDBF11E0A0E01E
:1000C000B1E0E2EFF1E102C005900D92A235B10777
:1000D000D9F722E0A2E5B1E001C01D92AF3CB20722
:1000E000E1F710E0C8E5D0E004C02197FE010E94CE
:1000F000F108C735D107C9F70E943D070C94F708EE
:100100000C94000090E0FC01E656FF4F2491FC01A6
:10011000EA57FF4F3491FC01EE58FF4FE491EE2374
:10012000C9F0222339F0233001F1A8F4213019F16C
:10013000223029F1F0E0EE0FFF1FE859FF4FA591A3
:10014000B4918FB7F894EC91611126C030953E239D
:100150003C938FBF08952730A9F02830C9F0243090
:1001600049F7809180008F7D03C0809180008F7758
:1001700080938000DFCF84B58F7784BDDBCF84B5DB
:100180008F7DFBCF8091B0008F778093B000D2CF6E
:100190008091B0008F7DF9CF3E2BDACF3FB7F89436
:1001A0008091160290911702A0911802B091190245
:1001B00026B5A89B05C02F3F19F00196A11DB11DC2
:1001C0003FBFBA2FA92F982F8827BC01CD01620FFE
:1001D000711D811D911D42E0660F771F881F991FB9
:1001E0004A95D1F708958F929F92AF92BF92CF9286
:1001F000DF92EF92FF924B015C010E94CE006B01F7
:100200007C010E94CE006C197D098E099F09683E11
:10021000734081059105A8F321E0821A9108A10895
:10022000B10888EEC80E83E0D81EE11CF11C8114D1
:100230009104A104B10429F7FF90EF90DF90CF90D3
:10024000BF90AF909F908F90089508950895AF92BA
:10025000BF92CF92DF92EF92FF920F931F93CF93B3
:10026000DF936C017B018B01040F151FEB015E0115
:10027000AE18BF08C017D10759F06991D601ED91AA
:10028000FC910190F081E02DC6010995892B79F749
:10029000C501DF91CF911F910F91FF90EF90DF90FB
:1002A000CF90BF90AF900895FC01538D448D252FC2
:1002B00030E0842F90E0821B930B541710F0CF9600
:1002C000089501970895FC01918D828D981761F032
:1002D000A28DAE0FBF2FB11D5D968C91928D9F5F49
:1002E0009F73928F90E008958FEF9FEF0895FC0128
:1002F000918D828D981731F0828DE80FF11D858DDB
:1003000090E008958FEF9FEF0895FC01918D228D6D
:10031000892F90E0805C9F4F821B91098F739927F2
:1003200008958AE192E00E94850121E0892B09F479
:1003300020E0822F089580E090E0892B29F00E9430
:10034000910181110C9400000895FC01A48DA80F67
:10035000B92FB11DA35ABF4F2C91848D90E0019607
:100360008F739927848FA689B7892C93A089B18927
:100370008C91837080648C93938D848D981306C0C8
:100380000288F389E02D80818F7D80830895EF922C
:10039000FF920F931F93CF93DF93EC0181E0888F3F
:1003A0009B8D8C8D98131AC0E889F989808185FF0F
:1003B00015C09FB7F894EE89FF896083E889F989B1
:1003C00080818370806480839FBF81E090E0DF91B3
:1003D000CF911F910F91FF90EF900895F62E0B8D06
:1003E00010E00F5F1F4F0F731127E02E8C8D8E11C1
:1003F0000CC00FB607FCFACFE889F989808185FF28
:10040000F5CFCE010E94A501F1CFEB8DEC0FFD2FB2
:10041000F11DE35AFF4FF0829FB7F8940B8FEA89E2
:10042000FB8980818062CFCF682F8AE192E00C94B3
:10043000C701CF93DF93EC01888D8823B9F0AA8997
:10044000BB89E889F9898C9185FD03C0808186FD8F
:100450000DC00FB607FCF7CF8C9185FFF2CF8081DE
:1004600085FFEDCFCE010E94A501E9CFDF91CF91AD
:100470000895089520919601260F3327331F2132C6
:100480003105ECF42091DF01FC0190E080E02430A4
:1004900069F082E00895A09196012191AC014A583B
:1004A0005E4FA40FB52FB11D2C930196861798F3BC
:1004B00080919601680F6093960180E0089581E035
:1004C00008951092DF0181E08093DE011092B9015E
:1004D00061E082E10E94820061E083E10E9482008B
:1004E000E9EBF0E080818E7F808380818D7F808347
:1004F00088E48093B80085E48093BC000895CF938E
:10050000DF9391E0909375018823B9F0C091B80012
:10051000D091BA008091BC008A7B8093BC0060E0DF
:1005200082E10E94820060E083E10E9482000E94DA
:100530006102D093BA00C093B800DF91CF910895C3
:100540000895E0910E0280910D02E81730F4F0E07A
:10055000EB5AFE4F808190E008958FEF9FEF089552
:1005600090910E0280910D022FEF3FEF981748F403
:10057000E92FF0E0EB5AFE4F208130E09F5F90932F
:100580000E02C901089580910D0290910E02891BFF
:10059000990B0895CF92DF92EF92FF920F931F93E2
:1005A000CF93DF937C01CB018A012091E5012223C7
:1005B00089F0EB016B01C40ED51ECC15DD0569F089
:1005C0006991D701ED91FC910190F081E02DC70177
:1005D0000995F3CF642F0E943A02C801DF91CF91B1
:1005E0001F910F91FF90EF90DF90CF900895CF93E0
:1005F000DF931F92CDB7DEB769832091E5012223F7
:10060000F9F020910B02203258F021E030E0FC019B
:100610003383228390E080E00F90DF91CF910895A3
:1006200080910C02E82FF0E0EA51FE4F998190830F
:100630008F5F80930C0280930B0281E090E0ECCFFF
:1006400061E0CE0101960E943A02F7CFCF92DF928D
:10065000EF92FF920F931F93CF93DF93FC01C4811E
:1006600021E02093E501C093060210920C02109243
:100670000B028385682B87EB92E00E94F702D091F2
:100680000B02D13208F092C00E94CE006B017C01B7
:100690008091DF01811165C082E08093DF0181E0FC
:1006A0008093DE018FEF8093DD011092DC01D09307
:1006B000DB01A6EEB1E0EBEBF1E080E0D81385C002
:1006C0001092BA018091BA01CC0FC82BC093BA0125
:1006D0008091B901813009F07CC01092B9010E946B
:1006E000CE006B017C018091BA018093BB008091A8
:1006F000E1019091E201A091E301B091E401892B25
:100700008A2B8B2B99F00E94CE000091E101109171
:10071000E2012091E3013091E4016C197D098E0919
:100720009F090617170728073907E0F18091BC00D9
:1007300083FDD9CF85EC8093BC000E94CE006B0175
:100740007C018091DF01823009F445C08091DD0198
:100750008F3F61F18091DD01803241F18091DD01B7
:1007600025C08091E1019091E201A091E301B09157
:10077000E401892B8A2B8B2B09F48ACF0E94CE00AF
:100780000091E1011091E2012091E3013091E40137
:100790006C197D098E099F09061717072807390765
:1007A00008F076CF8091E0010E947F0210920C0247
:1007B00010920B021092E501DF91CF911F910F91E2
:1007C000FF90EF90DF90CF9008959D9191938F5F70
:1007D00075CF85EEB0CF8091E1019091E201A091BB
:1007E000E301B091E401892B8A2B8B2B09F4A9CF6B
:1007F0000E94CE000091E1011091E2012091E301FD
:100800003091E4016C197D098E099F0906171707BD
:100810002807390708F095CFC5CF90E080E008950C
:10082000FC0101900020E9F73197AF01481B590BFB
:10083000BC0183EC92E00C9427010F931F93CF939C
:100840008C01C62F0E9426036C2F6460C8010E9491
:1008500026036C2F6B7FC8010E94260383EC90E077
:100860000197F1F7CF911F910F9108950F931F9367
:10087000CF93DF938C01D62FC42F607F642B0E940F
:100880001D0480E1D89FB00111246C2BC801DF91B9
:10089000CF911F910F910C941D04CF93DF93CDB78F
:1008A000DEB728970FB6F894DEBF0FBECDBF98E035
:1008B000E0E0F1E0DE01119601900D929A95E1F7EA
:1008C0009091CB02981708F48FEF90E0880F991F52
:1008D00021E030E02C0F3D1F820F931FFC0160814F
:1008E000606840E083EC92E028960FB6F894DEBF93
:1008F0000FBECDBFDF91CF910C94360441E00E9432
:10090000360481E090E00895CF92DF92EF92FF925B
:100910000F931F93CF93DF93CDB7DEB7A1970FB699
:10092000F894DEBF0FBECDBF80E390E00E941402BA
:100930008AE192E00E948501892BD1F38AE192E05D
:100940000E946301182F809354018AE192E00E9473
:100950008501892BD1F38AE192E00E94630120E0B6
:10096000312F282B309353012093520181E00E94B4
:100970004D0488E391E00E941004209152013091CF
:10098000530150E040E019A28E010F5D1F4F8AE035
:10099000C82ED12CE12CF12CCA01B901A701960176
:1009A0000E94CF08605DF80162938F012115310527
:1009B0004105510589F7309761F001900020E9F772
:1009C0003197AF01401B510BB80183EC92E00E94BC
:1009D00027018BE391E00E941004A1960FB6F894D2
:1009E000DEBF0FBECDBFDF91CF911F910F91FF9062
:1009F000EF90DF90CF90089585ED8093BC008091BB
:100A0000E1019091E201A091E301B091E401079628
:100A1000A11DB11D23E0B695A795979587952A95B9
:100A2000D1F72091BC0024FD03C01092DF0108958E
:100A30004091E1015091E2016091E3017091E40184
:100A4000452B462B472B69F30097A105B10541F0D3
:100A50002AE22A95F1F700C00197A109B109E1CF77
:100A60008091E0010C947F021F920F920FB60F92BB
:100A700011242F933F938F939F93AF93BF938091B4
:100A8000120290911302A0911402B09115023091BC
:100A9000110223E0230F2D3758F50196A11DB11D3A
:100AA000209311028093120290931302A0931402D8
:100AB000B09315028091160290911702A09118022E
:100AC000B09119020196A11DB11D80931602909359
:100AD0001702A0931802B0931902BF91AF919F9192
:100AE0008F913F912F910F900FBE0F901F901895EF
:100AF00026E8230F0296A11DB11DD2CF1F920F929F
:100B00000FB60F9211242F933F934F935F936F93E0
:100B10007F938F939F93AF93BF93EF93FF938AE15C
:100B200092E00E94A501FF91EF91BF91AF919F913B
:100B30008F917F916F915F914F913F912F910F9086
:100B40000FBE0F901F9018951F920F920FB60F9225
:100B500011242F938F939F93EF93FF93E0912A0299
:100B6000F0912B028081E0913002F091310282FD00
:100B70001BC09081809133028F5F8F73209134026C
:100B8000821741F0E0913302F0E0E65EFD4F958F71
:100B900080933302FF91EF919F918F912F910F904E
:100BA0000FBE0F901F9018958081F4CF1F920F9267
:100BB0000FB60F9211242F933F934F935F936F9330
:100BC0007F938F939F93AF93BF93EF93FF93809106
:100BD000B900887F803609F44AC0F0F5883209F4FC
:100BE000A7C018F5803109F49BC0B8F4882309F434
:100BF000F9C0883009F494C0FF91EF91BF91AF9193
:100C00009F918F917F916F915F914F913F912F9124
:100C10000F900FBE0F901F901895883109F488C06F
:100C2000803251F78093DD0114C0803409F49DC0F7
:100C300040F48033B9F38833F9F68093DD0185EC15
:100C4000B0C0803509F485C0883509F496C0883471
:100C500099F60E94FC04D0CF883909F48CC038F58D
:100C6000883729F050F4883611F0803729F683E070
:100C70008093DF011092B80157C0883809F47BC017
:100C8000803919F0803809F0B7CF8091B8018032EF
:100C900008F071C0E091B80181E08E0F8093B80137
:100CA0008091BB00F0E0E856FE4F80833DC0803B62
:100CB00039F0E0F4803A09F479C0883A09F09CCF21
:100CC00084E08093DF011092970110929601E091E9
:100CD0000902F0910A0209958091960181110FC0D5
:100CE00081E0809396011092760109C0803C09F45E
:100CF000A6CF883C09F4A3CF883B09F07DCFE091D3
:100D0000970181E08E0F80939701F0E0EA58FE4F43
:100D100080818093BB00909197018091960129C0BA
:100D20008091BA018093BB0085EC8093BC0064CFB6
:100D30009091DC018091DB01981758F5E091DC017E
:100D400081E08E0F8093DC01F0E0E554FE4F80815E
:100D5000E9CFE091DC0181E08E0F8093DC0180918E
:100D6000BB00F0E0E554FE4F80839091DC01809160
:100D7000DB019817C8F285E8D8CFE091DC0181E06B
:100D80008E0F8093DC018091BB00F0E0E554FE4FB4
:100D900080838091DE0181115CCF81E08093B90175
:100DA00084EA8093BC001092DF0126CF85EC80930B
:100DB000BC001092DF018091B801803230F4E091E4
:100DC000B801F0E0E856FE4F10826091B80170E083
:100DD000E0910702F091080288E991E009951092EC
:100DE000B8010ACF1092DD0134CFEAE1F2E01382BC
:100DF000128288EE93E0A0E0B0E084839583A6831E
:100E0000B7832CE031E03183208325EC30E0358757
:100E1000248724EC30E03787268720EC30E0318BC4
:100E2000208B21EC30E0338B228B22EC30E0358BB1
:100E3000248B26EC30E0378B268B118E128E138E8E
:100E4000148EE7EBF2E01382128284839583A683EB
:100E5000B7838EE191E091838083E3ECF2E013822B
:100E6000128280E391E09183808387E2848380E132
:100E7000818782E0828713860895789484B58260A2
:100E800084BD84B5816084BD85B5826085BD85B52E
:100E9000816085BD80916E00816080936E001092AC
:100EA0008100809181008260809381008091810027
:100EB00081608093810080918000816080938000B8
:100EC0008091B10084608093B1008091B000816016
:100ED0008093B00080917A00846080937A00809142
:100EE0007A00826080937A0080917A00816080939A
:100EF0007A0080917A00806880937A001092C10015
:100F0000E0912A02F0912B0282E08083E091260298
:100F1000F09127021082E0912802F091290287E6E1
:100F2000808310923202E0912E02F0912F0286E02F
:100F30008083E0912C02F0912D028081806180837A
:100F4000E0912C02F0912D02808188608083E091F5
:100F50002C02F0912D02808180688083E0912C0228
:100F6000F0912D0280818F7D808310920E0210926D
:100F70000D0210920C0210920B020E94610285E297
:100F800091E090930A028093090286E291E09093A7
:100F90000802809307021092C8028091CD0282302D
:100FA00018F098E09093C8028093CB0262E370E05F
:100FB00080E090E00E94F3006091CE0283EC92E02A
:100FC0000E94260368EE73E080E090E00E94F30048
:100FD00060E383EC92E00E941D04CBE4D6E4CE01F2
:100FE0000197F1F760E383EC92E00E941D042197E2
:100FF000F1F760E383EC92E00E941D0483E592E048
:101000000197F1F760E283EC92E00E941D04609189
:10101000C802606240E083EC92E00E94360484E003
:101020008093C90240E06CE083EC92E00E943604B9
:1010300040E061E083EC92E00E943604CBE3DFE124
:10104000CE010197F1F782E08093CA0240E066E0AA
:1010500083EC92E00E94360440E062E083EC92E090
:101060000E943604CE010197F1F788E08093CE020A
:1010700060E083EC92E00E94260340E061E083ECB4
:1010800092E00E943604CE010197F1F740E062E061
:1010900083EC92E00E9436042197F1F78FEF90E005
:1010A0000E9414028FEF90E00E9414028FEF90E0F4
:1010B0000E941402C0E0D0E090E080E00E941402A0
:1010C00081E090E00E94140281E090E00E9414020E
:1010D00090E080E00E94140280E00E944D048FE3C3
:1010E00091E00E94100480E190E00E9414028AE1E5
:1010F00092E00E948501892BD1F38AE192E00E945F
:1011000063019093100280930F020E9484048091E7
:101110000F0290911002892B31F364E670E080E0B9
:1011200090E00E94F30081E090E00E94140281E0D0
:1011300090E00E94140290E080E00E94140290E08F
:1011400080E00E94140280E00E944D0488E491E057
:101150000E94100481E190E00E9414028AE192E072
:101160000E948501892BD1F38AE192E00E946301FC
:101170009093100280930F020E94840480910F02CA
:1011800090911002019731F3209709F495CF0E94B6
:101190009101882309F490CF0E9400008DCFA1E235
:1011A0001A2EAA1BBB1BFD010DC0AA1FBB1FEE1FE1
:1011B000FF1FA217B307E407F50720F0A21BB30B2C
:1011C000E40BF50B661F771F881F991F1A9469F7A8
:1011D00060957095809590959B01AC01BD01CF0104
:1011E0000895EE0FFF1F0590F491E02D0994F894F7
:1011F000FFCF000040001400540000000000C701B1
:1012000027015401190285016301770100000000E4
:10121000F702CA020D04A002C302B002A10200003C
:1012200000007E0427010D043902763D006C202069
:101230000046696C6C696E672000456D7074796951
:041240006E670000D5
:107E0000112484B714BE81FFF0D085E080938100F7
:107E100082E08093C00088E18093C10086E0809377
:107E2000C20080E18093C4008EE0C9D0259A86E02C
:107E300020E33CEF91E0309385002093840096BBD3
:107E4000B09BFECF1D9AA8958150A9F7CC24DD24C4
:107E500088248394B5E0AB2EA1E19A2EF3E0BF2EE7
:107E6000A2D0813461F49FD0082FAFD0023811F036
:107E7000013811F484E001C083E08DD089C08234E0
:107E800011F484E103C0853419F485E0A6D080C0E4
:107E9000853579F488D0E82EFF2485D0082F10E0AE
:107EA000102F00270E291F29000F111F8ED06801E7
:107EB0006FC0863521F484E090D080E0DECF843638
:107EC00009F040C070D06FD0082F6DD080E0C81688
:107ED00080E7D80618F4F601B7BEE895C0E0D1E017
:107EE00062D089930C17E1F7F0E0CF16F0E7DF06D8
:107EF00018F0F601B7BEE89568D007B600FCFDCFD4
:107F0000A601A0E0B1E02C9130E011968C91119780
:107F100090E0982F8827822B932B1296FA010C0160
:107F200087BEE89511244E5F5F4FF1E0A038BF0790
:107F300051F7F601A7BEE89507B600FCFDCF97BE46
:107F4000E89526C08437B1F42ED02DD0F82E2BD052
:107F50003CD0F601EF2C8F010F5F1F4F84911BD097
:107F6000EA94F801C1F70894C11CD11CFA94CF0C13
:107F7000D11C0EC0853739F428D08EE10CD085E9AC
:107F80000AD08FE07ACF813511F488E018D01DD067
:107F900080E101D065CF982F8091C00085FFFCCF94
:107FA0009093C60008958091C00087FFFCCF809118
:107FB000C00084FD01C0A8958091C6000895E0E648
:107FC000F0E098E1908380830895EDDF803219F02E
:107FD00088E0F5DFFFCF84E1DECF1F93182FE3DFCA
:107FE0001150E9F7F2DF1F91089580E0E8DFEE27F6
:047FF000FF270994CA
:027FFE00040479
:00000001FF
