:020000040000FA
:100000000C94D5000C94FD000C94FD000C94FD00A4
:100010000C94FD000C94FD000C94FD000C94FD006C
:100020000C94FD000C94FD000C94FD000C94FD005C
:100030000C94FD000C94FD000C94FD000C94FD004C
:100040000C947A040C94FD000C94FD000C94FD00BB
:100050000C94FD000C94FD000C94FD000C94FD002C
:100060000C94C4040C94FD0000407A10F35A00A0D4
:10007000724E18090010A5D4E80000E87648170071
:1000800000E40B54020000CA9A3B000000E1F505B1
:10009000000080969800000040420F000000A086FB
:1000A00001000000102700000000E803000000002D
:1000B0006400000000000A000000000001000000D1
:1000C00000002C76D888DC674F0823DFC1DFAE59EB
:1000D000E1B1B796E5E3E453C63AE651997696E87E
:1000E000E6C28426EB898C9B62ED407C6FFCEFBC02
:1000F0009C9F40F2BAA56FA5F490055A2AF75C932D
:100100006B6CF9676DC11BFCE0E40D47FEF520E662
:10011000B500D0ED902E0300943577050080841E45
:10012000080000204E0A000000C80C333333330FA0
:10013000986E12831141EF8D2114893BE65516CF3D
:10014000FEE6DB18D1844B381BF77C1D901DA4BB49
:10015000E424203284725E228100C9F124ECA1E5FE
:100160003D2700000000250028002B0004040404A3
:100170000404040402020202020203030303030351
:10018000010204081020408001020408102001022E
:10019000040810200000000800020100000304070A
:1001A0000000000000000000E30511241FBECFEF97
:1001B000D8E0DEBFCDBF22E0AAE3B1E001C01D92CE
:1001C000A931B207E1F711E0A0E0B1E0E2E9FBE11B
:1001D00002C005900D92AA33B107D9F710E0C5ED22
:1001E000D0E004C02197FE010E94CF0BC43DD1078F
:1001F000C9F70E9403060C94C70D0C94000090E010
:10020000FC01EC56FE4F2491FC01E058FE4F349166
:10021000FC01E459FE4FE491EE23C9F0222339F0AA
:10022000233001F1A8F4213019F1223029F1F0E056
:10023000EE0FFF1FEE59FE4FA591B4918FB7F894C2
:10024000EC91611126C030953E233C938FBF0895F9
:100250002730A9F02830C9F0243049F78091800078
:100260008F7D03C0809180008F7780938000DFCFE7
:1002700084B58F7784BDDBCF84B58F7DFBCF809134
:10028000B0008F778093B000D2CF8091B0008F7D87
:10029000F9CF3E2BDACF3FB7F8948091F9019091D6
:1002A000FA01A091FB01B091FC0126B5A89B05C005
:1002B0002F3F19F00196A11DB11D3FBFBA2FA92FE5
:1002C000982F8827BC01CD01620F711D811D911DE2
:1002D00042E0660F771F881F991F4A95D1F708954E
:1002E0008F929F92AF92BF92CF92DF92EF92FF9246
:1002F0004B015C010E944B016B017C010E944B0190
:100300006C197D098E099F09683E7340810591052E
:10031000A8F321E0821A9108A108B10888EEC80E5E
:1003200083E0D81EE11CF11C81149104A104B104E6
:1003300029F7FF90EF90DF90CF90BF90AF909F9004
:100340008F900895089508950895AF92BF92CF9227
:10035000DF92EF92FF920F931F93CF93DF936C0185
:100360007B018B01040F151FEB015E01AE18BF0866
:10037000C017D10759F06991D601ED91FC91019018
:10038000F081E02DC6010995892B79F7C501DF9130
:10039000CF911F910F91FF90EF90DF90CF90BF9082
:1003A000AF90089520917B01260F3327331F213210
:1003B0003105ECF42091C401FC0190E080E0243090
:1003C00069F082E00895A0917B012191AC01455A2A
:1003D0005E4FA40FB52FB11D2C930196861798F38D
:1003E00080917B01680F60937B0180E0089581E03C
:1003F00008951092C40181E08093C30110929E0180
:1004000061E082E10E94FF0061E083E10E94FF0061
:10041000E9EBF0E080818E7F808380818D7F808317
:1004200088E48093B80085E48093BC000895CF935E
:10043000DF9391E090935A018823B9F0C091B800FE
:10044000D091BA008091BC008A7B8093BC0060E0B0
:1004500082E10E94FF0060E083E10E94FF000E94B1
:10046000F901D093BA00C093B800DF91CF910895FD
:100470000895E091F3018091F201E81730F4F0E083
:10048000E65CFE4F808190E008958FEF9FEF089526
:100490009091F3018091F2012FEF3FEF981748F40C
:1004A000E92FF0E0E65CFE4F208130E09F5F909303
:1004B000F301C90108958091F2019091F301891B24
:1004C000990B0895CF92DF92EF92FF920F931F93B3
:1004D000CF93DF937C01CB018A012091CA012223B3
:1004E00089F0EB016B01C40ED51ECC15DD0569F05A
:1004F0006991D701ED91FC910190F081E02DC70148
:100500000995F3CF642F0E94D201C801DF91CF91EA
:100510001F910F91FF90EF90DF90CF900895CF93B0
:10052000DF931F92CDB7DEB769832091CA012223E2
:10053000F9F02091F001203258F021E030E0FC0188
:100540003383228390E080E00F90DF91CF91089574
:100550008091F101E82FF0E0E553FE4F99819083FF
:100560008F5F8093F1018093F00181E090E0ECCF08
:1005700061E0CE0101960E94D201F7CFCF92DF92C7
:10058000EF92FF920F931F93CF93DF93FC01C481EF
:1005900021E02093CA01C093EB011092F101109267
:1005A000F0018385682B8DEF91E00E948F02D0913E
:1005B000F001D13208F092C00E944B016B017C0126
:1005C0008091C401811165C082E08093C40181E003
:1005D0008093C3018FEF8093C2011092C101D09329
:1005E000C001ABECB1E0E0EAF1E080E0D81385C0F7
:1005F00010929F0180919F01CC0FC82BC0939F0147
:1006000080919E01813009F07CC010929E010E9471
:100610004B016B017C0180919F018093BB00809115
:10062000C6019091C701A091C801B091C901892B61
:100630008A2B8B2B99F00E944B010091C6011091DF
:10064000C7012091C8013091C9016C197D098E093B
:100650009F090617170728073907E0F18091BC00AA
:1006600083FDD9CF85EC8093BC000E944B016B01C8
:100670007C018091C401823009F445C08091C2019F
:100680008F3F61F18091C201803241F18091C201BE
:1006900025C08091C6019091C701A091C801B09179
:1006A000C901892B8A2B8B2B09F48ACF0E944B011D
:1006B0000091C6011091C7012091C8013091C90174
:1006C0006C197D098E099F09061717072807390736
:1006D00008F076CF8091C5010E9417021092F101B7
:1006E0001092F0011092CA01DF91CF911F910F91EA
:1006F000FF90EF90DF90CF9008959D9191938F5F41
:1007000075CF85EEB0CF8091C6019091C701A091C1
:10071000C801B091C901892B8A2B8B2B09F4A9CF71
:100720000E944B010091C6011091C7012091C801A0
:100730003091C9016C197D098E099F0906171707A9
:100740002807390708F095CFC5CF90E080E00895DD
:100750000F931F93CF93DF93EC01888199810097CA
:1007600059F02A813B812617370730F081E0DF916D
:10077000CF911F910F9108958B016F5F7F4F0E9462
:10078000FA0C009759F0998388831B830A832C8184
:100790003D81232B59F7FC011082E8CF80E0E7CFA1
:1007A0000F931F93CF938C01C62F0E94BE026C2F14
:1007B0006460C8010E94BE026C2F6B7FC8010E945A
:1007C000BE0283EC90E00197F1F7CF911F910F915A
:1007D00008950F931F93CF93DF938C01D62FC42FCF
:1007E000607F642B0E94D00380E1D89FB001112468
:1007F0006C2BC801DF91CF911F910F910C94D00306
:10080000CF93DF93CDB7DEB728970FB6F894DEBF4E
:100810000FBECDBF98E0E6E0F1E0DE011196019059
:100820000D929A95E1F790911102981708F48FEFC5
:1008300090E0880F991F21E030E02C0F3D1F820FC0
:10084000931FFC016081606840E089E092E0289697
:100850000FB6F894DEBF0FBECDBFDF91CF910C94E1
:10086000E90340E061E089E092E00E94E9038BE364
:100870009FE10197F1F7089541E00E94E90381E0CB
:1008800090E0089585ED8093BC008091C601909121
:10089000C701A091C801B091C9010796A11DB11D62
:1008A00023E0B695A795979587952A95D1F720913E
:1008B000BC0024FD03C01092C40108954091C601FC
:1008C0005091C7016091C8017091C901452B462B19
:1008D000472B69F30097A105B10541F02AE22A955B
:1008E000F1F700C00197A109B109E1CF8091C501DD
:1008F0000C9417021F920F920FB60F9211242F9390
:100900003F938F939F93AF93BF938091F501909105
:10091000F601A091F701B091F8013091F40123E0C4
:10092000230F2D3758F50196A11DB11D2093F40119
:100930008093F5019093F601A093F701B093F8012D
:100940008091F9019091FA01A091FB01B091FC0115
:100950000196A11DB11D8093F9019093FA01A09316
:10096000FB01B093FC01BF91AF919F918F913F919B
:100970002F910F900FBE0F901F90189526E8230F10
:100980000296A11DB11DD2CF1F920F920FB60F92EA
:1009900011242F933F934F935F936F937F938F9384
:1009A0009F93AF93BF93EF93FF938091B900887F9C
:1009B000803609F44AC0F0F5883209F4A7C018F56A
:1009C000803109F49BC0B8F4882309F4F9C0883059
:1009D00009F494C0FF91EF91BF91AF919F918F91D6
:1009E0007F916F915F914F913F912F910F900FBE2B
:1009F0000F901F901895883109F488C0803251F704
:100A00008093C20114C0803409F49DC040F4803347
:100A1000B9F38833F9F68093C20185ECB0C0803514
:100A200009F485C0883509F496C0883499F60E9487
:100A30004204D0CF883909F48CC038F5883729F0C2
:100A400050F4883611F0803729F683E08093C40192
:100A500010929D0157C0883809F47BC0803919F085
:100A6000803809F0B7CF80919D01803208F071C0C5
:100A7000E0919D0181E08E0F80939D018091BB00EC
:100A8000F0E0E358FE4F80833DC0803B39F0E0F456
:100A9000803A09F479C0883A09F09CCF84E08093C9
:100AA000C40110927C0110927B01E091EE01F09163
:100AB000EF01099580917B0181110FC081E0809346
:100AC0007B0110925B0109C0803C09F4A6CF883CF1
:100AD00009F4A3CF883B09F07DCFE0917C0181E050
:100AE0008E0F80937C01F0E0E55AFE4F8081809369
:100AF000BB0090917C0180917B0129C080919F0176
:100B00008093BB0085EC8093BC0064CF9091C101C1
:100B10008091C001981758F5E091C10181E08E0FD6
:100B20008093C101F0E0E056FE4F8081E9CFE09173
:100B3000C10181E08E0F8093C1018091BB00F0E084
:100B4000E056FE4F80839091C1018091C0019817BB
:100B5000C8F285E8D8CFE091C10181E08E0F809383
:100B6000C1018091BB00F0E0E056FE4F8083809190
:100B7000C30181115CCF81E080939E0184EA809360
:100B8000BC001092C40126CF85EC8093BC0010926B
:100B9000C40180919D01803230F4E0919D01F0E02C
:100BA000E358FE4F108260919D0170E0E091EC01EE
:100BB000F091ED018DE791E0099510929D010ACF2A
:100BC0001092C20134CFEDEFF1E01382128288EE71
:100BD00093E0A0E0B0E084839583A683B78382E1AD
:100BE00091E091838083E9E0F2E01382128284E253
:100BF00091E09183808387E2848380E1818782E032
:100C0000828713860895CF93DF93CDB7DEB7AD9774
:100C10000FB6F894DEBF0FBECDBF789484B5826066
:100C200084BD84B5816084BD85B5826085BD85B590
:100C3000816085BD80916E00816080936E0010920E
:100C40008100809181008260809381008091810089
:100C5000816080938100809180008160809380001A
:100C60008091B10084608093B1008091B000816078
:100C70008093B00080917A00846080937A008091A4
:100C80007A00826080937A0080917A0081608093FC
:100C90007A0080917A00806880937A001092C10077
:100CA0001092F3011092F2011092F1011092F001F2
:100CB0000E94F90182EA91E09093EF018093EE01A6
:100CC00083EA91E09093ED018093EC0110920E0283
:100CD00080911302823018F098E090930E02809376
:100CE000110262E370E080E090E00E947001609188
:100CF000140289E092E00E94BE0268EE73E080E098
:100D000090E00E94700160E389E092E00E94D003CD
:100D10000BE416E4C8010197F1F760E389E092E083
:100D20000E94D003C8010197F1F760E389E092E0E7
:100D30000E94D00383E592E00197F1F760E289E039
:100D400092E00E94D00360910E02606240E089E070
:100D500092E00E94E90384E080930F0240E06CE09F
:100D600089E092E00E94E9030E94310482E08093CE
:100D7000100240E066E089E092E00E94E90340E072
:100D800062E089E092E00E94E9030BE31FE1C80101
:100D90000197F1F788E08093140260E089E092E027
:100DA0000E94BE020E94310440E062E089E092E0CD
:100DB0000E94E903C8010197F1F780E00E94000456
:100DC00043E050E06CE271E089E092E00E94A5010E
:100DD00064E670E080E090E00E94700180E4B82E4C
:100DE00090E0C92E90E0D92E19A618A61BA61AA627
:100DF0001DA61CA670E060E0CE0188960E94A803A4
:100E000028A539A58111AAC02115310519F0C901FC
:100E10000E94710C19A618A61DA61CA61BA61AA630
:100E2000B0927C0080917A00806480937A008091F7
:100E30007A0086FDFCCF60917800709179001BA24A
:100E40001AA21DA21CA21FA21EA2072E000C880B14
:100E5000990B0E942D0A20E030E040EA50E40E9405
:100E6000680A20E030E040E85AE30E94680A2AE07D
:100E700037ED43E25CE30E945D0B8E010F5F1F4F75
:100E800022E044E00E94D6077C01009709F475C077
:100E9000FC0101900020E9F731978F01081B190B25
:100EA000B801CE0182960E94A8032AA13BA181111C
:100EB0005DC02115310519F0C9010E94710C1BA2FA
:100EC0001AA21FA21EA21DA21CA288A599A5009766
:100ED00009F45BC06AA17BA16115710509F453C0D7
:100EE0004AA55BA52EA13FA14217530708F44BC0AA
:100EF0000E94C00D8EA19FA19DA78CA71FA21EA21C
:100F00008AA19BA1009711F00E94710C0E943104EC
:100F100081E00E9400044CA55DA568A579A589E043
:100F200092E00E94A50149E050E060E371E089E0B1
:100F300092E00E94A50168EE73E080E090E00E94DC
:100F4000700188A599A5009711F00E94710CC11439
:100F5000D10409F449CF0E94000046CF1DA61CA66B
:100F60006FE271E0C9010E94C00D5ACF1FA30EA30A
:100F7000B701C9010E94C00DA8CF8AA19BA100970B
:100F800009F09BCF9CCF0E94710C8AA19BA199A7CD
:100F900088A78CA19DA19BA78AA78EA19FA19DA791
:100FA0008CA71BA21AA21DA21CA2A8CFEF920F937E
:100FB0001F93CF93DF93E80134E047FD34E1042E23
:100FC000000C550B57FF03C0519541955109E32E75
:100FD000022F242FAE010E94F407CE01DF91CF91A2
:100FE0001F910F91EF900895A9E0B0E0EAEFF7E0CC
:100FF0000C942C0B6A01F22EB02E102FFBE3AF2EB7
:10100000A01608F41BE31F5F012F27E0AE014F5F1E
:101010005F4F0E945309BC018981982F99709130CC
:1010200009F43FC09BE2E1FC04C09E2D9170E0FCFE
:101030003AC05E2D5071E82FE87083FF46C084E00F
:10104000911101C083E0EF2DE81B8F1508F0E0E05F
:10105000D6018E2F20E2552351F1992329F0D60194
:101060009C93C60101966C0196012D5F3F4FE2FEF5
:1010700024C08EE4D6018C9391E411969C93119731
:1010800012968C93D9018E2F90E281111BC0E20F32
:10109000F32FF11D10828EEF9FEF2996ECE00C9458
:1010A000480B9DE2C6CF90E2C4CF2D9381508111B1
:1010B000FCCFCE0ED11CE0E0D0CF8EE6D6018C93D3
:1010C00091E6DBCF9D938150E0CF482F447082FFA3
:1010D0003DC084E0911101C083E08F1510F4EF2D25
:1010E000E81BD6018E2F20E2552309F1992329F020
:1010F000D6019C93C60101966C0196012D5F3F4F6E
:10110000E2FE1BC089E4D6018C938EE411968C9389
:10111000119786E412968C93D9018E2F90E2882342
:1011200009F4B5CF9D938150FACF2D938150811151
:10113000FCCFCE0ED11CE0E0D9CF89E6D6018C934E
:101140008EE611968C93119786E6E4CF9B0177FF8C
:1011500002C030E020E0A1E0B0E0911102C0B0E0B8
:10116000A0E0F9013196AE0FBF1F8B2C912CBB2054
:1011700009F461C05401EFEFAE1ABE0AAA0DBB1DFF
:10118000FA161B0619F014F04F2D4A1B511188C096
:10119000E3FC59C07601A42FB0E2A1114FC0C40EE8
:1011A000D11C992309F45BC040E0D6011196F601E9
:1011B00090836D01552309F448C0012F060F9A81D1
:1011C000582F507184FF03C0913309F40150101659
:1011D0000CF047C0093008F008E0EEE2FE2E5B019B
:1011E000A01AB10885019194819491082F3F32078C
:1011F00029F4D601FC92F60131966F01621773074C
:1012000094F1021713077CF5DB01A21BB30BAA2490
:10121000A394B12CAC0EBD1EAA0DBB1D11968C91D2
:1012200021503109D601119628153905F4F0F6013F
:1012300080836D01DBCFB12CA12CA0CFF701B1933E
:101240007F01A150AACF9111B0CFD601942F50E3C6
:1012500002C05D9391509111FCCFC40ED11C40E0AF
:10126000ACCF01E0BACF80E3DBCF6217730731F474
:10127000963388F4953311F4552369F0F601808391
:10128000FD01842F90E2811108C0A40FB11D1C92B2
:1012900090E080E002CF81E3F1CF91938150F3CFD2
:1012A000911183CF8ACF283008F027E03327DA0165
:1012B000990F311D87FD916000966105710539F424
:1012C00032602E5F3D9330E32A95E1F708959F3F0A
:1012D00030F080387105610509F03C5F3C5F3D935B
:1012E000913008F08068911DDF93CF931F930F9387
:1012F000FF92EF92192F987F9695E92F96959695E4
:10130000E90FFF27EE53FF4F99273327EE24FF24E1
:10131000A701E70105900894079428F4360FE71E0B
:10132000F81E491F511D660F771F881F991F0694CD
:10133000A1F70590079428F4E70EF81E491F561FE1
:10134000C11D770F881F991F661F0694A1F705908E
:10135000079428F4F80E491F561FC71FD11D880F88
:10136000991F661F771F0694A1F70590079420F434
:10137000490F561FC71FD81F990F661F771F881F59
:101380000694A9F784911095177041F0D695C795EA
:1013900057954795F794E7941A95C1F7E8E6F0E07A
:1013A00068941590159135916591959105907FE21E
:1013B0007395E118F10A430B560BC90BD009C0F71E
:1013C000E10CF11E431F561FC91FD01D7EF4703360
:1013D00011F48A95E6CFE894015030F0080F0AF432
:1013E0000027021708F4202F2395022F7A3328F0C4
:1013F00079E37D932A95E9F710C07D932A9589F6C4
:10140000069497956795379517951794E118F10A03
:10141000430B560BC90BD00998F023957E91739519
:101420007A3308F070E37C932013B8F77E917061F3
:101430007D9330F0839571E37D9370E32A95E1F716
:101440001124EF90FF900F911F91CF91DF91992779
:1014500087FD90950895E89409C097FB3EF4909518
:101460008095709561957F4F8F4F9F4F9923A9F07D
:10147000F92F96E9BB279395F6958795779567950C
:10148000B795F111F8CFFAF4BB0F11F460FF1BC050
:101490006F5F7F4F8F4F9F4F16C0882311F096E9E3
:1014A00011C0772321F09EE8872F762F05C0662391
:1014B00071F096E8862F70E060E02AF09A95660F4A
:1014C000771F881FDAF7880F9695879597F9089503
:1014D0000E947B0A0C94EC0A0E94DE0A38F00E94FB
:1014E000E50A20F0952311F00C94D50A0C94DB0A40
:1014F00011240C94200B0E94FD0A70F3959FC1F3F8
:10150000950F50E0551F629FF001729FBB27F00DB1
:10151000B11D639FAA27F00DB11DAA1F649F662706
:10152000B00DA11D661F829F2227B00DA11D621F55
:10153000739FB00DA11D621F839FA00D611D221F0F
:10154000749F3327A00D611D231F849F600D211DF3
:10155000822F762F6A2F11249F5750409AF0F1F076
:1015600088234AF0EE0FFF1FBB1F661F771F881FDF
:1015700091505040A9F79E3F510580F00C94D50A38
:101580000C94200B5F3FE4F3983ED4F38695779557
:101590006795B795F795E7959F5FC1F7FE2B880F85
:1015A000911D9695879597F9089597F99F6780E81B
:1015B00070E060E008959FEF80EC089500240A94A5
:1015C0001616170618060906089500240A9412161E
:1015D0001306140605060895092E0394000C11F451
:1015E000882352F0BB0F40F4BF2B11F460FF04C0FE
:1015F0006F5F7F4F8F4F9F4F089557FD9058440F57
:10160000551F59F05F3F71F04795880F97FB991F61
:1016100061F09F3F79F0879508951216130614061E
:10162000551FF2CF4695F1DF08C0161617061806AB
:10163000991FF1CF86957105610508940895E89486
:10164000BB2766277727CB0197F908952F923F9202
:101650004F925F926F927F928F929F92AF92BF92C2
:10166000CF92DF92EF92FF920F931F93CF93DF936E
:10167000CDB7DEB7CA1BDB0B0FB6F894DEBF0FBECB
:10168000CDBF09942A88398848885F846E847D8418
:101690008C849B84AA84B984C884DF80EE80FD801A
:1016A0000C811B81AA81B981CE0FD11D0FB6F89490
:1016B000DEBF0FBECDBFED0108950E94710B0C94EB
:1016C000EC0A0E94E50A58F00E94DE0A40F029F474
:1016D0005F3F29F00C94D50A51110C94200B0C9407
:1016E000DB0A0E94FD0A68F39923B1F3552391F3B5
:1016F000951B550BBB27AA2762177307840738F081
:101700009F5F5F4F220F331F441FAA1FA9F335D0DD
:101710000E2E3AF0E0E832D091505040E695001C91
:10172000CAF72BD0FE2F29D0660F771F881FBB1F4B
:10173000261737074807AB07B0E809F0BB0B802D29
:10174000BF01FF2793585F4F3AF09E3F510578F055
:101750000C94D50A0C94200B5F3FE4F3983ED4F32D
:10176000869577956795B795F7959F5FC9F7880F29
:10177000911D9695879597F90895E1E0660F771F7B
:10178000881FBB1F621773078407BA0720F0621B0C
:10179000730B840BBA0BEE1F88F7E0950895EE0FDC
:1017A000FF1F0590F491E02D09940F931F93CF93A1
:1017B000DF938230910510F482E090E0E09117020F
:1017C000F091180230E020E0B0E0A0E0309799F40A
:1017D0002115310509F44AC0281B390B2430310585
:1017E000D8F58A819B816115710589F1FB0193838D
:1017F0008283FE0111C0408151810281138148170B
:101800005907E0F04817590799F4109761F01296BC
:101810000C93129713961C933296CF01DF91CF91C0
:101820001F910F9108950093170210931802F4CF9F
:101830002115310551F04217530738F0A901DB019A
:101840009A01BD01DF01F801C1CFEF01F9CF9093FB
:10185000180280931702CDCFFE01E20FF31F819390
:1018600091932250310939832883D7CF20911502D3
:1018700030911602232B41F4209102013091030193
:10188000309316022093150220910001309101013E
:101890002115310541F42DB73EB740910401509117
:1018A0000501241B350BE0911502F0911602E21799
:1018B000F307A0F42E1B3F0B2817390778F0AC0173
:1018C0004E5F5F4F2417350748F04E0F5F1F509350
:1018D000160240931502819391939FCFF0E0E0E0D0
:1018E0009CCFCF93DF930097E9F0FC0132971382EE
:1018F0001282A0911702B0911802ED0130E020E0B1
:101900001097A1F420813181820F931F209115023D
:10191000309116022817390709F061C0F0931602BA
:10192000E0931502DF91CF910895EA01CE17DF070A
:10193000E8F54A815B819E0141155105B1F7E90146
:10194000FB83EA8349915991C40FD51FEC17FD071A
:1019500061F4808191810296840F951FE90199833A
:101960008883828193819B838A83F0E0E0E01296F2
:101970008D919C9113970097B9F52D913C911197FA
:10198000CD010296820F931F20911502309116020D
:101990002817390739F6309751F51092180210922E
:1019A0001702B0931602A0931502BCCFD383C28353
:1019B00040815181840F951FC817D90761F44E5F8C
:1019C0005F4F88819981480F591F518340838A81D5
:1019D0009B81938382832115310509F0B0CFF09369
:1019E0001802E09317029ECFFD01DC01C0CF1382E5
:1019F0001282D7CFB0E0A0E0E0E0FDE00C94280B2D
:101A00008C01009751F4CB010E94D50B8C01C801C9
:101A1000CDB7DEB7E0E10C94440BFC01E60FF71FF5
:101A20009C0122503109E217F30708F49DC0D90147
:101A3000CD91DC911197C617D70798F0C530D10525
:101A400030F3CE0104978617970708F3C61BD70B10
:101A50002297C193D1936D937C93CF010E94710C17
:101A6000D6CF5B01AC1ABD0A4C018C0E9D1EA09115
:101A70001702B0911802512C412CF12CE12C109737
:101A800031F580911502909116028815990509F09B
:101A90005CC04616570608F058C08091000190912E
:101AA0000101009741F48DB79EB740910401509118
:101AB0000501841B950BE817F90708F055C0F09352
:101AC0001602E0931502F90171836083A0CF8D9116
:101AD0009C91119712966C90129713967C90139785
:101AE000A815B90559F56C0142E0C40ED11CCA1401
:101AF000DB0420F1AC014A195B09DA011296159753
:101B000080F06282738251834083D9016D937C930C
:101B1000E114F10471F0D7011396FC93EE93129740
:101B200076CF22968C0F9D1FF90191838083F3015C
:101B3000EFCFF0931802E093170269CF48165906C9
:101B400008F42C017D01D3019ACFCB010E94D50B63
:101B50007C01009749F0AE01B8010E94B70DC801A1
:101B60000E94710C870153CF10E000E050CFFB01C1
:101B7000DC0102C001900D9241505040D8F7089509
:101B8000FB01DC0101900D920020E1F70895F8942B
:101B9000FFCF000019028000000040001400540034
:101BA000000000008F026202A50338025B024802B7
:101BB0003902000000003C04A501A503A401414432
:0C1BC000430020206465672063656C0012
:107E0000112484B714BE81FFF0D085E080938100F7
:107E100082E08093C00088E18093C10086E0809377
:107E2000C20080E18093C4008EE0C9D0259A86E02C
:107E300020E33CEF91E0309385002093840096BBD3
:107E4000B09BFECF1D9AA8958150A9F7CC24DD24C4
:107E500088248394B5E0AB2EA1E19A2EF3E0BF2EE7
:107E6000A2D0813461F49FD0082FAFD0023811F036
:107E7000013811F484E001C083E08DD089C08234E0
:107E800011F484E103C0853419F485E0A6D080C0E4
:107E9000853579F488D0E82EFF2485D0082F10E0AE
:107EA000102F00270E291F29000F111F8ED06801E7
:107EB0006FC0863521F484E090D080E0DECF843638
:107EC00009F040C070D06FD0082F6DD080E0C81688
:107ED00080E7D80618F4F601B7BEE895C0E0D1E017
:107EE00062D089930C17E1F7F0E0CF16F0E7DF06D8
:107EF00018F0F601B7BEE89568D007B600FCFDCFD4
:107F0000A601A0E0B1E02C9130E011968C91119780
:107F100090E0982F8827822B932B1296FA010C0160
:107F200087BEE89511244E5F5F4FF1E0A038BF0790
:107F300051F7F601A7BEE89507B600FCFDCF97BE46
:107F4000E89526C08437B1F42ED02DD0F82E2BD052
:107F50003CD0F601EF2C8F010F5F1F4F84911BD097
:107F6000EA94F801C1F70894C11CD11CFA94CF0C13
:107F7000D11C0EC0853739F428D08EE10CD085E9AC
:107F80000AD08FE07ACF813511F488E018D01DD067
:107F900080E101D065CF982F8091C00085FFFCCF94
:107FA0009093C60008958091C00087FFFCCF809118
:107FB000C00084FD01C0A8958091C6000895E0E648
:107FC000F0E098E1908380830895EDDF803219F02E
:107FD00088E0F5DFFFCF84E1DECF1F93182FE3DFCA
:107FE0001150E9F7F2DF1F91089580E0E8DFEE27F6
:047FF000FF270994CA
:027FFE00040479
:00000001FF
